
usb2lin.elf:     file format elf32-littlearm

Sections:
Idx Name          Size      VMA       LMA       File off  Algn
  0 .isr_vector   00000188  08000000  08000000  00010000  2**0
                  CONTENTS, ALLOC, LOAD, READONLY, DATA
  1 .text         00008ae4  08000188  08000188  00010188  2**2
                  CONTENTS, ALLOC, LOAD, READONLY, CODE
  2 .rodata       0000004c  08008c6c  08008c6c  00018c6c  2**2
                  CONTENTS, ALLOC, LOAD, READONLY, DATA
  3 .ARM.extab    00000000  08008cb8  08008cb8  000201f0  2**0
                  CONTENTS
  4 .ARM          00000008  08008cb8  08008cb8  00018cb8  2**2
                  CONTENTS, ALLOC, LOAD, READONLY, DATA
  5 .preinit_array 00000000  08008cc0  08008cc0  000201f0  2**0
                  CONTENTS, ALLOC, LOAD, DATA
  6 .init_array   00000004  08008cc0  08008cc0  00018cc0  2**2
                  CONTENTS, ALLOC, LOAD, DATA
  7 .fini_array   00000004  08008cc4  08008cc4  00018cc4  2**2
                  CONTENTS, ALLOC, LOAD, DATA
  8 .data         000001f0  20000000  08008cc8  00020000  2**2
                  CONTENTS, ALLOC, LOAD, DATA
  9 .bss          00000db4  200001f0  08008eb8  000201f0  2**2
                  ALLOC
 10 ._user_heap_stack 00000604  20000fa4  08008eb8  00020fa4  2**0
                  ALLOC
 11 .ARM.attributes 00000030  00000000  00000000  000201f0  2**0
                  CONTENTS, READONLY
 12 .debug_info   0001b717  00000000  00000000  00020220  2**0
                  CONTENTS, READONLY, DEBUGGING
 13 .debug_abbrev 0000411b  00000000  00000000  0003b937  2**0
                  CONTENTS, READONLY, DEBUGGING
 14 .debug_aranges 00000fb0  00000000  00000000  0003fa58  2**3
                  CONTENTS, READONLY, DEBUGGING
 15 .debug_ranges 00000dd8  00000000  00000000  00040a08  2**3
                  CONTENTS, READONLY, DEBUGGING
 16 .debug_macro  00024be0  00000000  00000000  000417e0  2**0
                  CONTENTS, READONLY, DEBUGGING
 17 .debug_line   00013924  00000000  00000000  000663c0  2**0
                  CONTENTS, READONLY, DEBUGGING
 18 .debug_str    000c6ec5  00000000  00000000  00079ce4  2**0
                  CONTENTS, READONLY, DEBUGGING
 19 .comment      0000007b  00000000  00000000  00140ba9  2**0
                  CONTENTS, READONLY
 20 .debug_frame  00003ef4  00000000  00000000  00140c24  2**2
                  CONTENTS, READONLY, DEBUGGING

Disassembly of section .text:

08000188 <__do_global_dtors_aux>:
 8000188:	b510      	push	{r4, lr}
 800018a:	4c05      	ldr	r4, [pc, #20]	; (80001a0 <__do_global_dtors_aux+0x18>)
 800018c:	7823      	ldrb	r3, [r4, #0]
 800018e:	b933      	cbnz	r3, 800019e <__do_global_dtors_aux+0x16>
 8000190:	4b04      	ldr	r3, [pc, #16]	; (80001a4 <__do_global_dtors_aux+0x1c>)
 8000192:	b113      	cbz	r3, 800019a <__do_global_dtors_aux+0x12>
 8000194:	4804      	ldr	r0, [pc, #16]	; (80001a8 <__do_global_dtors_aux+0x20>)
 8000196:	f3af 8000 	nop.w
 800019a:	2301      	movs	r3, #1
 800019c:	7023      	strb	r3, [r4, #0]
 800019e:	bd10      	pop	{r4, pc}
 80001a0:	200001f0 	.word	0x200001f0
 80001a4:	00000000 	.word	0x00000000
 80001a8:	08008c54 	.word	0x08008c54

080001ac <frame_dummy>:
 80001ac:	b508      	push	{r3, lr}
 80001ae:	4b03      	ldr	r3, [pc, #12]	; (80001bc <frame_dummy+0x10>)
 80001b0:	b11b      	cbz	r3, 80001ba <frame_dummy+0xe>
 80001b2:	4903      	ldr	r1, [pc, #12]	; (80001c0 <frame_dummy+0x14>)
 80001b4:	4803      	ldr	r0, [pc, #12]	; (80001c4 <frame_dummy+0x18>)
 80001b6:	f3af 8000 	nop.w
 80001ba:	bd08      	pop	{r3, pc}
 80001bc:	00000000 	.word	0x00000000
 80001c0:	200001f4 	.word	0x200001f4
 80001c4:	08008c54 	.word	0x08008c54

080001c8 <__aeabi_uldivmod>:
 80001c8:	b953      	cbnz	r3, 80001e0 <__aeabi_uldivmod+0x18>
 80001ca:	b94a      	cbnz	r2, 80001e0 <__aeabi_uldivmod+0x18>
 80001cc:	2900      	cmp	r1, #0
 80001ce:	bf08      	it	eq
 80001d0:	2800      	cmpeq	r0, #0
 80001d2:	bf1c      	itt	ne
 80001d4:	f04f 31ff 	movne.w	r1, #4294967295
 80001d8:	f04f 30ff 	movne.w	r0, #4294967295
 80001dc:	f000 b972 	b.w	80004c4 <__aeabi_idiv0>
 80001e0:	f1ad 0c08 	sub.w	ip, sp, #8
 80001e4:	e96d ce04 	strd	ip, lr, [sp, #-16]!
 80001e8:	f000 f806 	bl	80001f8 <__udivmoddi4>
 80001ec:	f8dd e004 	ldr.w	lr, [sp, #4]
 80001f0:	e9dd 2302 	ldrd	r2, r3, [sp, #8]
 80001f4:	b004      	add	sp, #16
 80001f6:	4770      	bx	lr

080001f8 <__udivmoddi4>:
 80001f8:	e92d 47f0 	stmdb	sp!, {r4, r5, r6, r7, r8, r9, sl, lr}
 80001fc:	9e08      	ldr	r6, [sp, #32]
 80001fe:	4604      	mov	r4, r0
 8000200:	4688      	mov	r8, r1
 8000202:	2b00      	cmp	r3, #0
 8000204:	d14b      	bne.n	800029e <__udivmoddi4+0xa6>
 8000206:	428a      	cmp	r2, r1
 8000208:	4615      	mov	r5, r2
 800020a:	d967      	bls.n	80002dc <__udivmoddi4+0xe4>
 800020c:	fab2 f282 	clz	r2, r2
 8000210:	b14a      	cbz	r2, 8000226 <__udivmoddi4+0x2e>
 8000212:	f1c2 0720 	rsb	r7, r2, #32
 8000216:	fa01 f302 	lsl.w	r3, r1, r2
 800021a:	fa20 f707 	lsr.w	r7, r0, r7
 800021e:	4095      	lsls	r5, r2
 8000220:	ea47 0803 	orr.w	r8, r7, r3
 8000224:	4094      	lsls	r4, r2
 8000226:	ea4f 4e15 	mov.w	lr, r5, lsr #16
 800022a:	0c23      	lsrs	r3, r4, #16
 800022c:	fbb8 f7fe 	udiv	r7, r8, lr
 8000230:	fa1f fc85 	uxth.w	ip, r5
 8000234:	fb0e 8817 	mls	r8, lr, r7, r8
 8000238:	ea43 4308 	orr.w	r3, r3, r8, lsl #16
 800023c:	fb07 f10c 	mul.w	r1, r7, ip
 8000240:	4299      	cmp	r1, r3
 8000242:	d909      	bls.n	8000258 <__udivmoddi4+0x60>
 8000244:	18eb      	adds	r3, r5, r3
 8000246:	f107 30ff 	add.w	r0, r7, #4294967295
 800024a:	f080 811b 	bcs.w	8000484 <__udivmoddi4+0x28c>
 800024e:	4299      	cmp	r1, r3
 8000250:	f240 8118 	bls.w	8000484 <__udivmoddi4+0x28c>
 8000254:	3f02      	subs	r7, #2
 8000256:	442b      	add	r3, r5
 8000258:	1a5b      	subs	r3, r3, r1
 800025a:	b2a4      	uxth	r4, r4
 800025c:	fbb3 f0fe 	udiv	r0, r3, lr
 8000260:	fb0e 3310 	mls	r3, lr, r0, r3
 8000264:	ea44 4403 	orr.w	r4, r4, r3, lsl #16
 8000268:	fb00 fc0c 	mul.w	ip, r0, ip
 800026c:	45a4      	cmp	ip, r4
 800026e:	d909      	bls.n	8000284 <__udivmoddi4+0x8c>
 8000270:	192c      	adds	r4, r5, r4
 8000272:	f100 33ff 	add.w	r3, r0, #4294967295
 8000276:	f080 8107 	bcs.w	8000488 <__udivmoddi4+0x290>
 800027a:	45a4      	cmp	ip, r4
 800027c:	f240 8104 	bls.w	8000488 <__udivmoddi4+0x290>
 8000280:	3802      	subs	r0, #2
 8000282:	442c      	add	r4, r5
 8000284:	ea40 4007 	orr.w	r0, r0, r7, lsl #16
 8000288:	eba4 040c 	sub.w	r4, r4, ip
 800028c:	2700      	movs	r7, #0
 800028e:	b11e      	cbz	r6, 8000298 <__udivmoddi4+0xa0>
 8000290:	40d4      	lsrs	r4, r2
 8000292:	2300      	movs	r3, #0
 8000294:	e9c6 4300 	strd	r4, r3, [r6]
 8000298:	4639      	mov	r1, r7
 800029a:	e8bd 87f0 	ldmia.w	sp!, {r4, r5, r6, r7, r8, r9, sl, pc}
 800029e:	428b      	cmp	r3, r1
 80002a0:	d909      	bls.n	80002b6 <__udivmoddi4+0xbe>
 80002a2:	2e00      	cmp	r6, #0
 80002a4:	f000 80eb 	beq.w	800047e <__udivmoddi4+0x286>
 80002a8:	2700      	movs	r7, #0
 80002aa:	e9c6 0100 	strd	r0, r1, [r6]
 80002ae:	4638      	mov	r0, r7
 80002b0:	4639      	mov	r1, r7
 80002b2:	e8bd 87f0 	ldmia.w	sp!, {r4, r5, r6, r7, r8, r9, sl, pc}
 80002b6:	fab3 f783 	clz	r7, r3
 80002ba:	2f00      	cmp	r7, #0
 80002bc:	d147      	bne.n	800034e <__udivmoddi4+0x156>
 80002be:	428b      	cmp	r3, r1
 80002c0:	d302      	bcc.n	80002c8 <__udivmoddi4+0xd0>
 80002c2:	4282      	cmp	r2, r0
 80002c4:	f200 80fa 	bhi.w	80004bc <__udivmoddi4+0x2c4>
 80002c8:	1a84      	subs	r4, r0, r2
 80002ca:	eb61 0303 	sbc.w	r3, r1, r3
 80002ce:	2001      	movs	r0, #1
 80002d0:	4698      	mov	r8, r3
 80002d2:	2e00      	cmp	r6, #0
 80002d4:	d0e0      	beq.n	8000298 <__udivmoddi4+0xa0>
 80002d6:	e9c6 4800 	strd	r4, r8, [r6]
 80002da:	e7dd      	b.n	8000298 <__udivmoddi4+0xa0>
 80002dc:	b902      	cbnz	r2, 80002e0 <__udivmoddi4+0xe8>
 80002de:	deff      	udf	#255	; 0xff
 80002e0:	fab2 f282 	clz	r2, r2
 80002e4:	2a00      	cmp	r2, #0
 80002e6:	f040 808f 	bne.w	8000408 <__udivmoddi4+0x210>
 80002ea:	1b49      	subs	r1, r1, r5
 80002ec:	ea4f 4e15 	mov.w	lr, r5, lsr #16
 80002f0:	fa1f f885 	uxth.w	r8, r5
 80002f4:	2701      	movs	r7, #1
 80002f6:	fbb1 fcfe 	udiv	ip, r1, lr
 80002fa:	0c23      	lsrs	r3, r4, #16
 80002fc:	fb0e 111c 	mls	r1, lr, ip, r1
 8000300:	ea43 4301 	orr.w	r3, r3, r1, lsl #16
 8000304:	fb08 f10c 	mul.w	r1, r8, ip
 8000308:	4299      	cmp	r1, r3
 800030a:	d907      	bls.n	800031c <__udivmoddi4+0x124>
 800030c:	18eb      	adds	r3, r5, r3
 800030e:	f10c 30ff 	add.w	r0, ip, #4294967295
 8000312:	d202      	bcs.n	800031a <__udivmoddi4+0x122>
 8000314:	4299      	cmp	r1, r3
 8000316:	f200 80cd 	bhi.w	80004b4 <__udivmoddi4+0x2bc>
 800031a:	4684      	mov	ip, r0
 800031c:	1a59      	subs	r1, r3, r1
 800031e:	b2a3      	uxth	r3, r4
 8000320:	fbb1 f0fe 	udiv	r0, r1, lr
 8000324:	fb0e 1410 	mls	r4, lr, r0, r1
 8000328:	ea43 4404 	orr.w	r4, r3, r4, lsl #16
 800032c:	fb08 f800 	mul.w	r8, r8, r0
 8000330:	45a0      	cmp	r8, r4
 8000332:	d907      	bls.n	8000344 <__udivmoddi4+0x14c>
 8000334:	192c      	adds	r4, r5, r4
 8000336:	f100 33ff 	add.w	r3, r0, #4294967295
 800033a:	d202      	bcs.n	8000342 <__udivmoddi4+0x14a>
 800033c:	45a0      	cmp	r8, r4
 800033e:	f200 80b6 	bhi.w	80004ae <__udivmoddi4+0x2b6>
 8000342:	4618      	mov	r0, r3
 8000344:	eba4 0408 	sub.w	r4, r4, r8
 8000348:	ea40 400c 	orr.w	r0, r0, ip, lsl #16
 800034c:	e79f      	b.n	800028e <__udivmoddi4+0x96>
 800034e:	f1c7 0c20 	rsb	ip, r7, #32
 8000352:	40bb      	lsls	r3, r7
 8000354:	fa22 fe0c 	lsr.w	lr, r2, ip
 8000358:	ea4e 0e03 	orr.w	lr, lr, r3
 800035c:	fa01 f407 	lsl.w	r4, r1, r7
 8000360:	fa20 f50c 	lsr.w	r5, r0, ip
 8000364:	fa21 f30c 	lsr.w	r3, r1, ip
 8000368:	ea4f 481e 	mov.w	r8, lr, lsr #16
 800036c:	4325      	orrs	r5, r4
 800036e:	fbb3 f9f8 	udiv	r9, r3, r8
 8000372:	0c2c      	lsrs	r4, r5, #16
 8000374:	fb08 3319 	mls	r3, r8, r9, r3
 8000378:	fa1f fa8e 	uxth.w	sl, lr
 800037c:	ea44 4303 	orr.w	r3, r4, r3, lsl #16
 8000380:	fb09 f40a 	mul.w	r4, r9, sl
 8000384:	429c      	cmp	r4, r3
 8000386:	fa02 f207 	lsl.w	r2, r2, r7
 800038a:	fa00 f107 	lsl.w	r1, r0, r7
 800038e:	d90b      	bls.n	80003a8 <__udivmoddi4+0x1b0>
 8000390:	eb1e 0303 	adds.w	r3, lr, r3
 8000394:	f109 30ff 	add.w	r0, r9, #4294967295
 8000398:	f080 8087 	bcs.w	80004aa <__udivmoddi4+0x2b2>
 800039c:	429c      	cmp	r4, r3
 800039e:	f240 8084 	bls.w	80004aa <__udivmoddi4+0x2b2>
 80003a2:	f1a9 0902 	sub.w	r9, r9, #2
 80003a6:	4473      	add	r3, lr
 80003a8:	1b1b      	subs	r3, r3, r4
 80003aa:	b2ad      	uxth	r5, r5
 80003ac:	fbb3 f0f8 	udiv	r0, r3, r8
 80003b0:	fb08 3310 	mls	r3, r8, r0, r3
 80003b4:	ea45 4403 	orr.w	r4, r5, r3, lsl #16
 80003b8:	fb00 fa0a 	mul.w	sl, r0, sl
 80003bc:	45a2      	cmp	sl, r4
 80003be:	d908      	bls.n	80003d2 <__udivmoddi4+0x1da>
 80003c0:	eb1e 0404 	adds.w	r4, lr, r4
 80003c4:	f100 33ff 	add.w	r3, r0, #4294967295
 80003c8:	d26b      	bcs.n	80004a2 <__udivmoddi4+0x2aa>
 80003ca:	45a2      	cmp	sl, r4
 80003cc:	d969      	bls.n	80004a2 <__udivmoddi4+0x2aa>
 80003ce:	3802      	subs	r0, #2
 80003d0:	4474      	add	r4, lr
 80003d2:	ea40 4009 	orr.w	r0, r0, r9, lsl #16
 80003d6:	fba0 8902 	umull	r8, r9, r0, r2
 80003da:	eba4 040a 	sub.w	r4, r4, sl
 80003de:	454c      	cmp	r4, r9
 80003e0:	46c2      	mov	sl, r8
 80003e2:	464b      	mov	r3, r9
 80003e4:	d354      	bcc.n	8000490 <__udivmoddi4+0x298>
 80003e6:	d051      	beq.n	800048c <__udivmoddi4+0x294>
 80003e8:	2e00      	cmp	r6, #0
 80003ea:	d069      	beq.n	80004c0 <__udivmoddi4+0x2c8>
 80003ec:	ebb1 050a 	subs.w	r5, r1, sl
 80003f0:	eb64 0403 	sbc.w	r4, r4, r3
 80003f4:	fa04 fc0c 	lsl.w	ip, r4, ip
 80003f8:	40fd      	lsrs	r5, r7
 80003fa:	40fc      	lsrs	r4, r7
 80003fc:	ea4c 0505 	orr.w	r5, ip, r5
 8000400:	e9c6 5400 	strd	r5, r4, [r6]
 8000404:	2700      	movs	r7, #0
 8000406:	e747      	b.n	8000298 <__udivmoddi4+0xa0>
 8000408:	f1c2 0320 	rsb	r3, r2, #32
 800040c:	fa20 f703 	lsr.w	r7, r0, r3
 8000410:	4095      	lsls	r5, r2
 8000412:	fa01 f002 	lsl.w	r0, r1, r2
 8000416:	fa21 f303 	lsr.w	r3, r1, r3
 800041a:	ea4f 4e15 	mov.w	lr, r5, lsr #16
 800041e:	4338      	orrs	r0, r7
 8000420:	0c01      	lsrs	r1, r0, #16
 8000422:	fbb3 f7fe 	udiv	r7, r3, lr
 8000426:	fa1f f885 	uxth.w	r8, r5
 800042a:	fb0e 3317 	mls	r3, lr, r7, r3
 800042e:	ea41 4103 	orr.w	r1, r1, r3, lsl #16
 8000432:	fb07 f308 	mul.w	r3, r7, r8
 8000436:	428b      	cmp	r3, r1
 8000438:	fa04 f402 	lsl.w	r4, r4, r2
 800043c:	d907      	bls.n	800044e <__udivmoddi4+0x256>
 800043e:	1869      	adds	r1, r5, r1
 8000440:	f107 3cff 	add.w	ip, r7, #4294967295
 8000444:	d22f      	bcs.n	80004a6 <__udivmoddi4+0x2ae>
 8000446:	428b      	cmp	r3, r1
 8000448:	d92d      	bls.n	80004a6 <__udivmoddi4+0x2ae>
 800044a:	3f02      	subs	r7, #2
 800044c:	4429      	add	r1, r5
 800044e:	1acb      	subs	r3, r1, r3
 8000450:	b281      	uxth	r1, r0
 8000452:	fbb3 f0fe 	udiv	r0, r3, lr
 8000456:	fb0e 3310 	mls	r3, lr, r0, r3
 800045a:	ea41 4103 	orr.w	r1, r1, r3, lsl #16
 800045e:	fb00 f308 	mul.w	r3, r0, r8
 8000462:	428b      	cmp	r3, r1
 8000464:	d907      	bls.n	8000476 <__udivmoddi4+0x27e>
 8000466:	1869      	adds	r1, r5, r1
 8000468:	f100 3cff 	add.w	ip, r0, #4294967295
 800046c:	d217      	bcs.n	800049e <__udivmoddi4+0x2a6>
 800046e:	428b      	cmp	r3, r1
 8000470:	d915      	bls.n	800049e <__udivmoddi4+0x2a6>
 8000472:	3802      	subs	r0, #2
 8000474:	4429      	add	r1, r5
 8000476:	1ac9      	subs	r1, r1, r3
 8000478:	ea40 4707 	orr.w	r7, r0, r7, lsl #16
 800047c:	e73b      	b.n	80002f6 <__udivmoddi4+0xfe>
 800047e:	4637      	mov	r7, r6
 8000480:	4630      	mov	r0, r6
 8000482:	e709      	b.n	8000298 <__udivmoddi4+0xa0>
 8000484:	4607      	mov	r7, r0
 8000486:	e6e7      	b.n	8000258 <__udivmoddi4+0x60>
 8000488:	4618      	mov	r0, r3
 800048a:	e6fb      	b.n	8000284 <__udivmoddi4+0x8c>
 800048c:	4541      	cmp	r1, r8
 800048e:	d2ab      	bcs.n	80003e8 <__udivmoddi4+0x1f0>
 8000490:	ebb8 0a02 	subs.w	sl, r8, r2
 8000494:	eb69 020e 	sbc.w	r2, r9, lr
 8000498:	3801      	subs	r0, #1
 800049a:	4613      	mov	r3, r2
 800049c:	e7a4      	b.n	80003e8 <__udivmoddi4+0x1f0>
 800049e:	4660      	mov	r0, ip
 80004a0:	e7e9      	b.n	8000476 <__udivmoddi4+0x27e>
 80004a2:	4618      	mov	r0, r3
 80004a4:	e795      	b.n	80003d2 <__udivmoddi4+0x1da>
 80004a6:	4667      	mov	r7, ip
 80004a8:	e7d1      	b.n	800044e <__udivmoddi4+0x256>
 80004aa:	4681      	mov	r9, r0
 80004ac:	e77c      	b.n	80003a8 <__udivmoddi4+0x1b0>
 80004ae:	3802      	subs	r0, #2
 80004b0:	442c      	add	r4, r5
 80004b2:	e747      	b.n	8000344 <__udivmoddi4+0x14c>
 80004b4:	f1ac 0c02 	sub.w	ip, ip, #2
 80004b8:	442b      	add	r3, r5
 80004ba:	e72f      	b.n	800031c <__udivmoddi4+0x124>
 80004bc:	4638      	mov	r0, r7
 80004be:	e708      	b.n	80002d2 <__udivmoddi4+0xda>
 80004c0:	4637      	mov	r7, r6
 80004c2:	e6e9      	b.n	8000298 <__udivmoddi4+0xa0>

080004c4 <__aeabi_idiv0>:
 80004c4:	4770      	bx	lr
 80004c6:	bf00      	nop

080004c8 <slcan_get_master_table_row>:

uint8_t lin_master_data[MAX_SLAVES_COUNT * 8];
t_master_frame_table_item master_frame_table[MAX_SLAVES_COUNT];
uint8_t master_frame_table_size = 0;

t_master_frame_table_item* slcan_get_master_table_row(open_lin_pid_t id, int8_t* out_index){
 80004c8:	b480      	push	{r7}
 80004ca:	b085      	sub	sp, #20
 80004cc:	af00      	add	r7, sp, #0
 80004ce:	4603      	mov	r3, r0
 80004d0:	6039      	str	r1, [r7, #0]
 80004d2:	71fb      	strb	r3, [r7, #7]
	uint8_t i = -1;
 80004d4:	23ff      	movs	r3, #255	; 0xff
 80004d6:	73fb      	strb	r3, [r7, #15]
	for (i = 0; i < master_frame_table_size; i++)
 80004d8:	2300      	movs	r3, #0
 80004da:	73fb      	strb	r3, [r7, #15]
 80004dc:	e00e      	b.n	80004fc <slcan_get_master_table_row+0x34>
	{
		if (id == master_frame_table[i].slot.pid)
 80004de:	7bfa      	ldrb	r2, [r7, #15]
 80004e0:	4912      	ldr	r1, [pc, #72]	; (800052c <slcan_get_master_table_row+0x64>)
 80004e2:	4613      	mov	r3, r2
 80004e4:	005b      	lsls	r3, r3, #1
 80004e6:	4413      	add	r3, r2
 80004e8:	009b      	lsls	r3, r3, #2
 80004ea:	440b      	add	r3, r1
 80004ec:	3304      	adds	r3, #4
 80004ee:	781b      	ldrb	r3, [r3, #0]
 80004f0:	79fa      	ldrb	r2, [r7, #7]
 80004f2:	429a      	cmp	r2, r3
 80004f4:	d008      	beq.n	8000508 <slcan_get_master_table_row+0x40>
	for (i = 0; i < master_frame_table_size; i++)
 80004f6:	7bfb      	ldrb	r3, [r7, #15]
 80004f8:	3301      	adds	r3, #1
 80004fa:	73fb      	strb	r3, [r7, #15]
 80004fc:	4b0c      	ldr	r3, [pc, #48]	; (8000530 <slcan_get_master_table_row+0x68>)
 80004fe:	781b      	ldrb	r3, [r3, #0]
 8000500:	7bfa      	ldrb	r2, [r7, #15]
 8000502:	429a      	cmp	r2, r3
 8000504:	d3eb      	bcc.n	80004de <slcan_get_master_table_row+0x16>
 8000506:	e000      	b.n	800050a <slcan_get_master_table_row+0x42>
		{
			break;
 8000508:	bf00      	nop
		}
	}
	(*out_index) = i;
 800050a:	f997 200f 	ldrsb.w	r2, [r7, #15]
 800050e:	683b      	ldr	r3, [r7, #0]
 8000510:	701a      	strb	r2, [r3, #0]
	return &master_frame_table[i];
 8000512:	7bfa      	ldrb	r2, [r7, #15]
 8000514:	4613      	mov	r3, r2
 8000516:	005b      	lsls	r3, r3, #1
 8000518:	4413      	add	r3, r2
 800051a:	009b      	lsls	r3, r3, #2
 800051c:	4a03      	ldr	r2, [pc, #12]	; (800052c <slcan_get_master_table_row+0x64>)
 800051e:	4413      	add	r3, r2
}
 8000520:	4618      	mov	r0, r3
 8000522:	3714      	adds	r7, #20
 8000524:	46bd      	mov	sp, r7
 8000526:	f85d 7b04 	ldr.w	r7, [sp], #4
 800052a:	4770      	bx	lr
 800052c:	200002f8 	.word	0x200002f8
 8000530:	2000020c 	.word	0x2000020c

08000534 <addLinMasterRow>:
//T013151502AA55
//t0163112233

void open_lin_net_init(t_master_frame_table_item *a_slot_array, l_u8 a_slot_array_len);

uint8_t addLinMasterRow(uint8_t* line) {
 8000534:	b580      	push	{r7, lr}
 8000536:	b088      	sub	sp, #32
 8000538:	af00      	add	r7, sp, #0
 800053a:	6078      	str	r0, [r7, #4]
    uint32_t temp;
    int8_t i,out_index;
    t_master_frame_table_item* array_ptr = 0;
 800053c:	2300      	movs	r3, #0
 800053e:	61bb      	str	r3, [r7, #24]
    uint16_t tFrame_Max_ms;
    uint8_t offset = 0;
 8000540:	2300      	movs	r3, #0
 8000542:	77bb      	strb	r3, [r7, #30]
    if (line[0] < 'Z')
 8000544:	687b      	ldr	r3, [r7, #4]
 8000546:	781b      	ldrb	r3, [r3, #0]
 8000548:	2b59      	cmp	r3, #89	; 0x59
 800054a:	d801      	bhi.n	8000550 <addLinMasterRow+0x1c>
    	offset = 5;
 800054c:	2305      	movs	r3, #5
 800054e:	77bb      	strb	r3, [r7, #30]
    // reset schedule table
    if (line[1] == '2')
 8000550:	687b      	ldr	r3, [r7, #4]
 8000552:	3301      	adds	r3, #1
 8000554:	781b      	ldrb	r3, [r3, #0]
 8000556:	2b32      	cmp	r3, #50	; 0x32
 8000558:	d109      	bne.n	800056e <addLinMasterRow+0x3a>
    {
    	open_lin_hw_reset();
 800055a:	f000 fc45 	bl	8000de8 <open_lin_hw_reset>
        slcan_state = SLCAN_STATE_CONFIG;
 800055e:	4b78      	ldr	r3, [pc, #480]	; (8000740 <addLinMasterRow+0x20c>)
 8000560:	2200      	movs	r2, #0
 8000562:	701a      	strb	r2, [r3, #0]
        master_frame_table_size = 0;
 8000564:	4b77      	ldr	r3, [pc, #476]	; (8000744 <addLinMasterRow+0x210>)
 8000566:	2200      	movs	r2, #0
 8000568:	701a      	strb	r2, [r3, #0]
        return 1;
 800056a:	2301      	movs	r3, #1
 800056c:	e0e4      	b.n	8000738 <addLinMasterRow+0x204>
    }
    // start sending
    if (line[1] == '1'){
 800056e:	687b      	ldr	r3, [r7, #4]
 8000570:	3301      	adds	r3, #1
 8000572:	781b      	ldrb	r3, [r3, #0]
 8000574:	2b31      	cmp	r3, #49	; 0x31
 8000576:	d115      	bne.n	80005a4 <addLinMasterRow+0x70>
    	if (lin_type == LIN_SLAVE)
 8000578:	4b73      	ldr	r3, [pc, #460]	; (8000748 <addLinMasterRow+0x214>)
 800057a:	781b      	ldrb	r3, [r3, #0]
 800057c:	2b02      	cmp	r3, #2
 800057e:	d106      	bne.n	800058e <addLinMasterRow+0x5a>
    	{
    		open_lin_net_init(master_frame_table,master_frame_table_size);
 8000580:	4b70      	ldr	r3, [pc, #448]	; (8000744 <addLinMasterRow+0x210>)
 8000582:	781b      	ldrb	r3, [r3, #0]
 8000584:	4619      	mov	r1, r3
 8000586:	4871      	ldr	r0, [pc, #452]	; (800074c <addLinMasterRow+0x218>)
 8000588:	f000 fe8e 	bl	80012a8 <open_lin_net_init>
 800058c:	e005      	b.n	800059a <addLinMasterRow+0x66>
    	} else {
			open_lin_master_dl_init(master_frame_table,master_frame_table_size);
 800058e:	4b6d      	ldr	r3, [pc, #436]	; (8000744 <addLinMasterRow+0x210>)
 8000590:	781b      	ldrb	r3, [r3, #0]
 8000592:	4619      	mov	r1, r3
 8000594:	486d      	ldr	r0, [pc, #436]	; (800074c <addLinMasterRow+0x218>)
 8000596:	f000 fcc3 	bl	8000f20 <open_lin_master_dl_init>
    		 //wakeUpLin();
    	}
        slcan_state = SLCAN_STATE_OPEN;
 800059a:	4b69      	ldr	r3, [pc, #420]	; (8000740 <addLinMasterRow+0x20c>)
 800059c:	2202      	movs	r2, #2
 800059e:	701a      	strb	r2, [r3, #0]
        return 1;
 80005a0:	2301      	movs	r3, #1
 80005a2:	e0c9      	b.n	8000738 <addLinMasterRow+0x204>
    }

    // id
    if (!parseHex(&line[2], 2, &temp)) return 0;
 80005a4:	687b      	ldr	r3, [r7, #4]
 80005a6:	3302      	adds	r3, #2
 80005a8:	f107 0210 	add.w	r2, r7, #16
 80005ac:	2102      	movs	r1, #2
 80005ae:	4618      	mov	r0, r3
 80005b0:	f001 f8a2 	bl	80016f8 <parseHex>
 80005b4:	4603      	mov	r3, r0
 80005b6:	2b00      	cmp	r3, #0
 80005b8:	d101      	bne.n	80005be <addLinMasterRow+0x8a>
 80005ba:	2300      	movs	r3, #0
 80005bc:	e0bc      	b.n	8000738 <addLinMasterRow+0x204>

	array_ptr = slcan_get_master_table_row(temp, &out_index);
 80005be:	693b      	ldr	r3, [r7, #16]
 80005c0:	b2db      	uxtb	r3, r3
 80005c2:	f107 020f 	add.w	r2, r7, #15
 80005c6:	4611      	mov	r1, r2
 80005c8:	4618      	mov	r0, r3
 80005ca:	f7ff ff7d 	bl	80004c8 <slcan_get_master_table_row>
 80005ce:	61b8      	str	r0, [r7, #24]
    array_ptr->slot.pid= temp;
 80005d0:	693b      	ldr	r3, [r7, #16]
 80005d2:	b2da      	uxtb	r2, r3
 80005d4:	69bb      	ldr	r3, [r7, #24]
 80005d6:	711a      	strb	r2, [r3, #4]
    if ((temp == 0x3d) || (temp == 0x3c))
 80005d8:	693b      	ldr	r3, [r7, #16]
 80005da:	2b3d      	cmp	r3, #61	; 0x3d
    {
//    	extern l_u8 diagnostic_slot;
//    	diagnostic_slot = 1;
    }
    // len
    if (!parseHex(&line[4 + offset], 1, &temp)) return 0;
 80005dc:	7fbb      	ldrb	r3, [r7, #30]
 80005de:	3304      	adds	r3, #4
 80005e0:	461a      	mov	r2, r3
 80005e2:	687b      	ldr	r3, [r7, #4]
 80005e4:	4413      	add	r3, r2
 80005e6:	f107 0210 	add.w	r2, r7, #16
 80005ea:	2101      	movs	r1, #1
 80005ec:	4618      	mov	r0, r3
 80005ee:	f001 f883 	bl	80016f8 <parseHex>
 80005f2:	4603      	mov	r3, r0
 80005f4:	2b00      	cmp	r3, #0
 80005f6:	d101      	bne.n	80005fc <addLinMasterRow+0xc8>
 80005f8:	2300      	movs	r3, #0
 80005fa:	e09d      	b.n	8000738 <addLinMasterRow+0x204>
    if (array_ptr->slot.data_length  > 8) return 0;
 80005fc:	69bb      	ldr	r3, [r7, #24]
 80005fe:	799b      	ldrb	r3, [r3, #6]
 8000600:	2b08      	cmp	r3, #8
 8000602:	d901      	bls.n	8000608 <addLinMasterRow+0xd4>
 8000604:	2300      	movs	r3, #0
 8000606:	e097      	b.n	8000738 <addLinMasterRow+0x204>
    array_ptr->slot.data_length = temp;
 8000608:	693b      	ldr	r3, [r7, #16]
 800060a:	b2da      	uxtb	r2, r3
 800060c:	69bb      	ldr	r3, [r7, #24]
 800060e:	719a      	strb	r2, [r3, #6]

    // type
    if ((line[0] == 'r') || (line[0] == 'R'))
 8000610:	687b      	ldr	r3, [r7, #4]
 8000612:	781b      	ldrb	r3, [r3, #0]
 8000614:	2b72      	cmp	r3, #114	; 0x72
 8000616:	d003      	beq.n	8000620 <addLinMasterRow+0xec>
 8000618:	687b      	ldr	r3, [r7, #4]
 800061a:	781b      	ldrb	r3, [r3, #0]
 800061c:	2b52      	cmp	r3, #82	; 0x52
 800061e:	d103      	bne.n	8000628 <addLinMasterRow+0xf4>
    	array_ptr->slot.frame_type = OPEN_LIN_FRAME_TYPE_RECEIVE;
 8000620:	69bb      	ldr	r3, [r7, #24]
 8000622:	2201      	movs	r2, #1
 8000624:	715a      	strb	r2, [r3, #5]
 8000626:	e002      	b.n	800062e <addLinMasterRow+0xfa>
	else
		array_ptr->slot.frame_type = OPEN_LIN_FRAME_TYPE_TRANSMIT;
 8000628:	69bb      	ldr	r3, [r7, #24]
 800062a:	2200      	movs	r2, #0
 800062c:	715a      	strb	r2, [r3, #5]
    // data
    array_ptr->slot.data_ptr = &(lin_master_data[out_index * 8]); //data is later set in case of override
 800062e:	f997 300f 	ldrsb.w	r3, [r7, #15]
 8000632:	00db      	lsls	r3, r3, #3
 8000634:	4a46      	ldr	r2, [pc, #280]	; (8000750 <addLinMasterRow+0x21c>)
 8000636:	441a      	add	r2, r3
 8000638:	69bb      	ldr	r3, [r7, #24]
 800063a:	609a      	str	r2, [r3, #8]
    // period
    if (line[0] < 'Z') // if upper case
 800063c:	687b      	ldr	r3, [r7, #4]
 800063e:	781b      	ldrb	r3, [r3, #0]
 8000640:	2b59      	cmp	r3, #89	; 0x59
 8000642:	d822      	bhi.n	800068a <addLinMasterRow+0x156>
    {
    	if (!parseHex(&line[4], 2, &temp)) return 0;
 8000644:	687b      	ldr	r3, [r7, #4]
 8000646:	3304      	adds	r3, #4
 8000648:	f107 0210 	add.w	r2, r7, #16
 800064c:	2102      	movs	r1, #2
 800064e:	4618      	mov	r0, r3
 8000650:	f001 f852 	bl	80016f8 <parseHex>
 8000654:	4603      	mov	r3, r0
 8000656:	2b00      	cmp	r3, #0
 8000658:	d101      	bne.n	800065e <addLinMasterRow+0x12a>
 800065a:	2300      	movs	r3, #0
 800065c:	e06c      	b.n	8000738 <addLinMasterRow+0x204>
    	array_ptr->offset_ms = temp;
 800065e:	693b      	ldr	r3, [r7, #16]
 8000660:	b2da      	uxtb	r2, r3
 8000662:	69bb      	ldr	r3, [r7, #24]
 8000664:	701a      	strb	r2, [r3, #0]
    	if (!parseHex(&line[6], 2, &temp)) return 0;
 8000666:	687b      	ldr	r3, [r7, #4]
 8000668:	3306      	adds	r3, #6
 800066a:	f107 0210 	add.w	r2, r7, #16
 800066e:	2102      	movs	r1, #2
 8000670:	4618      	mov	r0, r3
 8000672:	f001 f841 	bl	80016f8 <parseHex>
 8000676:	4603      	mov	r3, r0
 8000678:	2b00      	cmp	r3, #0
 800067a:	d101      	bne.n	8000680 <addLinMasterRow+0x14c>
 800067c:	2300      	movs	r3, #0
 800067e:	e05b      	b.n	8000738 <addLinMasterRow+0x204>
    	array_ptr->response_wait_ms	= temp;
 8000680:	693b      	ldr	r3, [r7, #16]
 8000682:	b2da      	uxtb	r2, r3
 8000684:	69bb      	ldr	r3, [r7, #24]
 8000686:	705a      	strb	r2, [r3, #1]
 8000688:	e015      	b.n	80006b6 <addLinMasterRow+0x182>
    } else
    {
		array_ptr->offset_ms = 15;
 800068a:	69bb      	ldr	r3, [r7, #24]
 800068c:	220f      	movs	r2, #15
 800068e:	701a      	strb	r2, [r3, #0]
		// timeout
		tFrame_Max_ms = (((uint16_t)array_ptr->slot.data_length * 10U + 44U) * 7U / 100U) + 1;
 8000690:	69bb      	ldr	r3, [r7, #24]
 8000692:	799b      	ldrb	r3, [r3, #6]
 8000694:	461a      	mov	r2, r3
 8000696:	2346      	movs	r3, #70	; 0x46
 8000698:	fb03 f302 	mul.w	r3, r3, r2
 800069c:	f503 739a 	add.w	r3, r3, #308	; 0x134
 80006a0:	4a2c      	ldr	r2, [pc, #176]	; (8000754 <addLinMasterRow+0x220>)
 80006a2:	fba2 2303 	umull	r2, r3, r2, r3
 80006a6:	095b      	lsrs	r3, r3, #5
 80006a8:	b29b      	uxth	r3, r3
 80006aa:	3301      	adds	r3, #1
 80006ac:	82fb      	strh	r3, [r7, #22]
		array_ptr->response_wait_ms = (uint8_t)(tFrame_Max_ms);
 80006ae:	8afb      	ldrh	r3, [r7, #22]
 80006b0:	b2da      	uxtb	r2, r3
 80006b2:	69bb      	ldr	r3, [r7, #24]
 80006b4:	705a      	strb	r2, [r3, #1]
    }

    if (array_ptr->slot.frame_type == OPEN_LIN_FRAME_TYPE_TRANSMIT)
 80006b6:	69bb      	ldr	r3, [r7, #24]
 80006b8:	795b      	ldrb	r3, [r3, #5]
 80006ba:	2b00      	cmp	r3, #0
 80006bc:	d12a      	bne.n	8000714 <addLinMasterRow+0x1e0>
    {
        for (i = 0; i < array_ptr->slot.data_length; i++)
 80006be:	2300      	movs	r3, #0
 80006c0:	77fb      	strb	r3, [r7, #31]
 80006c2:	e021      	b.n	8000708 <addLinMasterRow+0x1d4>
        {
            if (!parseHex(&line[5 + offset + i * 2], 2, &temp)) return 0;
 80006c4:	7fbb      	ldrb	r3, [r7, #30]
 80006c6:	1d5a      	adds	r2, r3, #5
 80006c8:	f997 301f 	ldrsb.w	r3, [r7, #31]
 80006cc:	005b      	lsls	r3, r3, #1
 80006ce:	4413      	add	r3, r2
 80006d0:	461a      	mov	r2, r3
 80006d2:	687b      	ldr	r3, [r7, #4]
 80006d4:	4413      	add	r3, r2
 80006d6:	f107 0210 	add.w	r2, r7, #16
 80006da:	2102      	movs	r1, #2
 80006dc:	4618      	mov	r0, r3
 80006de:	f001 f80b 	bl	80016f8 <parseHex>
 80006e2:	4603      	mov	r3, r0
 80006e4:	2b00      	cmp	r3, #0
 80006e6:	d101      	bne.n	80006ec <addLinMasterRow+0x1b8>
 80006e8:	2300      	movs	r3, #0
 80006ea:	e025      	b.n	8000738 <addLinMasterRow+0x204>
            array_ptr->slot.data_ptr[i] = temp;
 80006ec:	6939      	ldr	r1, [r7, #16]
 80006ee:	69bb      	ldr	r3, [r7, #24]
 80006f0:	689a      	ldr	r2, [r3, #8]
 80006f2:	f997 301f 	ldrsb.w	r3, [r7, #31]
 80006f6:	4413      	add	r3, r2
 80006f8:	b2ca      	uxtb	r2, r1
 80006fa:	701a      	strb	r2, [r3, #0]
        for (i = 0; i < array_ptr->slot.data_length; i++)
 80006fc:	f997 301f 	ldrsb.w	r3, [r7, #31]
 8000700:	b2db      	uxtb	r3, r3
 8000702:	3301      	adds	r3, #1
 8000704:	b2db      	uxtb	r3, r3
 8000706:	77fb      	strb	r3, [r7, #31]
 8000708:	f997 301f 	ldrsb.w	r3, [r7, #31]
 800070c:	69ba      	ldr	r2, [r7, #24]
 800070e:	7992      	ldrb	r2, [r2, #6]
 8000710:	4293      	cmp	r3, r2
 8000712:	dbd7      	blt.n	80006c4 <addLinMasterRow+0x190>
        }
    }

    if ((out_index == master_frame_table_size) && (master_frame_table_size < MAX_SLAVES_COUNT))
 8000714:	f997 300f 	ldrsb.w	r3, [r7, #15]
 8000718:	461a      	mov	r2, r3
 800071a:	4b0a      	ldr	r3, [pc, #40]	; (8000744 <addLinMasterRow+0x210>)
 800071c:	781b      	ldrb	r3, [r3, #0]
 800071e:	429a      	cmp	r2, r3
 8000720:	d109      	bne.n	8000736 <addLinMasterRow+0x202>
 8000722:	4b08      	ldr	r3, [pc, #32]	; (8000744 <addLinMasterRow+0x210>)
 8000724:	781b      	ldrb	r3, [r3, #0]
 8000726:	2b0f      	cmp	r3, #15
 8000728:	d805      	bhi.n	8000736 <addLinMasterRow+0x202>
    	 master_frame_table_size ++;
 800072a:	4b06      	ldr	r3, [pc, #24]	; (8000744 <addLinMasterRow+0x210>)
 800072c:	781b      	ldrb	r3, [r3, #0]
 800072e:	3301      	adds	r3, #1
 8000730:	b2da      	uxtb	r2, r3
 8000732:	4b04      	ldr	r3, [pc, #16]	; (8000744 <addLinMasterRow+0x210>)
 8000734:	701a      	strb	r2, [r3, #0]

    return 1;
 8000736:	2301      	movs	r3, #1
}
 8000738:	4618      	mov	r0, r3
 800073a:	3720      	adds	r7, #32
 800073c:	46bd      	mov	sp, r7
 800073e:	bd80      	pop	{r7, pc}
 8000740:	20000264 	.word	0x20000264
 8000744:	2000020c 	.word	0x2000020c
 8000748:	20000008 	.word	0x20000008
 800074c:	200002f8 	.word	0x200002f8
 8000750:	200003b8 	.word	0x200003b8
 8000754:	51eb851f 	.word	0x51eb851f

08000758 <lin_slcan_reset>:
static l_u8 slcan_lin_slave_state_data_count;
static uint8_t slcan_lin_data_array[9];
static t_open_lin_data_layer_frame open_lin_data_layer_frame;
uint32_t slcan_lin_timeout_counter = 0;

void lin_slcan_reset(void){
 8000758:	b480      	push	{r7}
 800075a:	af00      	add	r7, sp, #0
	slcan_lin_slave_state = OPEN_LIN_SLAVE_IDLE;
 800075c:	4b06      	ldr	r3, [pc, #24]	; (8000778 <lin_slcan_reset+0x20>)
 800075e:	2200      	movs	r2, #0
 8000760:	701a      	strb	r2, [r3, #0]
	slcan_lin_slave_state_data_count = 0;
 8000762:	4b06      	ldr	r3, [pc, #24]	; (800077c <lin_slcan_reset+0x24>)
 8000764:	2200      	movs	r2, #0
 8000766:	701a      	strb	r2, [r3, #0]
	slcan_lin_timeout_counter = 0;
 8000768:	4b05      	ldr	r3, [pc, #20]	; (8000780 <lin_slcan_reset+0x28>)
 800076a:	2200      	movs	r2, #0
 800076c:	601a      	str	r2, [r3, #0]
//	open_lin_hw_reset();
}
 800076e:	bf00      	nop
 8000770:	46bd      	mov	sp, r7
 8000772:	f85d 7b04 	ldr.w	r7, [sp], #4
 8000776:	4770      	bx	lr
 8000778:	2000020d 	.word	0x2000020d
 800077c:	2000020e 	.word	0x2000020e
 8000780:	20000228 	.word	0x20000228

08000784 <lin_slcan_rx_handler>:

open_lin_frame_slot_t lin_slcan_slot;
void lin_slcan_rx_handler(t_open_lin_data_layer_frame *f)
{
 8000784:	b580      	push	{r7, lr}
 8000786:	b082      	sub	sp, #8
 8000788:	af00      	add	r7, sp, #0
 800078a:	6078      	str	r0, [r7, #4]
	lin_slcan_slot.pid = f->pid;
 800078c:	687b      	ldr	r3, [r7, #4]
 800078e:	781a      	ldrb	r2, [r3, #0]
 8000790:	4b09      	ldr	r3, [pc, #36]	; (80007b8 <lin_slcan_rx_handler+0x34>)
 8000792:	701a      	strb	r2, [r3, #0]
	lin_slcan_slot.data_ptr = f->data_ptr;
 8000794:	687b      	ldr	r3, [r7, #4]
 8000796:	685b      	ldr	r3, [r3, #4]
 8000798:	4a07      	ldr	r2, [pc, #28]	; (80007b8 <lin_slcan_rx_handler+0x34>)
 800079a:	6053      	str	r3, [r2, #4]
	lin_slcan_slot.frame_type = OPEN_LIN_FRAME_TYPE_RECEIVE;
 800079c:	4b06      	ldr	r3, [pc, #24]	; (80007b8 <lin_slcan_rx_handler+0x34>)
 800079e:	2201      	movs	r2, #1
 80007a0:	705a      	strb	r2, [r3, #1]
	lin_slcan_slot.data_length = f->lenght;
 80007a2:	687b      	ldr	r3, [r7, #4]
 80007a4:	785a      	ldrb	r2, [r3, #1]
 80007a6:	4b04      	ldr	r3, [pc, #16]	; (80007b8 <lin_slcan_rx_handler+0x34>)
 80007a8:	709a      	strb	r2, [r3, #2]
	slcanReciveCanFrame(&lin_slcan_slot);
 80007aa:	4803      	ldr	r0, [pc, #12]	; (80007b8 <lin_slcan_rx_handler+0x34>)
 80007ac:	f001 fae8 	bl	8001d80 <slcanReciveCanFrame>
}
 80007b0:	bf00      	nop
 80007b2:	3708      	adds	r7, #8
 80007b4:	46bd      	mov	sp, r7
 80007b6:	bd80      	pop	{r7, pc}
 80007b8:	20000438 	.word	0x20000438

080007bc <open_lin_on_rx_frame>:

void open_lin_on_rx_frame(open_lin_frame_slot_t *slot)
{
 80007bc:	b580      	push	{r7, lr}
 80007be:	b082      	sub	sp, #8
 80007c0:	af00      	add	r7, sp, #0
 80007c2:	6078      	str	r0, [r7, #4]
	slcanReciveCanFrame(slot);
 80007c4:	6878      	ldr	r0, [r7, #4]
 80007c6:	f001 fadb 	bl	8001d80 <slcanReciveCanFrame>
}
 80007ca:	bf00      	nop
 80007cc:	3708      	adds	r7, #8
 80007ce:	46bd      	mov	sp, r7
 80007d0:	bd80      	pop	{r7, pc}
	...

080007d4 <lin_slcan_rx_timeout_handler>:

void lin_slcan_rx_timeout_handler()
{
 80007d4:	b598      	push	{r3, r4, r7, lr}
 80007d6:	af00      	add	r7, sp, #0
	if (slcan_state == SLCAN_STATE_OPEN)
 80007d8:	4b17      	ldr	r3, [pc, #92]	; (8000838 <lin_slcan_rx_timeout_handler+0x64>)
 80007da:	781b      	ldrb	r3, [r3, #0]
 80007dc:	2b02      	cmp	r3, #2
 80007de:	d127      	bne.n	8000830 <lin_slcan_rx_timeout_handler+0x5c>
	{
		if (slcan_lin_slave_state_data_count == 0)
 80007e0:	4b16      	ldr	r3, [pc, #88]	; (800083c <lin_slcan_rx_timeout_handler+0x68>)
 80007e2:	781b      	ldrb	r3, [r3, #0]
 80007e4:	2b00      	cmp	r3, #0
 80007e6:	d106      	bne.n	80007f6 <lin_slcan_rx_timeout_handler+0x22>
		{
			/* header send no respone */
			open_lin_data_layer_frame.lenght = 0;
 80007e8:	4b15      	ldr	r3, [pc, #84]	; (8000840 <lin_slcan_rx_timeout_handler+0x6c>)
 80007ea:	2200      	movs	r2, #0
 80007ec:	705a      	strb	r2, [r3, #1]
			lin_slcan_rx_handler(&open_lin_data_layer_frame);
 80007ee:	4814      	ldr	r0, [pc, #80]	; (8000840 <lin_slcan_rx_timeout_handler+0x6c>)
 80007f0:	f7ff ffc8 	bl	8000784 <lin_slcan_rx_handler>
 80007f4:	e01c      	b.n	8000830 <lin_slcan_rx_timeout_handler+0x5c>
		} else
		{
			open_lin_data_layer_frame.lenght = slcan_lin_slave_state_data_count - 1;
 80007f6:	4b11      	ldr	r3, [pc, #68]	; (800083c <lin_slcan_rx_timeout_handler+0x68>)
 80007f8:	781b      	ldrb	r3, [r3, #0]
 80007fa:	3b01      	subs	r3, #1
 80007fc:	b2da      	uxtb	r2, r3
 80007fe:	4b10      	ldr	r3, [pc, #64]	; (8000840 <lin_slcan_rx_timeout_handler+0x6c>)
 8000800:	705a      	strb	r2, [r3, #1]
			/* checksum calculation */
			if (slcan_lin_data_array[open_lin_data_layer_frame.lenght] == open_lin_data_layer_checksum(open_lin_data_layer_frame.pid & OPEN_LIN_ID_MASK,
 8000802:	4b0f      	ldr	r3, [pc, #60]	; (8000840 <lin_slcan_rx_timeout_handler+0x6c>)
 8000804:	785b      	ldrb	r3, [r3, #1]
 8000806:	461a      	mov	r2, r3
 8000808:	4b0e      	ldr	r3, [pc, #56]	; (8000844 <lin_slcan_rx_timeout_handler+0x70>)
 800080a:	5c9c      	ldrb	r4, [r3, r2]
 800080c:	4b0c      	ldr	r3, [pc, #48]	; (8000840 <lin_slcan_rx_timeout_handler+0x6c>)
 800080e:	781b      	ldrb	r3, [r3, #0]
 8000810:	f003 033f 	and.w	r3, r3, #63	; 0x3f
 8000814:	b2d8      	uxtb	r0, r3
 8000816:	4b0a      	ldr	r3, [pc, #40]	; (8000840 <lin_slcan_rx_timeout_handler+0x6c>)
 8000818:	7859      	ldrb	r1, [r3, #1]
					open_lin_data_layer_frame.lenght, open_lin_data_layer_frame.data_ptr)) /* TODO remove from interrupt possible function */
 800081a:	4b09      	ldr	r3, [pc, #36]	; (8000840 <lin_slcan_rx_timeout_handler+0x6c>)
 800081c:	685b      	ldr	r3, [r3, #4]
			if (slcan_lin_data_array[open_lin_data_layer_frame.lenght] == open_lin_data_layer_checksum(open_lin_data_layer_frame.pid & OPEN_LIN_ID_MASK,
 800081e:	461a      	mov	r2, r3
 8000820:	f000 fa50 	bl	8000cc4 <open_lin_data_layer_checksum>
 8000824:	4603      	mov	r3, r0
 8000826:	429c      	cmp	r4, r3
 8000828:	d102      	bne.n	8000830 <lin_slcan_rx_timeout_handler+0x5c>
			{
				/* valid checksum */
				lin_slcan_rx_handler(&open_lin_data_layer_frame);
 800082a:	4805      	ldr	r0, [pc, #20]	; (8000840 <lin_slcan_rx_timeout_handler+0x6c>)
 800082c:	f7ff ffaa 	bl	8000784 <lin_slcan_rx_handler>
			}
		}
	}
	lin_slcan_reset();
 8000830:	f7ff ff92 	bl	8000758 <lin_slcan_reset>
}
 8000834:	bf00      	nop
 8000836:	bd98      	pop	{r3, r4, r7, pc}
 8000838:	20000264 	.word	0x20000264
 800083c:	2000020e 	.word	0x2000020e
 8000840:	2000021c 	.word	0x2000021c
 8000844:	20000210 	.word	0x20000210

08000848 <lin_slcan_skip_header_reception>:



void lin_slcan_skip_header_reception(uint8_t pid)
{
 8000848:	b580      	push	{r7, lr}
 800084a:	b082      	sub	sp, #8
 800084c:	af00      	add	r7, sp, #0
 800084e:	4603      	mov	r3, r0
 8000850:	71fb      	strb	r3, [r7, #7]
	open_lin_hw_reset();
 8000852:	f000 fac9 	bl	8000de8 <open_lin_hw_reset>
	lin_slcan_reset();
 8000856:	f7ff ff7f 	bl	8000758 <lin_slcan_reset>
	slcan_lin_slave_state = OPEN_LIN_SLAVE_DATA_RX;
 800085a:	4b09      	ldr	r3, [pc, #36]	; (8000880 <lin_slcan_skip_header_reception+0x38>)
 800085c:	2203      	movs	r2, #3
 800085e:	701a      	strb	r2, [r3, #0]
	open_lin_data_layer_frame.pid = pid;
 8000860:	4a08      	ldr	r2, [pc, #32]	; (8000884 <lin_slcan_skip_header_reception+0x3c>)
 8000862:	79fb      	ldrb	r3, [r7, #7]
 8000864:	7013      	strb	r3, [r2, #0]
	open_lin_data_layer_frame.data_ptr = slcan_lin_data_array;
 8000866:	4b07      	ldr	r3, [pc, #28]	; (8000884 <lin_slcan_skip_header_reception+0x3c>)
 8000868:	4a07      	ldr	r2, [pc, #28]	; (8000888 <lin_slcan_skip_header_reception+0x40>)
 800086a:	605a      	str	r2, [r3, #4]
	slcan_lin_timeout_counter = HAL_GetTick();
 800086c:	f001 fc66 	bl	800213c <HAL_GetTick>
 8000870:	4602      	mov	r2, r0
 8000872:	4b06      	ldr	r3, [pc, #24]	; (800088c <lin_slcan_skip_header_reception+0x44>)
 8000874:	601a      	str	r2, [r3, #0]
}
 8000876:	bf00      	nop
 8000878:	3708      	adds	r7, #8
 800087a:	46bd      	mov	sp, r7
 800087c:	bd80      	pop	{r7, pc}
 800087e:	bf00      	nop
 8000880:	2000020d 	.word	0x2000020d
 8000884:	2000021c 	.word	0x2000021c
 8000888:	20000210 	.word	0x20000210
 800088c:	20000228 	.word	0x20000228

08000890 <lin_slcan_rx>:

void lin_slcan_rx(l_u8 rx_byte)
{
 8000890:	b580      	push	{r7, lr}
 8000892:	b082      	sub	sp, #8
 8000894:	af00      	add	r7, sp, #0
 8000896:	4603      	mov	r3, r0
 8000898:	71fb      	strb	r3, [r7, #7]
	if (open_lin_hw_check_for_break() == l_true)
 800089a:	f000 fa7d 	bl	8000d98 <open_lin_hw_check_for_break>
 800089e:	4603      	mov	r3, r0
 80008a0:	2b00      	cmp	r3, #0
 80008a2:	d007      	beq.n	80008b4 <lin_slcan_rx+0x24>
	{
		lin_slcan_reset();
 80008a4:	f7ff ff58 	bl	8000758 <lin_slcan_reset>
		slcan_lin_slave_state = OPEN_LIN_SLAVE_PID_RX;
 80008a8:	4b39      	ldr	r3, [pc, #228]	; (8000990 <lin_slcan_rx+0x100>)
 80008aa:	2202      	movs	r2, #2
 80008ac:	701a      	strb	r2, [r3, #0]
		#ifdef OPEN_LIN_AUTO_BAUND
			open_lin_hw_set_auto_baud();
 80008ae:	f000 fa93 	bl	8000dd8 <open_lin_hw_set_auto_baud>
			default:
				lin_slcan_reset();
				break;
		}
	}
}
 80008b2:	e068      	b.n	8000986 <lin_slcan_rx+0xf6>
		switch (slcan_lin_slave_state){
 80008b4:	4b36      	ldr	r3, [pc, #216]	; (8000990 <lin_slcan_rx+0x100>)
 80008b6:	781b      	ldrb	r3, [r3, #0]
 80008b8:	2b02      	cmp	r3, #2
 80008ba:	d00d      	beq.n	80008d8 <lin_slcan_rx+0x48>
 80008bc:	2b03      	cmp	r3, #3
 80008be:	d02c      	beq.n	800091a <lin_slcan_rx+0x8a>
 80008c0:	2b01      	cmp	r3, #1
 80008c2:	d15c      	bne.n	800097e <lin_slcan_rx+0xee>
				if (rx_byte != OPEN_LIN_SYNCH_BYTE)
 80008c4:	79fb      	ldrb	r3, [r7, #7]
 80008c6:	2b55      	cmp	r3, #85	; 0x55
 80008c8:	d002      	beq.n	80008d0 <lin_slcan_rx+0x40>
					lin_slcan_reset();
 80008ca:	f7ff ff45 	bl	8000758 <lin_slcan_reset>
				break;
 80008ce:	e05a      	b.n	8000986 <lin_slcan_rx+0xf6>
					slcan_lin_slave_state = OPEN_LIN_SLAVE_PID_RX;
 80008d0:	4b2f      	ldr	r3, [pc, #188]	; (8000990 <lin_slcan_rx+0x100>)
 80008d2:	2202      	movs	r2, #2
 80008d4:	701a      	strb	r2, [r3, #0]
				break;
 80008d6:	e056      	b.n	8000986 <lin_slcan_rx+0xf6>
				if (rx_byte == 0) break;
 80008d8:	79fb      	ldrb	r3, [r7, #7]
 80008da:	2b00      	cmp	r3, #0
 80008dc:	d052      	beq.n	8000984 <lin_slcan_rx+0xf4>
				if (open_lin_data_layer_parity(rx_byte) == rx_byte)
 80008de:	79fb      	ldrb	r3, [r7, #7]
 80008e0:	4618      	mov	r0, r3
 80008e2:	f000 f9a6 	bl	8000c32 <open_lin_data_layer_parity>
 80008e6:	4603      	mov	r3, r0
 80008e8:	461a      	mov	r2, r3
 80008ea:	79fb      	ldrb	r3, [r7, #7]
 80008ec:	4293      	cmp	r3, r2
 80008ee:	d109      	bne.n	8000904 <lin_slcan_rx+0x74>
					open_lin_data_layer_frame.pid = (open_lin_pid_t)(rx_byte & OPEN_LIN_ID_MASK);
 80008f0:	79fb      	ldrb	r3, [r7, #7]
 80008f2:	f003 033f 	and.w	r3, r3, #63	; 0x3f
 80008f6:	b2da      	uxtb	r2, r3
 80008f8:	4b26      	ldr	r3, [pc, #152]	; (8000994 <lin_slcan_rx+0x104>)
 80008fa:	701a      	strb	r2, [r3, #0]
					open_lin_data_layer_frame.data_ptr = slcan_lin_data_array;
 80008fc:	4b25      	ldr	r3, [pc, #148]	; (8000994 <lin_slcan_rx+0x104>)
 80008fe:	4a26      	ldr	r2, [pc, #152]	; (8000998 <lin_slcan_rx+0x108>)
 8000900:	605a      	str	r2, [r3, #4]
 8000902:	e001      	b.n	8000908 <lin_slcan_rx+0x78>
					lin_slcan_reset();
 8000904:	f7ff ff28 	bl	8000758 <lin_slcan_reset>
				slcan_lin_slave_state = OPEN_LIN_SLAVE_DATA_RX;
 8000908:	4b21      	ldr	r3, [pc, #132]	; (8000990 <lin_slcan_rx+0x100>)
 800090a:	2203      	movs	r2, #3
 800090c:	701a      	strb	r2, [r3, #0]
				slcan_lin_timeout_counter = HAL_GetTick();
 800090e:	f001 fc15 	bl	800213c <HAL_GetTick>
 8000912:	4602      	mov	r2, r0
 8000914:	4b21      	ldr	r3, [pc, #132]	; (800099c <lin_slcan_rx+0x10c>)
 8000916:	601a      	str	r2, [r3, #0]
				break;
 8000918:	e035      	b.n	8000986 <lin_slcan_rx+0xf6>
				slcan_lin_timeout_counter = HAL_GetTick();
 800091a:	f001 fc0f 	bl	800213c <HAL_GetTick>
 800091e:	4602      	mov	r2, r0
 8000920:	4b1e      	ldr	r3, [pc, #120]	; (800099c <lin_slcan_rx+0x10c>)
 8000922:	601a      	str	r2, [r3, #0]
				if (slcan_lin_slave_state_data_count < 8)
 8000924:	4b1e      	ldr	r3, [pc, #120]	; (80009a0 <lin_slcan_rx+0x110>)
 8000926:	781b      	ldrb	r3, [r3, #0]
 8000928:	2b07      	cmp	r3, #7
 800092a:	d80d      	bhi.n	8000948 <lin_slcan_rx+0xb8>
					open_lin_data_layer_frame.data_ptr[slcan_lin_slave_state_data_count] = rx_byte;
 800092c:	4b19      	ldr	r3, [pc, #100]	; (8000994 <lin_slcan_rx+0x104>)
 800092e:	685b      	ldr	r3, [r3, #4]
 8000930:	4a1b      	ldr	r2, [pc, #108]	; (80009a0 <lin_slcan_rx+0x110>)
 8000932:	7812      	ldrb	r2, [r2, #0]
 8000934:	4413      	add	r3, r2
 8000936:	79fa      	ldrb	r2, [r7, #7]
 8000938:	701a      	strb	r2, [r3, #0]
					slcan_lin_slave_state_data_count ++;
 800093a:	4b19      	ldr	r3, [pc, #100]	; (80009a0 <lin_slcan_rx+0x110>)
 800093c:	781b      	ldrb	r3, [r3, #0]
 800093e:	3301      	adds	r3, #1
 8000940:	b2da      	uxtb	r2, r3
 8000942:	4b17      	ldr	r3, [pc, #92]	; (80009a0 <lin_slcan_rx+0x110>)
 8000944:	701a      	strb	r2, [r3, #0]
				break;
 8000946:	e01e      	b.n	8000986 <lin_slcan_rx+0xf6>
					open_lin_data_layer_frame.lenght = slcan_lin_slave_state_data_count;
 8000948:	4b15      	ldr	r3, [pc, #84]	; (80009a0 <lin_slcan_rx+0x110>)
 800094a:	781a      	ldrb	r2, [r3, #0]
 800094c:	4b11      	ldr	r3, [pc, #68]	; (8000994 <lin_slcan_rx+0x104>)
 800094e:	705a      	strb	r2, [r3, #1]
					if (rx_byte == open_lin_data_layer_checksum(open_lin_data_layer_frame.pid & OPEN_LIN_ID_MASK,
 8000950:	4b10      	ldr	r3, [pc, #64]	; (8000994 <lin_slcan_rx+0x104>)
 8000952:	781b      	ldrb	r3, [r3, #0]
 8000954:	f003 033f 	and.w	r3, r3, #63	; 0x3f
 8000958:	b2d8      	uxtb	r0, r3
 800095a:	4b0e      	ldr	r3, [pc, #56]	; (8000994 <lin_slcan_rx+0x104>)
 800095c:	7859      	ldrb	r1, [r3, #1]
							open_lin_data_layer_frame.lenght, open_lin_data_layer_frame.data_ptr)) /* TODO remove from interrupt possible function */
 800095e:	4b0d      	ldr	r3, [pc, #52]	; (8000994 <lin_slcan_rx+0x104>)
 8000960:	685b      	ldr	r3, [r3, #4]
					if (rx_byte == open_lin_data_layer_checksum(open_lin_data_layer_frame.pid & OPEN_LIN_ID_MASK,
 8000962:	461a      	mov	r2, r3
 8000964:	f000 f9ae 	bl	8000cc4 <open_lin_data_layer_checksum>
 8000968:	4603      	mov	r3, r0
 800096a:	461a      	mov	r2, r3
 800096c:	79fb      	ldrb	r3, [r7, #7]
 800096e:	4293      	cmp	r3, r2
 8000970:	d102      	bne.n	8000978 <lin_slcan_rx+0xe8>
						lin_slcan_rx_handler(&open_lin_data_layer_frame);
 8000972:	4808      	ldr	r0, [pc, #32]	; (8000994 <lin_slcan_rx+0x104>)
 8000974:	f7ff ff06 	bl	8000784 <lin_slcan_rx_handler>
					lin_slcan_reset();
 8000978:	f7ff feee 	bl	8000758 <lin_slcan_reset>
				break;
 800097c:	e003      	b.n	8000986 <lin_slcan_rx+0xf6>
				lin_slcan_reset();
 800097e:	f7ff feeb 	bl	8000758 <lin_slcan_reset>
				break;
 8000982:	e000      	b.n	8000986 <lin_slcan_rx+0xf6>
				if (rx_byte == 0) break;
 8000984:	bf00      	nop
}
 8000986:	bf00      	nop
 8000988:	3708      	adds	r7, #8
 800098a:	46bd      	mov	sp, r7
 800098c:	bd80      	pop	{r7, pc}
 800098e:	bf00      	nop
 8000990:	2000020d 	.word	0x2000020d
 8000994:	2000021c 	.word	0x2000021c
 8000998:	20000210 	.word	0x20000210
 800099c:	20000228 	.word	0x20000228
 80009a0:	2000020e 	.word	0x2000020e

080009a4 <__NVIC_EnableIRQ>:
  \details Enables a device specific interrupt in the NVIC interrupt controller.
  \param [in]      IRQn  Device specific interrupt number.
  \note    IRQn must not be negative.
 */
__STATIC_INLINE void __NVIC_EnableIRQ(IRQn_Type IRQn)
{
 80009a4:	b480      	push	{r7}
 80009a6:	b083      	sub	sp, #12
 80009a8:	af00      	add	r7, sp, #0
 80009aa:	4603      	mov	r3, r0
 80009ac:	71fb      	strb	r3, [r7, #7]
  if ((int32_t)(IRQn) >= 0)
 80009ae:	f997 3007 	ldrsb.w	r3, [r7, #7]
 80009b2:	2b00      	cmp	r3, #0
 80009b4:	db0b      	blt.n	80009ce <__NVIC_EnableIRQ+0x2a>
  {
    NVIC->ISER[(((uint32_t)IRQn) >> 5UL)] = (uint32_t)(1UL << (((uint32_t)IRQn) & 0x1FUL));
 80009b6:	79fb      	ldrb	r3, [r7, #7]
 80009b8:	f003 021f 	and.w	r2, r3, #31
 80009bc:	4907      	ldr	r1, [pc, #28]	; (80009dc <__NVIC_EnableIRQ+0x38>)
 80009be:	f997 3007 	ldrsb.w	r3, [r7, #7]
 80009c2:	095b      	lsrs	r3, r3, #5
 80009c4:	2001      	movs	r0, #1
 80009c6:	fa00 f202 	lsl.w	r2, r0, r2
 80009ca:	f841 2023 	str.w	r2, [r1, r3, lsl #2]
  }
}
 80009ce:	bf00      	nop
 80009d0:	370c      	adds	r7, #12
 80009d2:	46bd      	mov	sp, r7
 80009d4:	f85d 7b04 	ldr.w	r7, [sp], #4
 80009d8:	4770      	bx	lr
 80009da:	bf00      	nop
 80009dc:	e000e100 	.word	0xe000e100

080009e0 <main>:
/**
  * @brief  The application entry point.
  * @retval int
  */
int main(void)
{
 80009e0:	b580      	push	{r7, lr}
 80009e2:	af00      	add	r7, sp, #0
  /* USER CODE BEGIN 1 */
  serialNumber = uid[0] ^ uid[1] ^ uid[2];
 80009e4:	4b11      	ldr	r3, [pc, #68]	; (8000a2c <main+0x4c>)
 80009e6:	681b      	ldr	r3, [r3, #0]
 80009e8:	681a      	ldr	r2, [r3, #0]
 80009ea:	4b10      	ldr	r3, [pc, #64]	; (8000a2c <main+0x4c>)
 80009ec:	681b      	ldr	r3, [r3, #0]
 80009ee:	3304      	adds	r3, #4
 80009f0:	681b      	ldr	r3, [r3, #0]
 80009f2:	405a      	eors	r2, r3
 80009f4:	4b0d      	ldr	r3, [pc, #52]	; (8000a2c <main+0x4c>)
 80009f6:	681b      	ldr	r3, [r3, #0]
 80009f8:	3308      	adds	r3, #8
 80009fa:	681b      	ldr	r3, [r3, #0]
 80009fc:	4053      	eors	r3, r2
 80009fe:	4a0c      	ldr	r2, [pc, #48]	; (8000a30 <main+0x50>)
 8000a00:	6013      	str	r3, [r2, #0]
  /* USER CODE END 1 */

  /* MCU Configuration--------------------------------------------------------*/

  /* Reset of all peripherals, Initializes the Flash interface and the Systick. */
  HAL_Init();
 8000a02:	f001 fb35 	bl	8002070 <HAL_Init>
  /* USER CODE BEGIN Init */

  /* USER CODE END Init */

  /* Configure the system clock */
  SystemClock_Config();
 8000a06:	f000 f819 	bl	8000a3c <SystemClock_Config>
  /* USER CODE BEGIN SysInit */

  /* USER CODE END SysInit */

  /* Initialize all configured peripherals */
  MX_GPIO_Init();
 8000a0a:	f000 f8ad 	bl	8000b68 <MX_GPIO_Init>
  MX_USART1_UART_Init();
 8000a0e:	f000 f87f 	bl	8000b10 <MX_USART1_UART_Init>
  MX_USB_DEVICE_Init();
 8000a12:	f007 fb05 	bl	8008020 <MX_USB_DEVICE_Init>
  /* USER CODE BEGIN 2 */
  HAL_UART_Receive_IT(&huart1, &Uart2RxFifo, UART_RX_FIFO_SIZE);
 8000a16:	2201      	movs	r2, #1
 8000a18:	4906      	ldr	r1, [pc, #24]	; (8000a34 <main+0x54>)
 8000a1a:	4807      	ldr	r0, [pc, #28]	; (8000a38 <main+0x58>)
 8000a1c:	f003 fd6f 	bl	80044fe <HAL_UART_Receive_IT>
  //  HAL_NVIC_SetPriority(USART1_IRQn, 2, 0);
  NVIC_EnableIRQ(USART1_IRQn);
 8000a20:	2025      	movs	r0, #37	; 0x25
 8000a22:	f7ff ffbf 	bl	80009a4 <__NVIC_EnableIRQ>

  /* Infinite loop */
  /* USER CODE BEGIN WHILE */
  while (1)
  {
  	slCanCheckCommand();
 8000a26:	f000 ff51 	bl	80018cc <slCanCheckCommand>
 8000a2a:	e7fc      	b.n	8000a26 <main+0x46>
 8000a2c:	20000000 	.word	0x20000000
 8000a30:	2000022c 	.word	0x2000022c
 8000a34:	20000440 	.word	0x20000440
 8000a38:	20000444 	.word	0x20000444

08000a3c <SystemClock_Config>:
/**
  * @brief System Clock Configuration
  * @retval None
  */
void SystemClock_Config(void)
{
 8000a3c:	b580      	push	{r7, lr}
 8000a3e:	b094      	sub	sp, #80	; 0x50
 8000a40:	af00      	add	r7, sp, #0
  RCC_OscInitTypeDef RCC_OscInitStruct = {0};
 8000a42:	f107 0320 	add.w	r3, r7, #32
 8000a46:	2230      	movs	r2, #48	; 0x30
 8000a48:	2100      	movs	r1, #0
 8000a4a:	4618      	mov	r0, r3
 8000a4c:	f008 f83f 	bl	8008ace <memset>
  RCC_ClkInitTypeDef RCC_ClkInitStruct = {0};
 8000a50:	f107 030c 	add.w	r3, r7, #12
 8000a54:	2200      	movs	r2, #0
 8000a56:	601a      	str	r2, [r3, #0]
 8000a58:	605a      	str	r2, [r3, #4]
 8000a5a:	609a      	str	r2, [r3, #8]
 8000a5c:	60da      	str	r2, [r3, #12]
 8000a5e:	611a      	str	r2, [r3, #16]

  /** Configure the main internal regulator output voltage 
  */
  __HAL_RCC_PWR_CLK_ENABLE();
 8000a60:	2300      	movs	r3, #0
 8000a62:	60bb      	str	r3, [r7, #8]
 8000a64:	4b28      	ldr	r3, [pc, #160]	; (8000b08 <SystemClock_Config+0xcc>)
 8000a66:	6c1b      	ldr	r3, [r3, #64]	; 0x40
 8000a68:	4a27      	ldr	r2, [pc, #156]	; (8000b08 <SystemClock_Config+0xcc>)
 8000a6a:	f043 5380 	orr.w	r3, r3, #268435456	; 0x10000000
 8000a6e:	6413      	str	r3, [r2, #64]	; 0x40
 8000a70:	4b25      	ldr	r3, [pc, #148]	; (8000b08 <SystemClock_Config+0xcc>)
 8000a72:	6c1b      	ldr	r3, [r3, #64]	; 0x40
 8000a74:	f003 5380 	and.w	r3, r3, #268435456	; 0x10000000
 8000a78:	60bb      	str	r3, [r7, #8]
 8000a7a:	68bb      	ldr	r3, [r7, #8]
  __HAL_PWR_VOLTAGESCALING_CONFIG(PWR_REGULATOR_VOLTAGE_SCALE1);
 8000a7c:	2300      	movs	r3, #0
 8000a7e:	607b      	str	r3, [r7, #4]
 8000a80:	4b22      	ldr	r3, [pc, #136]	; (8000b0c <SystemClock_Config+0xd0>)
 8000a82:	681b      	ldr	r3, [r3, #0]
 8000a84:	4a21      	ldr	r2, [pc, #132]	; (8000b0c <SystemClock_Config+0xd0>)
 8000a86:	f443 4380 	orr.w	r3, r3, #16384	; 0x4000
 8000a8a:	6013      	str	r3, [r2, #0]
 8000a8c:	4b1f      	ldr	r3, [pc, #124]	; (8000b0c <SystemClock_Config+0xd0>)
 8000a8e:	681b      	ldr	r3, [r3, #0]
 8000a90:	f403 4380 	and.w	r3, r3, #16384	; 0x4000
 8000a94:	607b      	str	r3, [r7, #4]
 8000a96:	687b      	ldr	r3, [r7, #4]
  /** Initializes the CPU, AHB and APB busses clocks 
  */
  RCC_OscInitStruct.OscillatorType = RCC_OSCILLATORTYPE_HSE;
 8000a98:	2301      	movs	r3, #1
 8000a9a:	623b      	str	r3, [r7, #32]
  RCC_OscInitStruct.HSEState = RCC_HSE_ON;
 8000a9c:	f44f 3380 	mov.w	r3, #65536	; 0x10000
 8000aa0:	627b      	str	r3, [r7, #36]	; 0x24
  RCC_OscInitStruct.PLL.PLLState = RCC_PLL_ON;
 8000aa2:	2302      	movs	r3, #2
 8000aa4:	63bb      	str	r3, [r7, #56]	; 0x38
  RCC_OscInitStruct.PLL.PLLSource = RCC_PLLSOURCE_HSE;
 8000aa6:	f44f 0380 	mov.w	r3, #4194304	; 0x400000
 8000aaa:	63fb      	str	r3, [r7, #60]	; 0x3c
  RCC_OscInitStruct.PLL.PLLM = 4;
 8000aac:	2304      	movs	r3, #4
 8000aae:	643b      	str	r3, [r7, #64]	; 0x40
  RCC_OscInitStruct.PLL.PLLN = 168;
 8000ab0:	23a8      	movs	r3, #168	; 0xa8
 8000ab2:	647b      	str	r3, [r7, #68]	; 0x44
  RCC_OscInitStruct.PLL.PLLP = RCC_PLLP_DIV2;
 8000ab4:	2302      	movs	r3, #2
 8000ab6:	64bb      	str	r3, [r7, #72]	; 0x48
  RCC_OscInitStruct.PLL.PLLQ = 7;
 8000ab8:	2307      	movs	r3, #7
 8000aba:	64fb      	str	r3, [r7, #76]	; 0x4c
  if (HAL_RCC_OscConfig(&RCC_OscInitStruct) != HAL_OK)
 8000abc:	f107 0320 	add.w	r3, r7, #32
 8000ac0:	4618      	mov	r0, r3
 8000ac2:	f002 ffbb 	bl	8003a3c <HAL_RCC_OscConfig>
 8000ac6:	4603      	mov	r3, r0
 8000ac8:	2b00      	cmp	r3, #0
 8000aca:	d001      	beq.n	8000ad0 <SystemClock_Config+0x94>
  {
    Error_Handler();
 8000acc:	f000 f8ae 	bl	8000c2c <Error_Handler>
  }
  /** Initializes the CPU, AHB and APB busses clocks 
  */
  RCC_ClkInitStruct.ClockType = RCC_CLOCKTYPE_HCLK|RCC_CLOCKTYPE_SYSCLK
 8000ad0:	230f      	movs	r3, #15
 8000ad2:	60fb      	str	r3, [r7, #12]
                              |RCC_CLOCKTYPE_PCLK1|RCC_CLOCKTYPE_PCLK2;
  RCC_ClkInitStruct.SYSCLKSource = RCC_SYSCLKSOURCE_PLLCLK;
 8000ad4:	2302      	movs	r3, #2
 8000ad6:	613b      	str	r3, [r7, #16]
  RCC_ClkInitStruct.AHBCLKDivider = RCC_SYSCLK_DIV1;
 8000ad8:	2300      	movs	r3, #0
 8000ada:	617b      	str	r3, [r7, #20]
  RCC_ClkInitStruct.APB1CLKDivider = RCC_HCLK_DIV4;
 8000adc:	f44f 53a0 	mov.w	r3, #5120	; 0x1400
 8000ae0:	61bb      	str	r3, [r7, #24]
  RCC_ClkInitStruct.APB2CLKDivider = RCC_HCLK_DIV4;
 8000ae2:	f44f 53a0 	mov.w	r3, #5120	; 0x1400
 8000ae6:	61fb      	str	r3, [r7, #28]

  if (HAL_RCC_ClockConfig(&RCC_ClkInitStruct, FLASH_LATENCY_5) != HAL_OK)
 8000ae8:	f107 030c 	add.w	r3, r7, #12
 8000aec:	2105      	movs	r1, #5
 8000aee:	4618      	mov	r0, r3
 8000af0:	f003 fa14 	bl	8003f1c <HAL_RCC_ClockConfig>
 8000af4:	4603      	mov	r3, r0
 8000af6:	2b00      	cmp	r3, #0
 8000af8:	d001      	beq.n	8000afe <SystemClock_Config+0xc2>
  {
    Error_Handler();
 8000afa:	f000 f897 	bl	8000c2c <Error_Handler>
  }
}
 8000afe:	bf00      	nop
 8000b00:	3750      	adds	r7, #80	; 0x50
 8000b02:	46bd      	mov	sp, r7
 8000b04:	bd80      	pop	{r7, pc}
 8000b06:	bf00      	nop
 8000b08:	40023800 	.word	0x40023800
 8000b0c:	40007000 	.word	0x40007000

08000b10 <MX_USART1_UART_Init>:
  * @brief USART1 Initialization Function
  * @param None
  * @retval None
  */
void MX_USART1_UART_Init(void)
{
 8000b10:	b580      	push	{r7, lr}
 8000b12:	af00      	add	r7, sp, #0
  /* USER CODE END USART1_Init 0 */

  /* USER CODE BEGIN USART1_Init 1 */

  /* USER CODE END USART1_Init 1 */
  huart1.Instance = USART1;
 8000b14:	4b11      	ldr	r3, [pc, #68]	; (8000b5c <MX_USART1_UART_Init+0x4c>)
 8000b16:	4a12      	ldr	r2, [pc, #72]	; (8000b60 <MX_USART1_UART_Init+0x50>)
 8000b18:	601a      	str	r2, [r3, #0]
  huart1.Init.BaudRate = lin_baund_rate;
 8000b1a:	4b12      	ldr	r3, [pc, #72]	; (8000b64 <MX_USART1_UART_Init+0x54>)
 8000b1c:	681b      	ldr	r3, [r3, #0]
 8000b1e:	4a0f      	ldr	r2, [pc, #60]	; (8000b5c <MX_USART1_UART_Init+0x4c>)
 8000b20:	6053      	str	r3, [r2, #4]
  huart1.Init.WordLength = UART_WORDLENGTH_8B;
 8000b22:	4b0e      	ldr	r3, [pc, #56]	; (8000b5c <MX_USART1_UART_Init+0x4c>)
 8000b24:	2200      	movs	r2, #0
 8000b26:	609a      	str	r2, [r3, #8]
  huart1.Init.StopBits = UART_STOPBITS_1;
 8000b28:	4b0c      	ldr	r3, [pc, #48]	; (8000b5c <MX_USART1_UART_Init+0x4c>)
 8000b2a:	2200      	movs	r2, #0
 8000b2c:	60da      	str	r2, [r3, #12]
  huart1.Init.Parity = UART_PARITY_NONE;
 8000b2e:	4b0b      	ldr	r3, [pc, #44]	; (8000b5c <MX_USART1_UART_Init+0x4c>)
 8000b30:	2200      	movs	r2, #0
 8000b32:	611a      	str	r2, [r3, #16]
  huart1.Init.Mode = UART_MODE_TX_RX;
 8000b34:	4b09      	ldr	r3, [pc, #36]	; (8000b5c <MX_USART1_UART_Init+0x4c>)
 8000b36:	220c      	movs	r2, #12
 8000b38:	615a      	str	r2, [r3, #20]
  huart1.Init.HwFlowCtl = UART_HWCONTROL_NONE;
 8000b3a:	4b08      	ldr	r3, [pc, #32]	; (8000b5c <MX_USART1_UART_Init+0x4c>)
 8000b3c:	2200      	movs	r2, #0
 8000b3e:	619a      	str	r2, [r3, #24]
  huart1.Init.OverSampling = UART_OVERSAMPLING_16;
 8000b40:	4b06      	ldr	r3, [pc, #24]	; (8000b5c <MX_USART1_UART_Init+0x4c>)
 8000b42:	2200      	movs	r2, #0
 8000b44:	61da      	str	r2, [r3, #28]
  if (HAL_LIN_Init(&huart1, UART_LINBREAKDETECTLENGTH_10B) != HAL_OK)
 8000b46:	2100      	movs	r1, #0
 8000b48:	4804      	ldr	r0, [pc, #16]	; (8000b5c <MX_USART1_UART_Init+0x4c>)
 8000b4a:	f003 fbd9 	bl	8004300 <HAL_LIN_Init>
 8000b4e:	4603      	mov	r3, r0
 8000b50:	2b00      	cmp	r3, #0
 8000b52:	d001      	beq.n	8000b58 <MX_USART1_UART_Init+0x48>
  {
    Error_Handler();
 8000b54:	f000 f86a 	bl	8000c2c <Error_Handler>
  }
  /* USER CODE BEGIN USART1_Init 2 */

  /* USER CODE END USART1_Init 2 */

}
 8000b58:	bf00      	nop
 8000b5a:	bd80      	pop	{r7, pc}
 8000b5c:	20000444 	.word	0x20000444
 8000b60:	40011000 	.word	0x40011000
 8000b64:	20000004 	.word	0x20000004

08000b68 <MX_GPIO_Init>:
  * @brief GPIO Initialization Function
  * @param None
  * @retval None
  */
static void MX_GPIO_Init(void)
{
 8000b68:	b480      	push	{r7}
 8000b6a:	b083      	sub	sp, #12
 8000b6c:	af00      	add	r7, sp, #0

  /* GPIO Ports Clock Enable */
  __HAL_RCC_GPIOH_CLK_ENABLE();
 8000b6e:	2300      	movs	r3, #0
 8000b70:	607b      	str	r3, [r7, #4]
 8000b72:	4b10      	ldr	r3, [pc, #64]	; (8000bb4 <MX_GPIO_Init+0x4c>)
 8000b74:	6b1b      	ldr	r3, [r3, #48]	; 0x30
 8000b76:	4a0f      	ldr	r2, [pc, #60]	; (8000bb4 <MX_GPIO_Init+0x4c>)
 8000b78:	f043 0380 	orr.w	r3, r3, #128	; 0x80
 8000b7c:	6313      	str	r3, [r2, #48]	; 0x30
 8000b7e:	4b0d      	ldr	r3, [pc, #52]	; (8000bb4 <MX_GPIO_Init+0x4c>)
 8000b80:	6b1b      	ldr	r3, [r3, #48]	; 0x30
 8000b82:	f003 0380 	and.w	r3, r3, #128	; 0x80
 8000b86:	607b      	str	r3, [r7, #4]
 8000b88:	687b      	ldr	r3, [r7, #4]
  __HAL_RCC_GPIOA_CLK_ENABLE();
 8000b8a:	2300      	movs	r3, #0
 8000b8c:	603b      	str	r3, [r7, #0]
 8000b8e:	4b09      	ldr	r3, [pc, #36]	; (8000bb4 <MX_GPIO_Init+0x4c>)
 8000b90:	6b1b      	ldr	r3, [r3, #48]	; 0x30
 8000b92:	4a08      	ldr	r2, [pc, #32]	; (8000bb4 <MX_GPIO_Init+0x4c>)
 8000b94:	f043 0301 	orr.w	r3, r3, #1
 8000b98:	6313      	str	r3, [r2, #48]	; 0x30
 8000b9a:	4b06      	ldr	r3, [pc, #24]	; (8000bb4 <MX_GPIO_Init+0x4c>)
 8000b9c:	6b1b      	ldr	r3, [r3, #48]	; 0x30
 8000b9e:	f003 0301 	and.w	r3, r3, #1
 8000ba2:	603b      	str	r3, [r7, #0]
 8000ba4:	683b      	ldr	r3, [r7, #0]

}
 8000ba6:	bf00      	nop
 8000ba8:	370c      	adds	r7, #12
 8000baa:	46bd      	mov	sp, r7
 8000bac:	f85d 7b04 	ldr.w	r7, [sp], #4
 8000bb0:	4770      	bx	lr
 8000bb2:	bf00      	nop
 8000bb4:	40023800 	.word	0x40023800

08000bb8 <HAL_UART_RxCpltCallback>:

/* USER CODE BEGIN 4 */
void HAL_UART_RxCpltCallback(UART_HandleTypeDef *huart){
 8000bb8:	b580      	push	{r7, lr}
 8000bba:	b084      	sub	sp, #16
 8000bbc:	af00      	add	r7, sp, #0
 8000bbe:	6078      	str	r0, [r7, #4]
	extern LinType_t lin_type;
	uint8_t rbyte = Uart2RxFifo;
 8000bc0:	4b12      	ldr	r3, [pc, #72]	; (8000c0c <HAL_UART_RxCpltCallback+0x54>)
 8000bc2:	781b      	ldrb	r3, [r3, #0]
 8000bc4:	73fb      	strb	r3, [r7, #15]
	if (slcan_state == SLCAN_STATE_OPEN)
 8000bc6:	4b12      	ldr	r3, [pc, #72]	; (8000c10 <HAL_UART_RxCpltCallback+0x58>)
 8000bc8:	781b      	ldrb	r3, [r3, #0]
 8000bca:	2b02      	cmp	r3, #2
 8000bcc:	d114      	bne.n	8000bf8 <HAL_UART_RxCpltCallback+0x40>
	{
		switch (lin_type)
 8000bce:	4b11      	ldr	r3, [pc, #68]	; (8000c14 <HAL_UART_RxCpltCallback+0x5c>)
 8000bd0:	781b      	ldrb	r3, [r3, #0]
 8000bd2:	2b00      	cmp	r3, #0
 8000bd4:	d002      	beq.n	8000bdc <HAL_UART_RxCpltCallback+0x24>
 8000bd6:	2b02      	cmp	r3, #2
 8000bd8:	d005      	beq.n	8000be6 <HAL_UART_RxCpltCallback+0x2e>
 8000bda:	e008      	b.n	8000bee <HAL_UART_RxCpltCallback+0x36>
		{
		case LIN_MASTER:
			open_lin_master_dl_rx(rbyte);
 8000bdc:	7bfb      	ldrb	r3, [r7, #15]
 8000bde:	4618      	mov	r0, r3
 8000be0:	f000 fa76 	bl	80010d0 <open_lin_master_dl_rx>
			break;
 8000be4:	e009      	b.n	8000bfa <HAL_UART_RxCpltCallback+0x42>
		case LIN_SLAVE:
			open_lin_slave_rx_header(rbyte);
 8000be6:	7bfb      	ldrb	r3, [r7, #15]
 8000be8:	4618      	mov	r0, r3
 8000bea:	f000 fbfb 	bl	80013e4 <open_lin_slave_rx_header>
		default: /* Monitor */
			lin_slcan_rx(rbyte);
 8000bee:	7bfb      	ldrb	r3, [r7, #15]
 8000bf0:	4618      	mov	r0, r3
 8000bf2:	f7ff fe4d 	bl	8000890 <lin_slcan_rx>
			break;
 8000bf6:	e000      	b.n	8000bfa <HAL_UART_RxCpltCallback+0x42>
		}
	}
 8000bf8:	bf00      	nop
	HAL_UART_Receive_IT(huart, &Uart2RxFifo, 1);
 8000bfa:	2201      	movs	r2, #1
 8000bfc:	4903      	ldr	r1, [pc, #12]	; (8000c0c <HAL_UART_RxCpltCallback+0x54>)
 8000bfe:	6878      	ldr	r0, [r7, #4]
 8000c00:	f003 fc7d 	bl	80044fe <HAL_UART_Receive_IT>
}
 8000c04:	bf00      	nop
 8000c06:	3710      	adds	r7, #16
 8000c08:	46bd      	mov	sp, r7
 8000c0a:	bd80      	pop	{r7, pc}
 8000c0c:	20000440 	.word	0x20000440
 8000c10:	20000264 	.word	0x20000264
 8000c14:	20000008 	.word	0x20000008

08000c18 <HAL_UART_ErrorCallback>:

void HAL_UART_ErrorCallback(UART_HandleTypeDef *huart)
{
 8000c18:	b480      	push	{r7}
 8000c1a:	b083      	sub	sp, #12
 8000c1c:	af00      	add	r7, sp, #0
 8000c1e:	6078      	str	r0, [r7, #4]

}
 8000c20:	bf00      	nop
 8000c22:	370c      	adds	r7, #12
 8000c24:	46bd      	mov	sp, r7
 8000c26:	f85d 7b04 	ldr.w	r7, [sp], #4
 8000c2a:	4770      	bx	lr

08000c2c <Error_Handler>:
/**
  * @brief  This function is executed in case of error occurrence.
  * @retval None
  */
void Error_Handler(void)
{
 8000c2c:	b480      	push	{r7}
 8000c2e:	af00      	add	r7, sp, #0
  /* USER CODE BEGIN Error_Handler_Debug */
  /* User can add his own implementation to report the HAL error return state */
  while(1)
 8000c30:	e7fe      	b.n	8000c30 <Error_Handler+0x4>

08000c32 <open_lin_data_layer_parity>:

#include "open_lin_data_layer.h"
#include "open_lin_types.h"
#include "open_lin_hw.h"

open_lin_pid_t open_lin_data_layer_parity(open_lin_pid_t pid) {
 8000c32:	b480      	push	{r7}
 8000c34:	b085      	sub	sp, #20
 8000c36:	af00      	add	r7, sp, #0
 8000c38:	4603      	mov	r3, r0
 8000c3a:	71fb      	strb	r3, [r7, #7]
	open_lin_pid_t result = 0;
 8000c3c:	2300      	movs	r3, #0
 8000c3e:	73fb      	strb	r3, [r7, #15]
	result = (open_lin_pid_t)(OPEN_LIN_GET_PID_BIT(pid,0) ^ OPEN_LIN_GET_PID_BIT(pid,1) ^
 8000c40:	79fb      	ldrb	r3, [r7, #7]
 8000c42:	085b      	lsrs	r3, r3, #1
 8000c44:	b2da      	uxtb	r2, r3
 8000c46:	79fb      	ldrb	r3, [r7, #7]
 8000c48:	4053      	eors	r3, r2
 8000c4a:	b2da      	uxtb	r2, r3
 8000c4c:	79fb      	ldrb	r3, [r7, #7]
 8000c4e:	089b      	lsrs	r3, r3, #2
 8000c50:	b2db      	uxtb	r3, r3
 8000c52:	4053      	eors	r3, r2
 8000c54:	b2da      	uxtb	r2, r3
			 OPEN_LIN_GET_PID_BIT(pid,2) ^ OPEN_LIN_GET_PID_BIT(pid,4)) << OPEN_LIN_P0_FLAG;
 8000c56:	79fb      	ldrb	r3, [r7, #7]
 8000c58:	091b      	lsrs	r3, r3, #4
 8000c5a:	b2db      	uxtb	r3, r3
 8000c5c:	4053      	eors	r3, r2
 8000c5e:	b2db      	uxtb	r3, r3
 8000c60:	019b      	lsls	r3, r3, #6
 8000c62:	b2db      	uxtb	r3, r3
	result = (open_lin_pid_t)(OPEN_LIN_GET_PID_BIT(pid,0) ^ OPEN_LIN_GET_PID_BIT(pid,1) ^
 8000c64:	f003 0340 	and.w	r3, r3, #64	; 0x40
 8000c68:	73fb      	strb	r3, [r7, #15]

    result |= (open_lin_pid_t)(~(OPEN_LIN_GET_PID_BIT(pid,1) ^ OPEN_LIN_GET_PID_BIT(pid,3) ^
 8000c6a:	79fb      	ldrb	r3, [r7, #7]
 8000c6c:	085b      	lsrs	r3, r3, #1
 8000c6e:	b2da      	uxtb	r2, r3
 8000c70:	79fb      	ldrb	r3, [r7, #7]
 8000c72:	08db      	lsrs	r3, r3, #3
 8000c74:	b2db      	uxtb	r3, r3
 8000c76:	4053      	eors	r3, r2
 8000c78:	b2da      	uxtb	r2, r3
 8000c7a:	79fb      	ldrb	r3, [r7, #7]
 8000c7c:	091b      	lsrs	r3, r3, #4
 8000c7e:	b2db      	uxtb	r3, r3
 8000c80:	4053      	eors	r3, r2
 8000c82:	b2da      	uxtb	r2, r3
    			  OPEN_LIN_GET_PID_BIT(pid,4) ^ OPEN_LIN_GET_PID_BIT(pid,5)) << OPEN_LIN_P1_FLAG);
 8000c84:	79fb      	ldrb	r3, [r7, #7]
 8000c86:	095b      	lsrs	r3, r3, #5
 8000c88:	b2db      	uxtb	r3, r3
 8000c8a:	4053      	eors	r3, r2
 8000c8c:	b2db      	uxtb	r3, r3
 8000c8e:	f003 0301 	and.w	r3, r3, #1
 8000c92:	b2db      	uxtb	r3, r3
    result |= (open_lin_pid_t)(~(OPEN_LIN_GET_PID_BIT(pid,1) ^ OPEN_LIN_GET_PID_BIT(pid,3) ^
 8000c94:	43db      	mvns	r3, r3
 8000c96:	b2db      	uxtb	r3, r3
 8000c98:	01db      	lsls	r3, r3, #7
 8000c9a:	b2da      	uxtb	r2, r3
 8000c9c:	7bfb      	ldrb	r3, [r7, #15]
 8000c9e:	4313      	orrs	r3, r2
 8000ca0:	73fb      	strb	r3, [r7, #15]

    result |= (open_lin_pid_t)(OPEN_LIN_ID_MASK & pid);
 8000ca2:	f997 3007 	ldrsb.w	r3, [r7, #7]
 8000ca6:	f003 033f 	and.w	r3, r3, #63	; 0x3f
 8000caa:	b25a      	sxtb	r2, r3
 8000cac:	f997 300f 	ldrsb.w	r3, [r7, #15]
 8000cb0:	4313      	orrs	r3, r2
 8000cb2:	b25b      	sxtb	r3, r3
 8000cb4:	73fb      	strb	r3, [r7, #15]
    return result;
 8000cb6:	7bfb      	ldrb	r3, [r7, #15]
}
 8000cb8:	4618      	mov	r0, r3
 8000cba:	3714      	adds	r7, #20
 8000cbc:	46bd      	mov	sp, r7
 8000cbe:	f85d 7b04 	ldr.w	r7, [sp], #4
 8000cc2:	4770      	bx	lr

08000cc4 <open_lin_data_layer_checksum>:

extern l_u8 classicChecksum;
open_lin_checksum_t open_lin_data_layer_checksum(open_lin_pid_t pid, l_u8 lenght, const l_u8* data_ptr)
{
 8000cc4:	b580      	push	{r7, lr}
 8000cc6:	b084      	sub	sp, #16
 8000cc8:	af00      	add	r7, sp, #0
 8000cca:	4603      	mov	r3, r0
 8000ccc:	603a      	str	r2, [r7, #0]
 8000cce:	71fb      	strb	r3, [r7, #7]
 8000cd0:	460b      	mov	r3, r1
 8000cd2:	71bb      	strb	r3, [r7, #6]
	l_u8 i = 0;
 8000cd4:	2300      	movs	r3, #0
 8000cd6:	73fb      	strb	r3, [r7, #15]
	l_u16 result;

	/* diagnostic request have classic checksum */
	if ((pid == OPEN_LIN_DIAG_REQUEST) || (pid == OPEN_LIN_DIAG_RESPONSE) || (classicChecksum == 1))
 8000cd8:	79fb      	ldrb	r3, [r7, #7]
 8000cda:	2b3c      	cmp	r3, #60	; 0x3c
 8000cdc:	d006      	beq.n	8000cec <open_lin_data_layer_checksum+0x28>
 8000cde:	79fb      	ldrb	r3, [r7, #7]
 8000ce0:	2b3d      	cmp	r3, #61	; 0x3d
 8000ce2:	d003      	beq.n	8000cec <open_lin_data_layer_checksum+0x28>
 8000ce4:	4b16      	ldr	r3, [pc, #88]	; (8000d40 <open_lin_data_layer_checksum+0x7c>)
 8000ce6:	781b      	ldrb	r3, [r3, #0]
 8000ce8:	2b01      	cmp	r3, #1
 8000cea:	d102      	bne.n	8000cf2 <open_lin_data_layer_checksum+0x2e>
	{
		result = 0;
 8000cec:	2300      	movs	r3, #0
 8000cee:	81bb      	strh	r3, [r7, #12]
 8000cf0:	e005      	b.n	8000cfe <open_lin_data_layer_checksum+0x3a>
	} else {
		result = open_lin_data_layer_parity(pid);
 8000cf2:	79fb      	ldrb	r3, [r7, #7]
 8000cf4:	4618      	mov	r0, r3
 8000cf6:	f7ff ff9c 	bl	8000c32 <open_lin_data_layer_parity>
 8000cfa:	4603      	mov	r3, r0
 8000cfc:	81bb      	strh	r3, [r7, #12]
	}

	for (i = 0; i < lenght; i++)
 8000cfe:	2300      	movs	r3, #0
 8000d00:	73fb      	strb	r3, [r7, #15]
 8000d02:	e010      	b.n	8000d26 <open_lin_data_layer_checksum+0x62>
	{
		result += data_ptr[i];
 8000d04:	7bfb      	ldrb	r3, [r7, #15]
 8000d06:	683a      	ldr	r2, [r7, #0]
 8000d08:	4413      	add	r3, r2
 8000d0a:	781b      	ldrb	r3, [r3, #0]
 8000d0c:	b29a      	uxth	r2, r3
 8000d0e:	89bb      	ldrh	r3, [r7, #12]
 8000d10:	4413      	add	r3, r2
 8000d12:	81bb      	strh	r3, [r7, #12]
		if (result > 0xFF)
 8000d14:	89bb      	ldrh	r3, [r7, #12]
 8000d16:	2bff      	cmp	r3, #255	; 0xff
 8000d18:	d902      	bls.n	8000d20 <open_lin_data_layer_checksum+0x5c>
		{
			result -= 0xFF;
 8000d1a:	89bb      	ldrh	r3, [r7, #12]
 8000d1c:	3bff      	subs	r3, #255	; 0xff
 8000d1e:	81bb      	strh	r3, [r7, #12]
	for (i = 0; i < lenght; i++)
 8000d20:	7bfb      	ldrb	r3, [r7, #15]
 8000d22:	3301      	adds	r3, #1
 8000d24:	73fb      	strb	r3, [r7, #15]
 8000d26:	7bfa      	ldrb	r2, [r7, #15]
 8000d28:	79bb      	ldrb	r3, [r7, #6]
 8000d2a:	429a      	cmp	r2, r3
 8000d2c:	d3ea      	bcc.n	8000d04 <open_lin_data_layer_checksum+0x40>
		} else
		{
			/* do nothing */
		}
	}
	return (open_lin_checksum_t)(~result);
 8000d2e:	89bb      	ldrh	r3, [r7, #12]
 8000d30:	b2db      	uxtb	r3, r3
 8000d32:	43db      	mvns	r3, r3
 8000d34:	b2db      	uxtb	r3, r3
}
 8000d36:	4618      	mov	r0, r3
 8000d38:	3710      	adds	r7, #16
 8000d3a:	46bd      	mov	sp, r7
 8000d3c:	bd80      	pop	{r7, pc}
 8000d3e:	bf00      	nop
 8000d40:	200002a6 	.word	0x200002a6

08000d44 <__NVIC_EnableIRQ>:
{
 8000d44:	b480      	push	{r7}
 8000d46:	b083      	sub	sp, #12
 8000d48:	af00      	add	r7, sp, #0
 8000d4a:	4603      	mov	r3, r0
 8000d4c:	71fb      	strb	r3, [r7, #7]
  if ((int32_t)(IRQn) >= 0)
 8000d4e:	f997 3007 	ldrsb.w	r3, [r7, #7]
 8000d52:	2b00      	cmp	r3, #0
 8000d54:	db0b      	blt.n	8000d6e <__NVIC_EnableIRQ+0x2a>
    NVIC->ISER[(((uint32_t)IRQn) >> 5UL)] = (uint32_t)(1UL << (((uint32_t)IRQn) & 0x1FUL));
 8000d56:	79fb      	ldrb	r3, [r7, #7]
 8000d58:	f003 021f 	and.w	r2, r3, #31
 8000d5c:	4907      	ldr	r1, [pc, #28]	; (8000d7c <__NVIC_EnableIRQ+0x38>)
 8000d5e:	f997 3007 	ldrsb.w	r3, [r7, #7]
 8000d62:	095b      	lsrs	r3, r3, #5
 8000d64:	2001      	movs	r0, #1
 8000d66:	fa00 f202 	lsl.w	r2, r0, r2
 8000d6a:	f841 2023 	str.w	r2, [r1, r3, lsl #2]
}
 8000d6e:	bf00      	nop
 8000d70:	370c      	adds	r7, #12
 8000d72:	46bd      	mov	sp, r7
 8000d74:	f85d 7b04 	ldr.w	r7, [sp], #4
 8000d78:	4770      	bx	lr
 8000d7a:	bf00      	nop
 8000d7c:	e000e100 	.word	0xe000e100

08000d80 <open_lin_error_handler>:
#include <stm32f4xx_hal_uart.h>
#include <stm32f4xx.h>
extern UART_HandleTypeDef huart1;

void open_lin_error_handler(t_open_lin_error error_code)
{
 8000d80:	b480      	push	{r7}
 8000d82:	b083      	sub	sp, #12
 8000d84:	af00      	add	r7, sp, #0
 8000d86:	4603      	mov	r3, r0
 8000d88:	71fb      	strb	r3, [r7, #7]
	/* no error handling */
}
 8000d8a:	bf00      	nop
 8000d8c:	370c      	adds	r7, #12
 8000d8e:	46bd      	mov	sp, r7
 8000d90:	f85d 7b04 	ldr.w	r7, [sp], #4
 8000d94:	4770      	bx	lr
	...

08000d98 <open_lin_hw_check_for_break>:

l_bool open_lin_hw_check_for_break(void)
{
 8000d98:	b480      	push	{r7}
 8000d9a:	b083      	sub	sp, #12
 8000d9c:	af00      	add	r7, sp, #0
	l_bool result = __HAL_UART_GET_FLAG(&huart1,UART_FLAG_LBD);
 8000d9e:	4b0d      	ldr	r3, [pc, #52]	; (8000dd4 <open_lin_hw_check_for_break+0x3c>)
 8000da0:	681b      	ldr	r3, [r3, #0]
 8000da2:	681b      	ldr	r3, [r3, #0]
 8000da4:	f403 7380 	and.w	r3, r3, #256	; 0x100
 8000da8:	f5b3 7f80 	cmp.w	r3, #256	; 0x100
 8000dac:	bf0c      	ite	eq
 8000dae:	2301      	moveq	r3, #1
 8000db0:	2300      	movne	r3, #0
 8000db2:	71fb      	strb	r3, [r7, #7]
	if (result == true)
 8000db4:	79fb      	ldrb	r3, [r7, #7]
 8000db6:	2b00      	cmp	r3, #0
 8000db8:	d004      	beq.n	8000dc4 <open_lin_hw_check_for_break+0x2c>
	{
		__HAL_UART_CLEAR_FLAG(&huart1,UART_FLAG_LBD);
 8000dba:	4b06      	ldr	r3, [pc, #24]	; (8000dd4 <open_lin_hw_check_for_break+0x3c>)
 8000dbc:	681b      	ldr	r3, [r3, #0]
 8000dbe:	f46f 7280 	mvn.w	r2, #256	; 0x100
 8000dc2:	601a      	str	r2, [r3, #0]
	}

	return result;
 8000dc4:	79fb      	ldrb	r3, [r7, #7]
}
 8000dc6:	4618      	mov	r0, r3
 8000dc8:	370c      	adds	r7, #12
 8000dca:	46bd      	mov	sp, r7
 8000dcc:	f85d 7b04 	ldr.w	r7, [sp], #4
 8000dd0:	4770      	bx	lr
 8000dd2:	bf00      	nop
 8000dd4:	20000444 	.word	0x20000444

08000dd8 <open_lin_hw_set_auto_baud>:

void open_lin_hw_set_auto_baud(void)
{
 8000dd8:	b480      	push	{r7}
 8000dda:	af00      	add	r7, sp, #0
//    hw auto baudrate is no supported
//	huart1.Instance->RQR = UART_AUTOBAUD_REQUEST;
}
 8000ddc:	bf00      	nop
 8000dde:	46bd      	mov	sp, r7
 8000de0:	f85d 7b04 	ldr.w	r7, [sp], #4
 8000de4:	4770      	bx	lr
	...

08000de8 <open_lin_hw_reset>:
extern uint8_t Uart2RxFifo;
void open_lin_hw_reset(void) {
 8000de8:	b580      	push	{r7, lr}
 8000dea:	af00      	add	r7, sp, #0
	open_lin_hw_check_for_break();
 8000dec:	f7ff ffd4 	bl	8000d98 <open_lin_hw_check_for_break>
	HAL_LIN_Init(&huart1, UART_LINBREAKDETECTLENGTH_11B);
 8000df0:	2120      	movs	r1, #32
 8000df2:	4806      	ldr	r0, [pc, #24]	; (8000e0c <open_lin_hw_reset+0x24>)
 8000df4:	f003 fa84 	bl	8004300 <HAL_LIN_Init>
	HAL_UART_Receive_IT(&huart1, &Uart2RxFifo, 1);
 8000df8:	2201      	movs	r2, #1
 8000dfa:	4905      	ldr	r1, [pc, #20]	; (8000e10 <open_lin_hw_reset+0x28>)
 8000dfc:	4803      	ldr	r0, [pc, #12]	; (8000e0c <open_lin_hw_reset+0x24>)
 8000dfe:	f003 fb7e 	bl	80044fe <HAL_UART_Receive_IT>
    NVIC_EnableIRQ(USART1_IRQn);
 8000e02:	2025      	movs	r0, #37	; 0x25
 8000e04:	f7ff ff9e 	bl	8000d44 <__NVIC_EnableIRQ>

}
 8000e08:	bf00      	nop
 8000e0a:	bd80      	pop	{r7, pc}
 8000e0c:	20000444 	.word	0x20000444
 8000e10:	20000440 	.word	0x20000440

08000e14 <open_lin_set_rx_enabled>:


void open_lin_set_rx_enabled(l_bool v)
{
 8000e14:	b580      	push	{r7, lr}
 8000e16:	b082      	sub	sp, #8
 8000e18:	af00      	add	r7, sp, #0
 8000e1a:	4603      	mov	r3, r0
 8000e1c:	71fb      	strb	r3, [r7, #7]
	if (v == l_true)
 8000e1e:	79fb      	ldrb	r3, [r7, #7]
 8000e20:	2b00      	cmp	r3, #0
 8000e22:	d002      	beq.n	8000e2a <open_lin_set_rx_enabled+0x16>
	{
		open_lin_hw_reset();
 8000e24:	f7ff ffe0 	bl	8000de8 <open_lin_hw_reset>
	} else
	{
		CLEAR_BIT(huart1.Instance->CR1, (USART_CR1_RXNEIE | USART_CR1_PEIE));
	}
}
 8000e28:	e007      	b.n	8000e3a <open_lin_set_rx_enabled+0x26>
		CLEAR_BIT(huart1.Instance->CR1, (USART_CR1_RXNEIE | USART_CR1_PEIE));
 8000e2a:	4b06      	ldr	r3, [pc, #24]	; (8000e44 <open_lin_set_rx_enabled+0x30>)
 8000e2c:	681b      	ldr	r3, [r3, #0]
 8000e2e:	68da      	ldr	r2, [r3, #12]
 8000e30:	4b04      	ldr	r3, [pc, #16]	; (8000e44 <open_lin_set_rx_enabled+0x30>)
 8000e32:	681b      	ldr	r3, [r3, #0]
 8000e34:	f422 7290 	bic.w	r2, r2, #288	; 0x120
 8000e38:	60da      	str	r2, [r3, #12]
}
 8000e3a:	bf00      	nop
 8000e3c:	3708      	adds	r7, #8
 8000e3e:	46bd      	mov	sp, r7
 8000e40:	bd80      	pop	{r7, pc}
 8000e42:	bf00      	nop
 8000e44:	20000444 	.word	0x20000444

08000e48 <open_lin_hw_tx_byte>:

l_bool open_lin_hw_tx_byte(l_u8 byte){
 8000e48:	b580      	push	{r7, lr}
 8000e4a:	b082      	sub	sp, #8
 8000e4c:	af00      	add	r7, sp, #0
 8000e4e:	4603      	mov	r3, r0
 8000e50:	71fb      	strb	r3, [r7, #7]

	if (HAL_UART_Transmit(&huart1,&byte,1,1000) == HAL_OK)
 8000e52:	1df9      	adds	r1, r7, #7
 8000e54:	f44f 737a 	mov.w	r3, #1000	; 0x3e8
 8000e58:	2201      	movs	r2, #1
 8000e5a:	4806      	ldr	r0, [pc, #24]	; (8000e74 <open_lin_hw_tx_byte+0x2c>)
 8000e5c:	f003 fab6 	bl	80043cc <HAL_UART_Transmit>
 8000e60:	4603      	mov	r3, r0
 8000e62:	2b00      	cmp	r3, #0
 8000e64:	d101      	bne.n	8000e6a <open_lin_hw_tx_byte+0x22>
		return true;
 8000e66:	2301      	movs	r3, #1
 8000e68:	e000      	b.n	8000e6c <open_lin_hw_tx_byte+0x24>
	return false;
 8000e6a:	2300      	movs	r3, #0
}
 8000e6c:	4618      	mov	r0, r3
 8000e6e:	3708      	adds	r7, #8
 8000e70:	46bd      	mov	sp, r7
 8000e72:	bd80      	pop	{r7, pc}
 8000e74:	20000444 	.word	0x20000444

08000e78 <open_lin_hw_tx_break>:

l_bool open_lin_hw_tx_break(void){
 8000e78:	b580      	push	{r7, lr}
 8000e7a:	af00      	add	r7, sp, #0

	if (HAL_LIN_SendBreak(&huart1) == HAL_OK)
 8000e7c:	4805      	ldr	r0, [pc, #20]	; (8000e94 <open_lin_hw_tx_break+0x1c>)
 8000e7e:	f003 fc9d 	bl	80047bc <HAL_LIN_SendBreak>
 8000e82:	4603      	mov	r3, r0
 8000e84:	2b00      	cmp	r3, #0
 8000e86:	d101      	bne.n	8000e8c <open_lin_hw_tx_break+0x14>
		return true;
 8000e88:	2301      	movs	r3, #1
 8000e8a:	e000      	b.n	8000e8e <open_lin_hw_tx_break+0x16>
	return false;
 8000e8c:	2300      	movs	r3, #0
}
 8000e8e:	4618      	mov	r0, r3
 8000e90:	bd80      	pop	{r7, pc}
 8000e92:	bf00      	nop
 8000e94:	20000444 	.word	0x20000444

08000e98 <open_lin_hw_tx_data>:

l_bool open_lin_hw_tx_data(l_u8* data, l_u8 len)
{
 8000e98:	b580      	push	{r7, lr}
 8000e9a:	b082      	sub	sp, #8
 8000e9c:	af00      	add	r7, sp, #0
 8000e9e:	6078      	str	r0, [r7, #4]
 8000ea0:	460b      	mov	r3, r1
 8000ea2:	70fb      	strb	r3, [r7, #3]
	if (HAL_UART_Transmit(&huart1,data,len,1000) == HAL_OK)
 8000ea4:	78fb      	ldrb	r3, [r7, #3]
 8000ea6:	b29a      	uxth	r2, r3
 8000ea8:	f44f 737a 	mov.w	r3, #1000	; 0x3e8
 8000eac:	6879      	ldr	r1, [r7, #4]
 8000eae:	4806      	ldr	r0, [pc, #24]	; (8000ec8 <open_lin_hw_tx_data+0x30>)
 8000eb0:	f003 fa8c 	bl	80043cc <HAL_UART_Transmit>
 8000eb4:	4603      	mov	r3, r0
 8000eb6:	2b00      	cmp	r3, #0
 8000eb8:	d101      	bne.n	8000ebe <open_lin_hw_tx_data+0x26>
		return true;
 8000eba:	2301      	movs	r3, #1
 8000ebc:	e000      	b.n	8000ec0 <open_lin_hw_tx_data+0x28>
	else
		return false;
 8000ebe:	2300      	movs	r3, #0
//	add buffers to use
//	HAL_UART_Transmit_IT(huart1,data,len);

}
 8000ec0:	4618      	mov	r0, r3
 8000ec2:	3708      	adds	r7, #8
 8000ec4:	46bd      	mov	sp, r7
 8000ec6:	bd80      	pop	{r7, pc}
 8000ec8:	20000444 	.word	0x20000444

08000ecc <open_lin_master_dl_rx_callback>:
//{
//
//}

void open_lin_master_dl_rx_callback(open_lin_frame_slot_t* slot)
{
 8000ecc:	b580      	push	{r7, lr}
 8000ece:	b082      	sub	sp, #8
 8000ed0:	af00      	add	r7, sp, #0
 8000ed2:	6078      	str	r0, [r7, #4]
	slcanReciveCanFrame(slot);
 8000ed4:	6878      	ldr	r0, [r7, #4]
 8000ed6:	f000 ff53 	bl	8001d80 <slcanReciveCanFrame>
}
 8000eda:	bf00      	nop
 8000edc:	3708      	adds	r7, #8
 8000ede:	46bd      	mov	sp, r7
 8000ee0:	bd80      	pop	{r7, pc}
	...

08000ee4 <open_lin_master_goto_idle>:
static void open_lin_master_goto_idle(l_bool next_item);
static void data_layer_next_item(void);
static t_master_frame_table_item* get_current_item(void);

static void open_lin_master_goto_idle(l_bool next_item)
{
 8000ee4:	b580      	push	{r7, lr}
 8000ee6:	b082      	sub	sp, #8
 8000ee8:	af00      	add	r7, sp, #0
 8000eea:	4603      	mov	r3, r0
 8000eec:	71fb      	strb	r3, [r7, #7]
	master_rx_count = 0;
 8000eee:	4b09      	ldr	r3, [pc, #36]	; (8000f14 <open_lin_master_goto_idle+0x30>)
 8000ef0:	2200      	movs	r2, #0
 8000ef2:	701a      	strb	r2, [r3, #0]
	lin_master_state = OPEN_LIN_MASTER_IDLE;
 8000ef4:	4b08      	ldr	r3, [pc, #32]	; (8000f18 <open_lin_master_goto_idle+0x34>)
 8000ef6:	2200      	movs	r2, #0
 8000ef8:	701a      	strb	r2, [r3, #0]
	time_passed_since_last_frame_ms = 0;
 8000efa:	4b08      	ldr	r3, [pc, #32]	; (8000f1c <open_lin_master_goto_idle+0x38>)
 8000efc:	2200      	movs	r2, #0
 8000efe:	801a      	strh	r2, [r3, #0]
	if (next_item)
 8000f00:	79fb      	ldrb	r3, [r7, #7]
 8000f02:	2b00      	cmp	r3, #0
 8000f04:	d001      	beq.n	8000f0a <open_lin_master_goto_idle+0x26>
	{
		data_layer_next_item();
 8000f06:	f000 f839 	bl	8000f7c <data_layer_next_item>
	} else {
		/* do nothing */
	}
}
 8000f0a:	bf00      	nop
 8000f0c:	3708      	adds	r7, #8
 8000f0e:	46bd      	mov	sp, r7
 8000f10:	bd80      	pop	{r7, pc}
 8000f12:	bf00      	nop
 8000f14:	20000231 	.word	0x20000231
 8000f18:	20000230 	.word	0x20000230
 8000f1c:	2000023a 	.word	0x2000023a

08000f20 <open_lin_master_dl_init>:


void open_lin_master_dl_init(t_master_frame_table_item *p_master_frame_table, l_u8 p_master_frame_table_size)
{
 8000f20:	b580      	push	{r7, lr}
 8000f22:	b082      	sub	sp, #8
 8000f24:	af00      	add	r7, sp, #0
 8000f26:	6078      	str	r0, [r7, #4]
 8000f28:	460b      	mov	r3, r1
 8000f2a:	70fb      	strb	r3, [r7, #3]
	master_frame_table = p_master_frame_table;
 8000f2c:	4a06      	ldr	r2, [pc, #24]	; (8000f48 <open_lin_master_dl_init+0x28>)
 8000f2e:	687b      	ldr	r3, [r7, #4]
 8000f30:	6013      	str	r3, [r2, #0]
	master_frame_table_size = p_master_frame_table_size;
 8000f32:	4a06      	ldr	r2, [pc, #24]	; (8000f4c <open_lin_master_dl_init+0x2c>)
 8000f34:	78fb      	ldrb	r3, [r7, #3]
 8000f36:	7013      	strb	r3, [r2, #0]
	open_lin_master_goto_idle(l_false);
 8000f38:	2000      	movs	r0, #0
 8000f3a:	f7ff ffd3 	bl	8000ee4 <open_lin_master_goto_idle>
}
 8000f3e:	bf00      	nop
 8000f40:	3708      	adds	r7, #8
 8000f42:	46bd      	mov	sp, r7
 8000f44:	bd80      	pop	{r7, pc}
 8000f46:	bf00      	nop
 8000f48:	20000234 	.word	0x20000234
 8000f4c:	20000238 	.word	0x20000238

08000f50 <get_current_item>:

static t_master_frame_table_item* get_current_item(void)
{
 8000f50:	b480      	push	{r7}
 8000f52:	af00      	add	r7, sp, #0
	return &(master_frame_table[master_table_index]);
 8000f54:	4b07      	ldr	r3, [pc, #28]	; (8000f74 <get_current_item+0x24>)
 8000f56:	681a      	ldr	r2, [r3, #0]
 8000f58:	4b07      	ldr	r3, [pc, #28]	; (8000f78 <get_current_item+0x28>)
 8000f5a:	781b      	ldrb	r3, [r3, #0]
 8000f5c:	4619      	mov	r1, r3
 8000f5e:	460b      	mov	r3, r1
 8000f60:	005b      	lsls	r3, r3, #1
 8000f62:	440b      	add	r3, r1
 8000f64:	009b      	lsls	r3, r3, #2
 8000f66:	4413      	add	r3, r2
}
 8000f68:	4618      	mov	r0, r3
 8000f6a:	46bd      	mov	sp, r7
 8000f6c:	f85d 7b04 	ldr.w	r7, [sp], #4
 8000f70:	4770      	bx	lr
 8000f72:	bf00      	nop
 8000f74:	20000234 	.word	0x20000234
 8000f78:	20000232 	.word	0x20000232

08000f7c <data_layer_next_item>:

static void data_layer_next_item(void)
{
 8000f7c:	b480      	push	{r7}
 8000f7e:	af00      	add	r7, sp, #0

	if (master_table_index >= (l_u8)(master_frame_table_size - 1u))
 8000f80:	4b0b      	ldr	r3, [pc, #44]	; (8000fb0 <data_layer_next_item+0x34>)
 8000f82:	781b      	ldrb	r3, [r3, #0]
 8000f84:	3b01      	subs	r3, #1
 8000f86:	b2da      	uxtb	r2, r3
 8000f88:	4b0a      	ldr	r3, [pc, #40]	; (8000fb4 <data_layer_next_item+0x38>)
 8000f8a:	781b      	ldrb	r3, [r3, #0]
 8000f8c:	429a      	cmp	r2, r3
 8000f8e:	d803      	bhi.n	8000f98 <data_layer_next_item+0x1c>
	{
		master_table_index = 0;
 8000f90:	4b08      	ldr	r3, [pc, #32]	; (8000fb4 <data_layer_next_item+0x38>)
 8000f92:	2200      	movs	r2, #0
 8000f94:	701a      	strb	r2, [r3, #0]
	} else {
		master_table_index ++;
	}
}
 8000f96:	e005      	b.n	8000fa4 <data_layer_next_item+0x28>
		master_table_index ++;
 8000f98:	4b06      	ldr	r3, [pc, #24]	; (8000fb4 <data_layer_next_item+0x38>)
 8000f9a:	781b      	ldrb	r3, [r3, #0]
 8000f9c:	3301      	adds	r3, #1
 8000f9e:	b2da      	uxtb	r2, r3
 8000fa0:	4b04      	ldr	r3, [pc, #16]	; (8000fb4 <data_layer_next_item+0x38>)
 8000fa2:	701a      	strb	r2, [r3, #0]
}
 8000fa4:	bf00      	nop
 8000fa6:	46bd      	mov	sp, r7
 8000fa8:	f85d 7b04 	ldr.w	r7, [sp], #4
 8000fac:	4770      	bx	lr
 8000fae:	bf00      	nop
 8000fb0:	20000238 	.word	0x20000238
 8000fb4:	20000232 	.word	0x20000232

08000fb8 <open_lin_master_data_tx_header>:


l_bool open_lin_master_data_tx_header(open_lin_frame_slot_t  *slot)
{
 8000fb8:	b580      	push	{r7, lr}
 8000fba:	b084      	sub	sp, #16
 8000fbc:	af00      	add	r7, sp, #0
 8000fbe:	6078      	str	r0, [r7, #4]
	l_bool result = l_true;
 8000fc0:	2301      	movs	r3, #1
 8000fc2:	73fb      	strb	r3, [r7, #15]
	result = (open_lin_hw_tx_break()) && result;
 8000fc4:	f7ff ff58 	bl	8000e78 <open_lin_hw_tx_break>
 8000fc8:	4603      	mov	r3, r0
 8000fca:	2b00      	cmp	r3, #0
 8000fcc:	d004      	beq.n	8000fd8 <open_lin_master_data_tx_header+0x20>
 8000fce:	7bfb      	ldrb	r3, [r7, #15]
 8000fd0:	2b00      	cmp	r3, #0
 8000fd2:	d001      	beq.n	8000fd8 <open_lin_master_data_tx_header+0x20>
 8000fd4:	2301      	movs	r3, #1
 8000fd6:	e000      	b.n	8000fda <open_lin_master_data_tx_header+0x22>
 8000fd8:	2300      	movs	r3, #0
 8000fda:	73fb      	strb	r3, [r7, #15]
 8000fdc:	7bfb      	ldrb	r3, [r7, #15]
 8000fde:	f003 0301 	and.w	r3, r3, #1
 8000fe2:	73fb      	strb	r3, [r7, #15]
	result = (open_lin_hw_tx_byte(0x55)) && result;
 8000fe4:	2055      	movs	r0, #85	; 0x55
 8000fe6:	f7ff ff2f 	bl	8000e48 <open_lin_hw_tx_byte>
 8000fea:	4603      	mov	r3, r0
 8000fec:	2b00      	cmp	r3, #0
 8000fee:	d004      	beq.n	8000ffa <open_lin_master_data_tx_header+0x42>
 8000ff0:	7bfb      	ldrb	r3, [r7, #15]
 8000ff2:	2b00      	cmp	r3, #0
 8000ff4:	d001      	beq.n	8000ffa <open_lin_master_data_tx_header+0x42>
 8000ff6:	2301      	movs	r3, #1
 8000ff8:	e000      	b.n	8000ffc <open_lin_master_data_tx_header+0x44>
 8000ffa:	2300      	movs	r3, #0
 8000ffc:	73fb      	strb	r3, [r7, #15]
 8000ffe:	7bfb      	ldrb	r3, [r7, #15]
 8001000:	f003 0301 	and.w	r3, r3, #1
 8001004:	73fb      	strb	r3, [r7, #15]
	result = (open_lin_hw_tx_byte(open_lin_data_layer_parity(slot->pid))) && result;
 8001006:	687b      	ldr	r3, [r7, #4]
 8001008:	781b      	ldrb	r3, [r3, #0]
 800100a:	4618      	mov	r0, r3
 800100c:	f7ff fe11 	bl	8000c32 <open_lin_data_layer_parity>
 8001010:	4603      	mov	r3, r0
 8001012:	4618      	mov	r0, r3
 8001014:	f7ff ff18 	bl	8000e48 <open_lin_hw_tx_byte>
 8001018:	4603      	mov	r3, r0
 800101a:	2b00      	cmp	r3, #0
 800101c:	d004      	beq.n	8001028 <open_lin_master_data_tx_header+0x70>
 800101e:	7bfb      	ldrb	r3, [r7, #15]
 8001020:	2b00      	cmp	r3, #0
 8001022:	d001      	beq.n	8001028 <open_lin_master_data_tx_header+0x70>
 8001024:	2301      	movs	r3, #1
 8001026:	e000      	b.n	800102a <open_lin_master_data_tx_header+0x72>
 8001028:	2300      	movs	r3, #0
 800102a:	73fb      	strb	r3, [r7, #15]
 800102c:	7bfb      	ldrb	r3, [r7, #15]
 800102e:	f003 0301 	and.w	r3, r3, #1
 8001032:	73fb      	strb	r3, [r7, #15]
	return result;
 8001034:	7bfb      	ldrb	r3, [r7, #15]
}
 8001036:	4618      	mov	r0, r3
 8001038:	3710      	adds	r7, #16
 800103a:	46bd      	mov	sp, r7
 800103c:	bd80      	pop	{r7, pc}

0800103e <open_lin_master_data_tx_data>:

l_bool open_lin_master_data_tx_data(open_lin_frame_slot_t *slot)
{
 800103e:	b580      	push	{r7, lr}
 8001040:	b084      	sub	sp, #16
 8001042:	af00      	add	r7, sp, #0
 8001044:	6078      	str	r0, [r7, #4]
	l_u8 i = 0;
 8001046:	2300      	movs	r3, #0
 8001048:	73fb      	strb	r3, [r7, #15]
	l_bool result = l_true;
 800104a:	2301      	movs	r3, #1
 800104c:	73bb      	strb	r3, [r7, #14]
	for (i = 0; i < slot->data_length; i++)
 800104e:	2300      	movs	r3, #0
 8001050:	73fb      	strb	r3, [r7, #15]
 8001052:	e018      	b.n	8001086 <open_lin_master_data_tx_data+0x48>
	{
		result = (open_lin_hw_tx_byte(slot->data_ptr[i])) && result;
 8001054:	687b      	ldr	r3, [r7, #4]
 8001056:	685a      	ldr	r2, [r3, #4]
 8001058:	7bfb      	ldrb	r3, [r7, #15]
 800105a:	4413      	add	r3, r2
 800105c:	781b      	ldrb	r3, [r3, #0]
 800105e:	4618      	mov	r0, r3
 8001060:	f7ff fef2 	bl	8000e48 <open_lin_hw_tx_byte>
 8001064:	4603      	mov	r3, r0
 8001066:	2b00      	cmp	r3, #0
 8001068:	d004      	beq.n	8001074 <open_lin_master_data_tx_data+0x36>
 800106a:	7bbb      	ldrb	r3, [r7, #14]
 800106c:	2b00      	cmp	r3, #0
 800106e:	d001      	beq.n	8001074 <open_lin_master_data_tx_data+0x36>
 8001070:	2301      	movs	r3, #1
 8001072:	e000      	b.n	8001076 <open_lin_master_data_tx_data+0x38>
 8001074:	2300      	movs	r3, #0
 8001076:	73bb      	strb	r3, [r7, #14]
 8001078:	7bbb      	ldrb	r3, [r7, #14]
 800107a:	f003 0301 	and.w	r3, r3, #1
 800107e:	73bb      	strb	r3, [r7, #14]
	for (i = 0; i < slot->data_length; i++)
 8001080:	7bfb      	ldrb	r3, [r7, #15]
 8001082:	3301      	adds	r3, #1
 8001084:	73fb      	strb	r3, [r7, #15]
 8001086:	687b      	ldr	r3, [r7, #4]
 8001088:	789b      	ldrb	r3, [r3, #2]
 800108a:	7bfa      	ldrb	r2, [r7, #15]
 800108c:	429a      	cmp	r2, r3
 800108e:	d3e1      	bcc.n	8001054 <open_lin_master_data_tx_data+0x16>
	}

	result = (open_lin_hw_tx_byte(open_lin_data_layer_checksum(slot->pid, slot->data_length, slot->data_ptr))) && result;
 8001090:	687b      	ldr	r3, [r7, #4]
 8001092:	7818      	ldrb	r0, [r3, #0]
 8001094:	687b      	ldr	r3, [r7, #4]
 8001096:	7899      	ldrb	r1, [r3, #2]
 8001098:	687b      	ldr	r3, [r7, #4]
 800109a:	685b      	ldr	r3, [r3, #4]
 800109c:	461a      	mov	r2, r3
 800109e:	f7ff fe11 	bl	8000cc4 <open_lin_data_layer_checksum>
 80010a2:	4603      	mov	r3, r0
 80010a4:	4618      	mov	r0, r3
 80010a6:	f7ff fecf 	bl	8000e48 <open_lin_hw_tx_byte>
 80010aa:	4603      	mov	r3, r0
 80010ac:	2b00      	cmp	r3, #0
 80010ae:	d004      	beq.n	80010ba <open_lin_master_data_tx_data+0x7c>
 80010b0:	7bbb      	ldrb	r3, [r7, #14]
 80010b2:	2b00      	cmp	r3, #0
 80010b4:	d001      	beq.n	80010ba <open_lin_master_data_tx_data+0x7c>
 80010b6:	2301      	movs	r3, #1
 80010b8:	e000      	b.n	80010bc <open_lin_master_data_tx_data+0x7e>
 80010ba:	2300      	movs	r3, #0
 80010bc:	73bb      	strb	r3, [r7, #14]
 80010be:	7bbb      	ldrb	r3, [r7, #14]
 80010c0:	f003 0301 	and.w	r3, r3, #1
 80010c4:	73bb      	strb	r3, [r7, #14]
	return result;
 80010c6:	7bbb      	ldrb	r3, [r7, #14]
}
 80010c8:	4618      	mov	r0, r3
 80010ca:	3710      	adds	r7, #16
 80010cc:	46bd      	mov	sp, r7
 80010ce:	bd80      	pop	{r7, pc}

080010d0 <open_lin_master_dl_rx>:

l_bool open_lin_master_dl_rx(l_u8 rx_byte)
{
 80010d0:	b580      	push	{r7, lr}
 80010d2:	b084      	sub	sp, #16
 80010d4:	af00      	add	r7, sp, #0
 80010d6:	4603      	mov	r3, r0
 80010d8:	71fb      	strb	r3, [r7, #7]
	open_lin_frame_slot_t* slot = &(get_current_item()->slot);
 80010da:	f7ff ff39 	bl	8000f50 <get_current_item>
 80010de:	4603      	mov	r3, r0
 80010e0:	3304      	adds	r3, #4
 80010e2:	60bb      	str	r3, [r7, #8]
	static l_u8 frame_tmp_buffer[OPEN_LIN_MAX_FRAME_LENGTH];
	l_bool pending = false;
 80010e4:	2300      	movs	r3, #0
 80010e6:	73fb      	strb	r3, [r7, #15]

	if (lin_master_state == OPEN_LIN_MASTER_DATA_RX)
 80010e8:	4b1e      	ldr	r3, [pc, #120]	; (8001164 <open_lin_master_dl_rx+0x94>)
 80010ea:	781b      	ldrb	r3, [r3, #0]
 80010ec:	2b01      	cmp	r3, #1
 80010ee:	d133      	bne.n	8001158 <open_lin_master_dl_rx+0x88>
	{
		if (master_rx_count < slot->data_length)
 80010f0:	68bb      	ldr	r3, [r7, #8]
 80010f2:	789a      	ldrb	r2, [r3, #2]
 80010f4:	4b1c      	ldr	r3, [pc, #112]	; (8001168 <open_lin_master_dl_rx+0x98>)
 80010f6:	781b      	ldrb	r3, [r3, #0]
 80010f8:	429a      	cmp	r2, r3
 80010fa:	d90e      	bls.n	800111a <open_lin_master_dl_rx+0x4a>
		{
			frame_tmp_buffer[master_rx_count] = rx_byte;
 80010fc:	4b1a      	ldr	r3, [pc, #104]	; (8001168 <open_lin_master_dl_rx+0x98>)
 80010fe:	781b      	ldrb	r3, [r3, #0]
 8001100:	4619      	mov	r1, r3
 8001102:	4a1a      	ldr	r2, [pc, #104]	; (800116c <open_lin_master_dl_rx+0x9c>)
 8001104:	79fb      	ldrb	r3, [r7, #7]
 8001106:	5453      	strb	r3, [r2, r1]
			master_rx_count ++;
 8001108:	4b17      	ldr	r3, [pc, #92]	; (8001168 <open_lin_master_dl_rx+0x98>)
 800110a:	781b      	ldrb	r3, [r3, #0]
 800110c:	3301      	adds	r3, #1
 800110e:	b2da      	uxtb	r2, r3
 8001110:	4b15      	ldr	r3, [pc, #84]	; (8001168 <open_lin_master_dl_rx+0x98>)
 8001112:	701a      	strb	r2, [r3, #0]
			pending = l_true;
 8001114:	2301      	movs	r3, #1
 8001116:	73fb      	strb	r3, [r7, #15]
 8001118:	e01e      	b.n	8001158 <open_lin_master_dl_rx+0x88>
		} else
		{
			if (rx_byte == open_lin_data_layer_checksum(slot->pid,slot->data_length,frame_tmp_buffer))
 800111a:	68bb      	ldr	r3, [r7, #8]
 800111c:	7818      	ldrb	r0, [r3, #0]
 800111e:	68bb      	ldr	r3, [r7, #8]
 8001120:	789b      	ldrb	r3, [r3, #2]
 8001122:	4a12      	ldr	r2, [pc, #72]	; (800116c <open_lin_master_dl_rx+0x9c>)
 8001124:	4619      	mov	r1, r3
 8001126:	f7ff fdcd 	bl	8000cc4 <open_lin_data_layer_checksum>
 800112a:	4603      	mov	r3, r0
 800112c:	461a      	mov	r2, r3
 800112e:	79fb      	ldrb	r3, [r7, #7]
 8001130:	4293      	cmp	r3, r2
 8001132:	d10b      	bne.n	800114c <open_lin_master_dl_rx+0x7c>
			{
				(void)open_lin_memcpy(slot->data_ptr,frame_tmp_buffer,slot->data_length);
 8001134:	68bb      	ldr	r3, [r7, #8]
 8001136:	6858      	ldr	r0, [r3, #4]
 8001138:	68bb      	ldr	r3, [r7, #8]
 800113a:	789b      	ldrb	r3, [r3, #2]
 800113c:	461a      	mov	r2, r3
 800113e:	490b      	ldr	r1, [pc, #44]	; (800116c <open_lin_master_dl_rx+0x9c>)
 8001140:	f007 fcba 	bl	8008ab8 <memcpy>
				open_lin_master_dl_rx_callback(slot);
 8001144:	68b8      	ldr	r0, [r7, #8]
 8001146:	f7ff fec1 	bl	8000ecc <open_lin_master_dl_rx_callback>
 800114a:	e002      	b.n	8001152 <open_lin_master_dl_rx+0x82>
			} else
			{
				open_lin_error_handler(OPEN_LIN_MASTER_ERROR_CHECKSUM);
 800114c:	2008      	movs	r0, #8
 800114e:	f7ff fe17 	bl	8000d80 <open_lin_error_handler>
			}
			open_lin_master_goto_idle(l_true);
 8001152:	2001      	movs	r0, #1
 8001154:	f7ff fec6 	bl	8000ee4 <open_lin_master_goto_idle>
		}
	}
	return pending;
 8001158:	7bfb      	ldrb	r3, [r7, #15]
}
 800115a:	4618      	mov	r0, r3
 800115c:	3710      	adds	r7, #16
 800115e:	46bd      	mov	sp, r7
 8001160:	bd80      	pop	{r7, pc}
 8001162:	bf00      	nop
 8001164:	20000230 	.word	0x20000230
 8001168:	20000231 	.word	0x20000231
 800116c:	20000240 	.word	0x20000240

08001170 <open_lin_master_dl_handler>:

l_u8 diagnostic_slot = 0;

void open_lin_master_dl_handler(l_u8 ms_passed)
{
 8001170:	b580      	push	{r7, lr}
 8001172:	b084      	sub	sp, #16
 8001174:	af00      	add	r7, sp, #0
 8001176:	4603      	mov	r3, r0
 8001178:	71fb      	strb	r3, [r7, #7]
	t_master_frame_table_item* master_table_item = get_current_item();
 800117a:	f7ff fee9 	bl	8000f50 <get_current_item>
 800117e:	60f8      	str	r0, [r7, #12]
	if (master_frame_table_size > 0u)
 8001180:	4b44      	ldr	r3, [pc, #272]	; (8001294 <open_lin_master_dl_handler+0x124>)
 8001182:	781b      	ldrb	r3, [r3, #0]
 8001184:	2b00      	cmp	r3, #0
 8001186:	f000 8081 	beq.w	800128c <open_lin_master_dl_handler+0x11c>
	{
		if ((master_table_item->slot.pid == OPEN_LIN_DIAG_REQUEST) || (master_table_item->slot.pid == OPEN_LIN_DIAG_RESPONSE) )
 800118a:	68fb      	ldr	r3, [r7, #12]
 800118c:	791b      	ldrb	r3, [r3, #4]
 800118e:	2b3c      	cmp	r3, #60	; 0x3c
 8001190:	d003      	beq.n	800119a <open_lin_master_dl_handler+0x2a>
 8001192:	68fb      	ldr	r3, [r7, #12]
 8001194:	791b      	ldrb	r3, [r3, #4]
 8001196:	2b3d      	cmp	r3, #61	; 0x3d
 8001198:	d108      	bne.n	80011ac <open_lin_master_dl_handler+0x3c>
		{
			if (diagnostic_slot == 0)
 800119a:	4b3f      	ldr	r3, [pc, #252]	; (8001298 <open_lin_master_dl_handler+0x128>)
 800119c:	781b      	ldrb	r3, [r3, #0]
 800119e:	2b00      	cmp	r3, #0
 80011a0:	d104      	bne.n	80011ac <open_lin_master_dl_handler+0x3c>
			{
				data_layer_next_item();
 80011a2:	f7ff feeb 	bl	8000f7c <data_layer_next_item>
				master_table_item = get_current_item();
 80011a6:	f7ff fed3 	bl	8000f50 <get_current_item>
 80011aa:	60f8      	str	r0, [r7, #12]
			}
		}
		time_passed_since_last_frame_ms += ms_passed;
 80011ac:	79fb      	ldrb	r3, [r7, #7]
 80011ae:	b29a      	uxth	r2, r3
 80011b0:	4b3a      	ldr	r3, [pc, #232]	; (800129c <open_lin_master_dl_handler+0x12c>)
 80011b2:	881b      	ldrh	r3, [r3, #0]
 80011b4:	4413      	add	r3, r2
 80011b6:	b29a      	uxth	r2, r3
 80011b8:	4b38      	ldr	r3, [pc, #224]	; (800129c <open_lin_master_dl_handler+0x12c>)
 80011ba:	801a      	strh	r2, [r3, #0]
		if (lin_master_state == OPEN_LIN_MASTER_IDLE)
 80011bc:	4b38      	ldr	r3, [pc, #224]	; (80012a0 <open_lin_master_dl_handler+0x130>)
 80011be:	781b      	ldrb	r3, [r3, #0]
 80011c0:	2b00      	cmp	r3, #0
 80011c2:	d134      	bne.n	800122e <open_lin_master_dl_handler+0xbe>
		{
			if ((master_table_item->offset_ms) < time_passed_since_last_frame_ms)
 80011c4:	68fb      	ldr	r3, [r7, #12]
 80011c6:	781b      	ldrb	r3, [r3, #0]
 80011c8:	b29a      	uxth	r2, r3
 80011ca:	4b34      	ldr	r3, [pc, #208]	; (800129c <open_lin_master_dl_handler+0x12c>)
 80011cc:	881b      	ldrh	r3, [r3, #0]
 80011ce:	429a      	cmp	r2, r3
 80011d0:	d22d      	bcs.n	800122e <open_lin_master_dl_handler+0xbe>
			{
				if ((master_table_item->slot.pid == OPEN_LIN_DIAG_REQUEST) || (master_table_item->slot.pid == OPEN_LIN_DIAG_RESPONSE) )
 80011d2:	68fb      	ldr	r3, [r7, #12]
 80011d4:	791b      	ldrb	r3, [r3, #4]
 80011d6:	2b3c      	cmp	r3, #60	; 0x3c
 80011d8:	d003      	beq.n	80011e2 <open_lin_master_dl_handler+0x72>
 80011da:	68fb      	ldr	r3, [r7, #12]
 80011dc:	791b      	ldrb	r3, [r3, #4]
 80011de:	2b3d      	cmp	r3, #61	; 0x3d
 80011e0:	d102      	bne.n	80011e8 <open_lin_master_dl_handler+0x78>
					diagnostic_slot = 0;
 80011e2:	4b2d      	ldr	r3, [pc, #180]	; (8001298 <open_lin_master_dl_handler+0x128>)
 80011e4:	2200      	movs	r2, #0
 80011e6:	701a      	strb	r2, [r3, #0]
				time_passed_since_last_frame_ms = 0;
 80011e8:	4b2c      	ldr	r3, [pc, #176]	; (800129c <open_lin_master_dl_handler+0x12c>)
 80011ea:	2200      	movs	r2, #0
 80011ec:	801a      	strh	r2, [r3, #0]
				if (open_lin_master_data_tx_header(&master_table_item->slot) == l_true)
 80011ee:	68fb      	ldr	r3, [r7, #12]
 80011f0:	3304      	adds	r3, #4
 80011f2:	4618      	mov	r0, r3
 80011f4:	f7ff fee0 	bl	8000fb8 <open_lin_master_data_tx_header>
 80011f8:	4603      	mov	r3, r0
 80011fa:	2b00      	cmp	r3, #0
 80011fc:	d011      	beq.n	8001222 <open_lin_master_dl_handler+0xb2>
				{
					if (master_table_item->slot.frame_type == OPEN_LIN_FRAME_TYPE_TRANSMIT)
 80011fe:	68fb      	ldr	r3, [r7, #12]
 8001200:	795b      	ldrb	r3, [r3, #5]
 8001202:	2b00      	cmp	r3, #0
 8001204:	d103      	bne.n	800120e <open_lin_master_dl_handler+0x9e>
					{
						lin_master_state = OPEN_LIN_MASTER_TX_DATA;
 8001206:	4b26      	ldr	r3, [pc, #152]	; (80012a0 <open_lin_master_dl_handler+0x130>)
 8001208:	2202      	movs	r2, #2
 800120a:	701a      	strb	r2, [r3, #0]
 800120c:	e00f      	b.n	800122e <open_lin_master_dl_handler+0xbe>
					} else
					{
						lin_master_state = OPEN_LIN_MASTER_DATA_RX;
 800120e:	4b24      	ldr	r3, [pc, #144]	; (80012a0 <open_lin_master_dl_handler+0x130>)
 8001210:	2201      	movs	r2, #1
 8001212:	701a      	strb	r2, [r3, #0]
						master_rx_count = 0;
 8001214:	4b23      	ldr	r3, [pc, #140]	; (80012a4 <open_lin_master_dl_handler+0x134>)
 8001216:	2200      	movs	r2, #0
 8001218:	701a      	strb	r2, [r3, #0]
						open_lin_set_rx_enabled(true);
 800121a:	2001      	movs	r0, #1
 800121c:	f7ff fdfa 	bl	8000e14 <open_lin_set_rx_enabled>
 8001220:	e005      	b.n	800122e <open_lin_master_dl_handler+0xbe>
					}
				} else
				{
					open_lin_error_handler(OPEN_LIN_MASTER_ERROR_HEADER_TX);
 8001222:	2009      	movs	r0, #9
 8001224:	f7ff fdac 	bl	8000d80 <open_lin_error_handler>
					lin_master_state = OPEN_LIN_MASTER_IDLE;
 8001228:	4b1d      	ldr	r3, [pc, #116]	; (80012a0 <open_lin_master_dl_handler+0x130>)
 800122a:	2200      	movs	r2, #0
 800122c:	701a      	strb	r2, [r3, #0]
			}
		} else
		{
			/* do nothing */
		}
		switch (lin_master_state)
 800122e:	4b1c      	ldr	r3, [pc, #112]	; (80012a0 <open_lin_master_dl_handler+0x130>)
 8001230:	781b      	ldrb	r3, [r3, #0]
 8001232:	2b01      	cmp	r3, #1
 8001234:	d008      	beq.n	8001248 <open_lin_master_dl_handler+0xd8>
 8001236:	2b02      	cmp	r3, #2
 8001238:	d014      	beq.n	8001264 <open_lin_master_dl_handler+0xf4>
 800123a:	2b00      	cmp	r3, #0
 800123c:	d000      	beq.n	8001240 <open_lin_master_dl_handler+0xd0>
				}
				break;
			}
			default:
				/* do nothing */
				break;
 800123e:	e025      	b.n	800128c <open_lin_master_dl_handler+0x11c>
				open_lin_set_rx_enabled(false);
 8001240:	2000      	movs	r0, #0
 8001242:	f7ff fde7 	bl	8000e14 <open_lin_set_rx_enabled>
				break;
 8001246:	e021      	b.n	800128c <open_lin_master_dl_handler+0x11c>
				if (time_passed_since_last_frame_ms > master_table_item->response_wait_ms)
 8001248:	68fb      	ldr	r3, [r7, #12]
 800124a:	785b      	ldrb	r3, [r3, #1]
 800124c:	b29a      	uxth	r2, r3
 800124e:	4b13      	ldr	r3, [pc, #76]	; (800129c <open_lin_master_dl_handler+0x12c>)
 8001250:	881b      	ldrh	r3, [r3, #0]
 8001252:	429a      	cmp	r2, r3
 8001254:	d219      	bcs.n	800128a <open_lin_master_dl_handler+0x11a>
					open_lin_error_handler(OPEN_LIN_MASTER_ERROR_DATA_RX_TIMEOUT);
 8001256:	200c      	movs	r0, #12
 8001258:	f7ff fd92 	bl	8000d80 <open_lin_error_handler>
					open_lin_master_goto_idle(l_true);
 800125c:	2001      	movs	r0, #1
 800125e:	f7ff fe41 	bl	8000ee4 <open_lin_master_goto_idle>
				break;
 8001262:	e012      	b.n	800128a <open_lin_master_dl_handler+0x11a>
				if (open_lin_master_data_tx_data(&master_table_item->slot) == l_true)
 8001264:	68fb      	ldr	r3, [r7, #12]
 8001266:	3304      	adds	r3, #4
 8001268:	4618      	mov	r0, r3
 800126a:	f7ff fee8 	bl	800103e <open_lin_master_data_tx_data>
 800126e:	4603      	mov	r3, r0
 8001270:	2b00      	cmp	r3, #0
 8001272:	d003      	beq.n	800127c <open_lin_master_dl_handler+0x10c>
					open_lin_master_goto_idle(l_true);
 8001274:	2001      	movs	r0, #1
 8001276:	f7ff fe35 	bl	8000ee4 <open_lin_master_goto_idle>
				break;
 800127a:	e007      	b.n	800128c <open_lin_master_dl_handler+0x11c>
					open_lin_error_handler(OPEN_LIN_MASTER_ERROR_DATA_TX);
 800127c:	200a      	movs	r0, #10
 800127e:	f7ff fd7f 	bl	8000d80 <open_lin_error_handler>
					lin_master_state = OPEN_LIN_MASTER_IDLE;
 8001282:	4b07      	ldr	r3, [pc, #28]	; (80012a0 <open_lin_master_dl_handler+0x130>)
 8001284:	2200      	movs	r2, #0
 8001286:	701a      	strb	r2, [r3, #0]
				break;
 8001288:	e000      	b.n	800128c <open_lin_master_dl_handler+0x11c>
				break;
 800128a:	bf00      	nop
		}
	} else {
		/* empty master table do nothing */
	}
}
 800128c:	bf00      	nop
 800128e:	3710      	adds	r7, #16
 8001290:	46bd      	mov	sp, r7
 8001292:	bd80      	pop	{r7, pc}
 8001294:	20000238 	.word	0x20000238
 8001298:	2000023c 	.word	0x2000023c
 800129c:	2000023a 	.word	0x2000023a
 80012a0:	20000230 	.word	0x20000230
 80012a4:	20000231 	.word	0x20000231

080012a8 <open_lin_net_init>:
static t_master_frame_table_item* slot_array;
static l_u8 slot_array_len;


void open_lin_net_init(t_master_frame_table_item *a_slot_array, l_u8 a_slot_array_len)
{
 80012a8:	b580      	push	{r7, lr}
 80012aa:	b082      	sub	sp, #8
 80012ac:	af00      	add	r7, sp, #0
 80012ae:	6078      	str	r0, [r7, #4]
 80012b0:	460b      	mov	r3, r1
 80012b2:	70fb      	strb	r3, [r7, #3]
	slot_array = a_slot_array;
 80012b4:	4a06      	ldr	r2, [pc, #24]	; (80012d0 <open_lin_net_init+0x28>)
 80012b6:	687b      	ldr	r3, [r7, #4]
 80012b8:	6013      	str	r3, [r2, #0]
	slot_array_len = a_slot_array_len;
 80012ba:	4a06      	ldr	r2, [pc, #24]	; (80012d4 <open_lin_net_init+0x2c>)
 80012bc:	78fb      	ldrb	r3, [r7, #3]
 80012be:	7013      	strb	r3, [r2, #0]
	open_lin_set_rx_enabled(true);
 80012c0:	2001      	movs	r0, #1
 80012c2:	f7ff fda7 	bl	8000e14 <open_lin_set_rx_enabled>
}
 80012c6:	bf00      	nop
 80012c8:	3708      	adds	r7, #8
 80012ca:	46bd      	mov	sp, r7
 80012cc:	bd80      	pop	{r7, pc}
 80012ce:	bf00      	nop
 80012d0:	20000248 	.word	0x20000248
 80012d4:	2000024c 	.word	0x2000024c

080012d8 <open_lin_net_get_slot>:
#ifdef OPEN_LIN_DYNAMIC_IDS
	extern open_lin_id_translation_item_t open_lin_id_translation_tab[];
#endif

open_lin_frame_slot_t* open_lin_net_get_slot(open_lin_pid_t pid)
{
 80012d8:	b480      	push	{r7}
 80012da:	b085      	sub	sp, #20
 80012dc:	af00      	add	r7, sp, #0
 80012de:	4603      	mov	r3, r0
 80012e0:	71fb      	strb	r3, [r7, #7]
	open_lin_frame_slot_t *result = OPEN_LIN_NET_SLOT_EMPTY;
 80012e2:	2300      	movs	r3, #0
 80012e4:	60fb      	str	r3, [r7, #12]
	uint8_t i = 0;
 80012e6:	2300      	movs	r3, #0
 80012e8:	72fb      	strb	r3, [r7, #11]
        return result; /* MISRA violation */
    } else {
        /* do nothing */
    }
#endif
	for(i = 0; i < (slot_array_len); i++)
 80012ea:	2300      	movs	r3, #0
 80012ec:	72fb      	strb	r3, [r7, #11]
 80012ee:	e019      	b.n	8001324 <open_lin_net_get_slot+0x4c>
	{
		if (slot_array[i].slot.pid == pid){
 80012f0:	4b12      	ldr	r3, [pc, #72]	; (800133c <open_lin_net_get_slot+0x64>)
 80012f2:	6819      	ldr	r1, [r3, #0]
 80012f4:	7afa      	ldrb	r2, [r7, #11]
 80012f6:	4613      	mov	r3, r2
 80012f8:	005b      	lsls	r3, r3, #1
 80012fa:	4413      	add	r3, r2
 80012fc:	009b      	lsls	r3, r3, #2
 80012fe:	440b      	add	r3, r1
 8001300:	791b      	ldrb	r3, [r3, #4]
 8001302:	79fa      	ldrb	r2, [r7, #7]
 8001304:	429a      	cmp	r2, r3
 8001306:	d10a      	bne.n	800131e <open_lin_net_get_slot+0x46>
			result = &slot_array[i].slot;
 8001308:	4b0c      	ldr	r3, [pc, #48]	; (800133c <open_lin_net_get_slot+0x64>)
 800130a:	6819      	ldr	r1, [r3, #0]
 800130c:	7afa      	ldrb	r2, [r7, #11]
 800130e:	4613      	mov	r3, r2
 8001310:	005b      	lsls	r3, r3, #1
 8001312:	4413      	add	r3, r2
 8001314:	009b      	lsls	r3, r3, #2
 8001316:	440b      	add	r3, r1
 8001318:	3304      	adds	r3, #4
 800131a:	60fb      	str	r3, [r7, #12]
			break;
 800131c:	e007      	b.n	800132e <open_lin_net_get_slot+0x56>
	for(i = 0; i < (slot_array_len); i++)
 800131e:	7afb      	ldrb	r3, [r7, #11]
 8001320:	3301      	adds	r3, #1
 8001322:	72fb      	strb	r3, [r7, #11]
 8001324:	4b06      	ldr	r3, [pc, #24]	; (8001340 <open_lin_net_get_slot+0x68>)
 8001326:	781b      	ldrb	r3, [r3, #0]
 8001328:	7afa      	ldrb	r2, [r7, #11]
 800132a:	429a      	cmp	r2, r3
 800132c:	d3e0      	bcc.n	80012f0 <open_lin_net_get_slot+0x18>
		{
			/* do nothing */
		}
	}

	return result;
 800132e:	68fb      	ldr	r3, [r7, #12]
};
 8001330:	4618      	mov	r0, r3
 8001332:	3714      	adds	r7, #20
 8001334:	46bd      	mov	sp, r7
 8001336:	f85d 7b04 	ldr.w	r7, [sp], #4
 800133a:	4770      	bx	lr
 800133c:	20000248 	.word	0x20000248
 8001340:	2000024c 	.word	0x2000024c

08001344 <open_lin_net_rx_handler>:

void open_lin_net_rx_handler(open_lin_pid_t pid) {
 8001344:	b580      	push	{r7, lr}
 8001346:	b084      	sub	sp, #16
 8001348:	af00      	add	r7, sp, #0
 800134a:	4603      	mov	r3, r0
 800134c:	71fb      	strb	r3, [r7, #7]
	open_lin_frame_slot_t* slot = open_lin_net_get_slot(pid);
 800134e:	79fb      	ldrb	r3, [r7, #7]
 8001350:	4618      	mov	r0, r3
 8001352:	f7ff ffc1 	bl	80012d8 <open_lin_net_get_slot>
 8001356:	60f8      	str	r0, [r7, #12]
	open_lin_on_rx_frame(slot);
 8001358:	68f8      	ldr	r0, [r7, #12]
 800135a:	f7ff fa2f 	bl	80007bc <open_lin_on_rx_frame>
};
 800135e:	bf00      	nop
 8001360:	3710      	adds	r7, #16
 8001362:	46bd      	mov	sp, r7
 8001364:	bd80      	pop	{r7, pc}
	...

08001368 <open_lin_slave_set_lin_frame>:

static t_open_lin_slave_state open_lin_slave_state;

static l_u8 open_lin_slave_state_data_count;

static l_bool open_lin_slave_set_lin_frame(t_open_lin_data_layer_frame *frame){
 8001368:	b580      	push	{r7, lr}
 800136a:	b084      	sub	sp, #16
 800136c:	af00      	add	r7, sp, #0
 800136e:	6078      	str	r0, [r7, #4]
	l_bool result = false;
 8001370:	2300      	movs	r3, #0
 8001372:	73fb      	strb	r3, [r7, #15]
	open_lin_frame_slot_t *frame_slot = open_lin_net_get_slot(frame->pid);
 8001374:	687b      	ldr	r3, [r7, #4]
 8001376:	781b      	ldrb	r3, [r3, #0]
 8001378:	4618      	mov	r0, r3
 800137a:	f7ff ffad 	bl	80012d8 <open_lin_net_get_slot>
 800137e:	60b8      	str	r0, [r7, #8]
	if (frame_slot != OPEN_LIN_NET_SLOT_EMPTY)
 8001380:	68bb      	ldr	r3, [r7, #8]
 8001382:	2b00      	cmp	r3, #0
 8001384:	d014      	beq.n	80013b0 <open_lin_slave_set_lin_frame+0x48>
	{
		frame->lenght = frame_slot->data_length;
 8001386:	68bb      	ldr	r3, [r7, #8]
 8001388:	789a      	ldrb	r2, [r3, #2]
 800138a:	687b      	ldr	r3, [r7, #4]
 800138c:	705a      	strb	r2, [r3, #1]
		frame->data_ptr = frame_slot->data_ptr;
 800138e:	68bb      	ldr	r3, [r7, #8]
 8001390:	685a      	ldr	r2, [r3, #4]
 8001392:	687b      	ldr	r3, [r7, #4]
 8001394:	605a      	str	r2, [r3, #4]
		if (frame_slot->frame_type == OPEN_LIN_FRAME_TYPE_TRANSMIT)
 8001396:	68bb      	ldr	r3, [r7, #8]
 8001398:	785b      	ldrb	r3, [r3, #1]
 800139a:	2b00      	cmp	r3, #0
 800139c:	d103      	bne.n	80013a6 <open_lin_slave_set_lin_frame+0x3e>
		{
			open_lin_slave_state = OPEN_LIN_SLAVE_DATA_TX;
 800139e:	4b07      	ldr	r3, [pc, #28]	; (80013bc <open_lin_slave_set_lin_frame+0x54>)
 80013a0:	2204      	movs	r2, #4
 80013a2:	701a      	strb	r2, [r3, #0]
 80013a4:	e002      	b.n	80013ac <open_lin_slave_set_lin_frame+0x44>
		} else
		{
			open_lin_slave_state = OPEN_LIN_SLAVE_DATA_RX;
 80013a6:	4b05      	ldr	r3, [pc, #20]	; (80013bc <open_lin_slave_set_lin_frame+0x54>)
 80013a8:	2203      	movs	r2, #3
 80013aa:	701a      	strb	r2, [r3, #0]
		}
		result = true;
 80013ac:	2301      	movs	r3, #1
 80013ae:	73fb      	strb	r3, [r7, #15]
	} else
	{
		/* do nothing */
	}
	return result;
 80013b0:	7bfb      	ldrb	r3, [r7, #15]
}
 80013b2:	4618      	mov	r0, r3
 80013b4:	3710      	adds	r7, #16
 80013b6:	46bd      	mov	sp, r7
 80013b8:	bd80      	pop	{r7, pc}
 80013ba:	bf00      	nop
 80013bc:	2000024d 	.word	0x2000024d

080013c0 <open_lin_slave_reset>:
void open_lin_slave_init(void)
{
	open_lin_slave_reset();
}

void open_lin_slave_reset(void){
 80013c0:	b480      	push	{r7}
 80013c2:	af00      	add	r7, sp, #0
	open_lin_slave_state = OPEN_LIN_SLAVE_IDLE;
 80013c4:	4b05      	ldr	r3, [pc, #20]	; (80013dc <open_lin_slave_reset+0x1c>)
 80013c6:	2200      	movs	r2, #0
 80013c8:	701a      	strb	r2, [r3, #0]
	open_lin_slave_state_data_count = 0;
 80013ca:	4b05      	ldr	r3, [pc, #20]	; (80013e0 <open_lin_slave_reset+0x20>)
 80013cc:	2200      	movs	r2, #0
 80013ce:	701a      	strb	r2, [r3, #0]
}
 80013d0:	bf00      	nop
 80013d2:	46bd      	mov	sp, r7
 80013d4:	f85d 7b04 	ldr.w	r7, [sp], #4
 80013d8:	4770      	bx	lr
 80013da:	bf00      	nop
 80013dc:	2000024d 	.word	0x2000024d
 80013e0:	2000024e 	.word	0x2000024e

080013e4 <open_lin_slave_rx_header>:

void open_lin_slave_rx_header(l_u8 rx_byte)
{
 80013e4:	b580      	push	{r7, lr}
 80013e6:	b082      	sub	sp, #8
 80013e8:	af00      	add	r7, sp, #0
 80013ea:	4603      	mov	r3, r0
 80013ec:	71fb      	strb	r3, [r7, #7]
	static t_open_lin_data_layer_frame open_lin_data_layer_frame;
	static l_u8 open_lin_slave_data_buff[OPEN_LIN_MAX_FRAME_LENGTH];

	if (open_lin_hw_check_for_break() == l_true)
 80013ee:	f7ff fcd3 	bl	8000d98 <open_lin_hw_check_for_break>
 80013f2:	4603      	mov	r3, r0
 80013f4:	2b00      	cmp	r3, #0
 80013f6:	d00c      	beq.n	8001412 <open_lin_slave_rx_header+0x2e>
	{
		if (open_lin_slave_state != OPEN_LIN_SLAVE_IDLE)
 80013f8:	4b5a      	ldr	r3, [pc, #360]	; (8001564 <open_lin_slave_rx_header+0x180>)
 80013fa:	781b      	ldrb	r3, [r3, #0]
 80013fc:	2b00      	cmp	r3, #0
 80013fe:	d002      	beq.n	8001406 <open_lin_slave_rx_header+0x22>
		{
			open_lin_error_handler(OPEN_LIN_SLAVE_ERROR_INVALID_BREAK); /* break should be received only in IDLE state */
 8001400:	2005      	movs	r0, #5
 8001402:	f7ff fcbd 	bl	8000d80 <open_lin_error_handler>
		} else {
			/* do nothing, go to SYNC rx anyway*/
		}
        #ifdef OPEN_LIN_HW_BREAK_IS_SYNCH_BYTE
        open_lin_slave_state = OPEN_LIN_SLAVE_PID_RX;
 8001406:	4b57      	ldr	r3, [pc, #348]	; (8001564 <open_lin_slave_rx_header+0x180>)
 8001408:	2202      	movs	r2, #2
 800140a:	701a      	strb	r2, [r3, #0]
        #else
		open_lin_slave_state = OPEN_LIN_SLAVE_SYNC_RX;
        #endif
        #ifdef OPEN_LIN_AUTO_BAUND
			open_lin_hw_set_auto_baud();
 800140c:	f7ff fce4 	bl	8000dd8 <open_lin_hw_set_auto_baud>
				open_lin_slave_reset();
				open_lin_error_handler(OPEN_LIN_SLAVE_ERROR_INVALID_DATA_RX);
				break;
		}
	}
}
 8001410:	e0a3      	b.n	800155a <open_lin_slave_rx_header+0x176>
		switch (open_lin_slave_state){
 8001412:	4b54      	ldr	r3, [pc, #336]	; (8001564 <open_lin_slave_rx_header+0x180>)
 8001414:	781b      	ldrb	r3, [r3, #0]
 8001416:	2b02      	cmp	r3, #2
 8001418:	d011      	beq.n	800143e <open_lin_slave_rx_header+0x5a>
 800141a:	2b03      	cmp	r3, #3
 800141c:	d062      	beq.n	80014e4 <open_lin_slave_rx_header+0x100>
 800141e:	2b01      	cmp	r3, #1
 8001420:	f040 8094 	bne.w	800154c <open_lin_slave_rx_header+0x168>
				if (rx_byte != OPEN_LIN_SYNCH_BYTE)
 8001424:	79fb      	ldrb	r3, [r7, #7]
 8001426:	2b55      	cmp	r3, #85	; 0x55
 8001428:	d005      	beq.n	8001436 <open_lin_slave_rx_header+0x52>
					open_lin_error_handler(OPEN_LIN_SLAVE_ERROR_INVALID_SYNCH);
 800142a:	2004      	movs	r0, #4
 800142c:	f7ff fca8 	bl	8000d80 <open_lin_error_handler>
					open_lin_slave_reset();
 8001430:	f7ff ffc6 	bl	80013c0 <open_lin_slave_reset>
 8001434:	e003      	b.n	800143e <open_lin_slave_rx_header+0x5a>
					open_lin_slave_state = OPEN_LIN_SLAVE_PID_RX;
 8001436:	4b4b      	ldr	r3, [pc, #300]	; (8001564 <open_lin_slave_rx_header+0x180>)
 8001438:	2202      	movs	r2, #2
 800143a:	701a      	strb	r2, [r3, #0]
                    break;
 800143c:	e08d      	b.n	800155a <open_lin_slave_rx_header+0x176>
				if (open_lin_data_layer_parity(rx_byte) == rx_byte)
 800143e:	79fb      	ldrb	r3, [r7, #7]
 8001440:	4618      	mov	r0, r3
 8001442:	f7ff fbf6 	bl	8000c32 <open_lin_data_layer_parity>
 8001446:	4603      	mov	r3, r0
 8001448:	461a      	mov	r2, r3
 800144a:	79fb      	ldrb	r3, [r7, #7]
 800144c:	4293      	cmp	r3, r2
 800144e:	d106      	bne.n	800145e <open_lin_slave_rx_header+0x7a>
					open_lin_data_layer_frame.pid = (open_lin_pid_t)(rx_byte & OPEN_LIN_ID_MASK);
 8001450:	79fb      	ldrb	r3, [r7, #7]
 8001452:	f003 033f 	and.w	r3, r3, #63	; 0x3f
 8001456:	b2da      	uxtb	r2, r3
 8001458:	4b43      	ldr	r3, [pc, #268]	; (8001568 <open_lin_slave_rx_header+0x184>)
 800145a:	701a      	strb	r2, [r3, #0]
 800145c:	e004      	b.n	8001468 <open_lin_slave_rx_header+0x84>
					open_lin_error_handler(OPEN_LIN_SLAVE_ERROR_PID_PARITY);
 800145e:	2003      	movs	r0, #3
 8001460:	f7ff fc8e 	bl	8000d80 <open_lin_error_handler>
					open_lin_slave_reset();
 8001464:	f7ff ffac 	bl	80013c0 <open_lin_slave_reset>
				if (open_lin_slave_set_lin_frame(&open_lin_data_layer_frame) == true)
 8001468:	483f      	ldr	r0, [pc, #252]	; (8001568 <open_lin_slave_rx_header+0x184>)
 800146a:	f7ff ff7d 	bl	8001368 <open_lin_slave_set_lin_frame>
 800146e:	4603      	mov	r3, r0
 8001470:	2b00      	cmp	r3, #0
 8001472:	d031      	beq.n	80014d8 <open_lin_slave_rx_header+0xf4>
					if (open_lin_slave_state == OPEN_LIN_SLAVE_DATA_TX)
 8001474:	4b3b      	ldr	r3, [pc, #236]	; (8001564 <open_lin_slave_rx_header+0x180>)
 8001476:	781b      	ldrb	r3, [r3, #0]
 8001478:	2b04      	cmp	r3, #4
 800147a:	d16d      	bne.n	8001558 <open_lin_slave_rx_header+0x174>
						open_lin_data_layer_frame.checksum = open_lin_data_layer_checksum(open_lin_data_layer_frame.pid,
 800147c:	4b3a      	ldr	r3, [pc, #232]	; (8001568 <open_lin_slave_rx_header+0x184>)
 800147e:	7818      	ldrb	r0, [r3, #0]
 8001480:	4b39      	ldr	r3, [pc, #228]	; (8001568 <open_lin_slave_rx_header+0x184>)
 8001482:	7859      	ldrb	r1, [r3, #1]
																open_lin_data_layer_frame.lenght, open_lin_data_layer_frame.data_ptr);
 8001484:	4b38      	ldr	r3, [pc, #224]	; (8001568 <open_lin_slave_rx_header+0x184>)
 8001486:	685b      	ldr	r3, [r3, #4]
						open_lin_data_layer_frame.checksum = open_lin_data_layer_checksum(open_lin_data_layer_frame.pid,
 8001488:	461a      	mov	r2, r3
 800148a:	f7ff fc1b 	bl	8000cc4 <open_lin_data_layer_checksum>
 800148e:	4603      	mov	r3, r0
 8001490:	461a      	mov	r2, r3
 8001492:	4b35      	ldr	r3, [pc, #212]	; (8001568 <open_lin_slave_rx_header+0x184>)
 8001494:	721a      	strb	r2, [r3, #8]
						if ((open_lin_hw_tx_data(open_lin_data_layer_frame.data_ptr, open_lin_data_layer_frame.lenght) == l_false) ||
 8001496:	4b34      	ldr	r3, [pc, #208]	; (8001568 <open_lin_slave_rx_header+0x184>)
 8001498:	685a      	ldr	r2, [r3, #4]
 800149a:	4b33      	ldr	r3, [pc, #204]	; (8001568 <open_lin_slave_rx_header+0x184>)
 800149c:	785b      	ldrb	r3, [r3, #1]
 800149e:	4619      	mov	r1, r3
 80014a0:	4610      	mov	r0, r2
 80014a2:	f7ff fcf9 	bl	8000e98 <open_lin_hw_tx_data>
 80014a6:	4603      	mov	r3, r0
 80014a8:	f083 0301 	eor.w	r3, r3, #1
 80014ac:	b2db      	uxtb	r3, r3
 80014ae:	2b00      	cmp	r3, #0
 80014b0:	d109      	bne.n	80014c6 <open_lin_slave_rx_header+0xe2>
						   (open_lin_hw_tx_data(&open_lin_data_layer_frame.checksum, (l_u8)sizeof(open_lin_data_layer_frame.checksum)) == l_false))
 80014b2:	2101      	movs	r1, #1
 80014b4:	482d      	ldr	r0, [pc, #180]	; (800156c <open_lin_slave_rx_header+0x188>)
 80014b6:	f7ff fcef 	bl	8000e98 <open_lin_hw_tx_data>
 80014ba:	4603      	mov	r3, r0
 80014bc:	f083 0301 	eor.w	r3, r3, #1
 80014c0:	b2db      	uxtb	r3, r3
						if ((open_lin_hw_tx_data(open_lin_data_layer_frame.data_ptr, open_lin_data_layer_frame.lenght) == l_false) ||
 80014c2:	2b00      	cmp	r3, #0
 80014c4:	d005      	beq.n	80014d2 <open_lin_slave_rx_header+0xee>
							open_lin_error_handler(OPEN_LIN_SLAVE_ERROR_HW_TX);
 80014c6:	2007      	movs	r0, #7
 80014c8:	f7ff fc5a 	bl	8000d80 <open_lin_error_handler>
							open_lin_slave_reset();
 80014cc:	f7ff ff78 	bl	80013c0 <open_lin_slave_reset>
						break;
 80014d0:	e043      	b.n	800155a <open_lin_slave_rx_header+0x176>
							open_lin_slave_reset();
 80014d2:	f7ff ff75 	bl	80013c0 <open_lin_slave_reset>
						break;
 80014d6:	e040      	b.n	800155a <open_lin_slave_rx_header+0x176>
					open_lin_error_handler(OPEN_LIN_SLAVE_ERROR_ID_NOT_FOUND);
 80014d8:	2006      	movs	r0, #6
 80014da:	f7ff fc51 	bl	8000d80 <open_lin_error_handler>
					open_lin_slave_reset();
 80014de:	f7ff ff6f 	bl	80013c0 <open_lin_slave_reset>
				break;
 80014e2:	e039      	b.n	8001558 <open_lin_slave_rx_header+0x174>
				if (open_lin_slave_state_data_count < open_lin_data_layer_frame.lenght)
 80014e4:	4b20      	ldr	r3, [pc, #128]	; (8001568 <open_lin_slave_rx_header+0x184>)
 80014e6:	785a      	ldrb	r2, [r3, #1]
 80014e8:	4b21      	ldr	r3, [pc, #132]	; (8001570 <open_lin_slave_rx_header+0x18c>)
 80014ea:	781b      	ldrb	r3, [r3, #0]
 80014ec:	429a      	cmp	r2, r3
 80014ee:	d90c      	bls.n	800150a <open_lin_slave_rx_header+0x126>
					open_lin_slave_data_buff[open_lin_slave_state_data_count] = rx_byte;
 80014f0:	4b1f      	ldr	r3, [pc, #124]	; (8001570 <open_lin_slave_rx_header+0x18c>)
 80014f2:	781b      	ldrb	r3, [r3, #0]
 80014f4:	4619      	mov	r1, r3
 80014f6:	4a1f      	ldr	r2, [pc, #124]	; (8001574 <open_lin_slave_rx_header+0x190>)
 80014f8:	79fb      	ldrb	r3, [r7, #7]
 80014fa:	5453      	strb	r3, [r2, r1]
					open_lin_slave_state_data_count ++;
 80014fc:	4b1c      	ldr	r3, [pc, #112]	; (8001570 <open_lin_slave_rx_header+0x18c>)
 80014fe:	781b      	ldrb	r3, [r3, #0]
 8001500:	3301      	adds	r3, #1
 8001502:	b2da      	uxtb	r2, r3
 8001504:	4b1a      	ldr	r3, [pc, #104]	; (8001570 <open_lin_slave_rx_header+0x18c>)
 8001506:	701a      	strb	r2, [r3, #0]
				break;
 8001508:	e027      	b.n	800155a <open_lin_slave_rx_header+0x176>
					if (rx_byte == open_lin_data_layer_checksum(open_lin_data_layer_frame.pid,
 800150a:	4b17      	ldr	r3, [pc, #92]	; (8001568 <open_lin_slave_rx_header+0x184>)
 800150c:	7818      	ldrb	r0, [r3, #0]
 800150e:	4b16      	ldr	r3, [pc, #88]	; (8001568 <open_lin_slave_rx_header+0x184>)
 8001510:	785b      	ldrb	r3, [r3, #1]
 8001512:	4a18      	ldr	r2, [pc, #96]	; (8001574 <open_lin_slave_rx_header+0x190>)
 8001514:	4619      	mov	r1, r3
 8001516:	f7ff fbd5 	bl	8000cc4 <open_lin_data_layer_checksum>
 800151a:	4603      	mov	r3, r0
 800151c:	461a      	mov	r2, r3
 800151e:	79fb      	ldrb	r3, [r7, #7]
 8001520:	4293      	cmp	r3, r2
 8001522:	d10d      	bne.n	8001540 <open_lin_slave_rx_header+0x15c>
						open_lin_memcpy(open_lin_data_layer_frame.data_ptr,open_lin_slave_data_buff,open_lin_data_layer_frame.lenght);
 8001524:	4b10      	ldr	r3, [pc, #64]	; (8001568 <open_lin_slave_rx_header+0x184>)
 8001526:	6858      	ldr	r0, [r3, #4]
 8001528:	4b0f      	ldr	r3, [pc, #60]	; (8001568 <open_lin_slave_rx_header+0x184>)
 800152a:	785b      	ldrb	r3, [r3, #1]
 800152c:	461a      	mov	r2, r3
 800152e:	4911      	ldr	r1, [pc, #68]	; (8001574 <open_lin_slave_rx_header+0x190>)
 8001530:	f007 fac2 	bl	8008ab8 <memcpy>
						open_lin_net_rx_handler(open_lin_data_layer_frame.pid);
 8001534:	4b0c      	ldr	r3, [pc, #48]	; (8001568 <open_lin_slave_rx_header+0x184>)
 8001536:	781b      	ldrb	r3, [r3, #0]
 8001538:	4618      	mov	r0, r3
 800153a:	f7ff ff03 	bl	8001344 <open_lin_net_rx_handler>
 800153e:	e002      	b.n	8001546 <open_lin_slave_rx_header+0x162>
						open_lin_error_handler(OPEN_LIN_SLAVE_ERROR_INVALID_CHECKSUM);
 8001540:	2002      	movs	r0, #2
 8001542:	f7ff fc1d 	bl	8000d80 <open_lin_error_handler>
					open_lin_slave_reset();
 8001546:	f7ff ff3b 	bl	80013c0 <open_lin_slave_reset>
				break;
 800154a:	e006      	b.n	800155a <open_lin_slave_rx_header+0x176>
				open_lin_slave_reset();
 800154c:	f7ff ff38 	bl	80013c0 <open_lin_slave_reset>
				open_lin_error_handler(OPEN_LIN_SLAVE_ERROR_INVALID_DATA_RX);
 8001550:	2001      	movs	r0, #1
 8001552:	f7ff fc15 	bl	8000d80 <open_lin_error_handler>
				break;
 8001556:	e000      	b.n	800155a <open_lin_slave_rx_header+0x176>
				break;
 8001558:	bf00      	nop
}
 800155a:	bf00      	nop
 800155c:	3708      	adds	r7, #8
 800155e:	46bd      	mov	sp, r7
 8001560:	bd80      	pop	{r7, pc}
 8001562:	bf00      	nop
 8001564:	2000024d 	.word	0x2000024d
 8001568:	20000250 	.word	0x20000250
 800156c:	20000258 	.word	0x20000258
 8001570:	2000024e 	.word	0x2000024e
 8001574:	2000025c 	.word	0x2000025c

08001578 <slcanSetOutputChar>:
  * @brief  Adds data to send buffer
  * @param  c - data to add
  * @retval None
  */
static void slcanSetOutputChar(uint8_t c)
{
 8001578:	b480      	push	{r7}
 800157a:	b083      	sub	sp, #12
 800157c:	af00      	add	r7, sp, #0
 800157e:	4603      	mov	r3, r0
 8001580:	71fb      	strb	r3, [r7, #7]
	if (sl_frame_len < sizeof(sl_frame))
 8001582:	4b0b      	ldr	r3, [pc, #44]	; (80015b0 <slcanSetOutputChar+0x38>)
 8001584:	781b      	ldrb	r3, [r3, #0]
 8001586:	2b3d      	cmp	r3, #61	; 0x3d
 8001588:	d80b      	bhi.n	80015a2 <slcanSetOutputChar+0x2a>
	{
		sl_frame[sl_frame_len] = c;
 800158a:	4b09      	ldr	r3, [pc, #36]	; (80015b0 <slcanSetOutputChar+0x38>)
 800158c:	781b      	ldrb	r3, [r3, #0]
 800158e:	4619      	mov	r1, r3
 8001590:	4a08      	ldr	r2, [pc, #32]	; (80015b4 <slcanSetOutputChar+0x3c>)
 8001592:	79fb      	ldrb	r3, [r7, #7]
 8001594:	5453      	strb	r3, [r2, r1]
		sl_frame_len ++;
 8001596:	4b06      	ldr	r3, [pc, #24]	; (80015b0 <slcanSetOutputChar+0x38>)
 8001598:	781b      	ldrb	r3, [r3, #0]
 800159a:	3301      	adds	r3, #1
 800159c:	b2da      	uxtb	r2, r3
 800159e:	4b04      	ldr	r3, [pc, #16]	; (80015b0 <slcanSetOutputChar+0x38>)
 80015a0:	701a      	strb	r2, [r3, #0]
	}
}
 80015a2:	bf00      	nop
 80015a4:	370c      	adds	r7, #12
 80015a6:	46bd      	mov	sp, r7
 80015a8:	f85d 7b04 	ldr.w	r7, [sp], #4
 80015ac:	4770      	bx	lr
 80015ae:	bf00      	nop
 80015b0:	20000265 	.word	0x20000265
 80015b4:	20000484 	.word	0x20000484

080015b8 <slCanSendNibble>:
  * @brief  Add given nible value as hexadecimal string to bufferr
  * @param  c - data to add
  * @retval None
  */
static void slCanSendNibble(uint8_t ch)
{
 80015b8:	b580      	push	{r7, lr}
 80015ba:	b082      	sub	sp, #8
 80015bc:	af00      	add	r7, sp, #0
 80015be:	4603      	mov	r3, r0
 80015c0:	71fb      	strb	r3, [r7, #7]
	ch = ch > 9 ? ch - 10 + 'A' : ch + '0';
 80015c2:	79fb      	ldrb	r3, [r7, #7]
 80015c4:	2b09      	cmp	r3, #9
 80015c6:	d903      	bls.n	80015d0 <slCanSendNibble+0x18>
 80015c8:	79fb      	ldrb	r3, [r7, #7]
 80015ca:	3337      	adds	r3, #55	; 0x37
 80015cc:	b2db      	uxtb	r3, r3
 80015ce:	e002      	b.n	80015d6 <slCanSendNibble+0x1e>
 80015d0:	79fb      	ldrb	r3, [r7, #7]
 80015d2:	3330      	adds	r3, #48	; 0x30
 80015d4:	b2db      	uxtb	r3, r3
 80015d6:	71fb      	strb	r3, [r7, #7]
	slcanSetOutputChar(ch);
 80015d8:	79fb      	ldrb	r3, [r7, #7]
 80015da:	4618      	mov	r0, r3
 80015dc:	f7ff ffcc 	bl	8001578 <slcanSetOutputChar>
}
 80015e0:	bf00      	nop
 80015e2:	3708      	adds	r7, #8
 80015e4:	46bd      	mov	sp, r7
 80015e6:	bd80      	pop	{r7, pc}

080015e8 <slcanSetOutputAsHex>:
/**
  * @brief  Add given byte value as hexadecimal string to buffer
  * @param  value - data to add
  * @retval None
  */
static void slcanSetOutputAsHex(uint8_t ch) {
 80015e8:	b580      	push	{r7, lr}
 80015ea:	b082      	sub	sp, #8
 80015ec:	af00      	add	r7, sp, #0
 80015ee:	4603      	mov	r3, r0
 80015f0:	71fb      	strb	r3, [r7, #7]
	slCanSendNibble(ch >> 4);
 80015f2:	79fb      	ldrb	r3, [r7, #7]
 80015f4:	091b      	lsrs	r3, r3, #4
 80015f6:	b2db      	uxtb	r3, r3
 80015f8:	4618      	mov	r0, r3
 80015fa:	f7ff ffdd 	bl	80015b8 <slCanSendNibble>
	slCanSendNibble(ch & 0x0F);
 80015fe:	79fb      	ldrb	r3, [r7, #7]
 8001600:	f003 030f 	and.w	r3, r3, #15
 8001604:	b2db      	uxtb	r3, r3
 8001606:	4618      	mov	r0, r3
 8001608:	f7ff ffd6 	bl	80015b8 <slCanSendNibble>
}
 800160c:	bf00      	nop
 800160e:	3708      	adds	r7, #8
 8001610:	46bd      	mov	sp, r7
 8001612:	bd80      	pop	{r7, pc}

08001614 <slcanOutputFlush>:

static void slcanOutputFlush(void)
{
 8001614:	b580      	push	{r7, lr}
 8001616:	af00      	add	r7, sp, #0
	while (((USBD_CDC_HandleTypeDef*)hUsbDeviceFS.pClassData)->TxState){;} //should change by hardware
 8001618:	bf00      	nop
 800161a:	4b0b      	ldr	r3, [pc, #44]	; (8001648 <slcanOutputFlush+0x34>)
 800161c:	f8d3 32bc 	ldr.w	r3, [r3, #700]	; 0x2bc
 8001620:	f8d3 3214 	ldr.w	r3, [r3, #532]	; 0x214
 8001624:	2b00      	cmp	r3, #0
 8001626:	d1f8      	bne.n	800161a <slcanOutputFlush+0x6>
	while (CDC_Transmit_FS(sl_frame, sl_frame_len) != USBD_OK);
 8001628:	bf00      	nop
 800162a:	4b08      	ldr	r3, [pc, #32]	; (800164c <slcanOutputFlush+0x38>)
 800162c:	781b      	ldrb	r3, [r3, #0]
 800162e:	b29b      	uxth	r3, r3
 8001630:	4619      	mov	r1, r3
 8001632:	4807      	ldr	r0, [pc, #28]	; (8001650 <slcanOutputFlush+0x3c>)
 8001634:	f006 fdc4 	bl	80081c0 <CDC_Transmit_FS>
 8001638:	4603      	mov	r3, r0
 800163a:	2b00      	cmp	r3, #0
 800163c:	d1f5      	bne.n	800162a <slcanOutputFlush+0x16>
    sl_frame_len = 0;
 800163e:	4b03      	ldr	r3, [pc, #12]	; (800164c <slcanOutputFlush+0x38>)
 8001640:	2200      	movs	r2, #0
 8001642:	701a      	strb	r2, [r3, #0]
}
 8001644:	bf00      	nop
 8001646:	bd80      	pop	{r7, pc}
 8001648:	200004c8 	.word	0x200004c8
 800164c:	20000265 	.word	0x20000265
 8001650:	20000484 	.word	0x20000484

08001654 <slCanHandler>:

void slCanHandler(uint8_t time_passed_ms)
{
 8001654:	b580      	push	{r7, lr}
 8001656:	b082      	sub	sp, #8
 8001658:	af00      	add	r7, sp, #0
 800165a:	4603      	mov	r3, r0
 800165c:	71fb      	strb	r3, [r7, #7]
    if (slcan_state == SLCAN_STATE_OPEN)
 800165e:	4b08      	ldr	r3, [pc, #32]	; (8001680 <slCanHandler+0x2c>)
 8001660:	781b      	ldrb	r3, [r3, #0]
 8001662:	2b02      	cmp	r3, #2
 8001664:	d107      	bne.n	8001676 <slCanHandler+0x22>
    {
        if (lin_type == LIN_MASTER)
 8001666:	4b07      	ldr	r3, [pc, #28]	; (8001684 <slCanHandler+0x30>)
 8001668:	781b      	ldrb	r3, [r3, #0]
 800166a:	2b00      	cmp	r3, #0
 800166c:	d103      	bne.n	8001676 <slCanHandler+0x22>
        	open_lin_master_dl_handler(time_passed_ms);
 800166e:	79fb      	ldrb	r3, [r7, #7]
 8001670:	4618      	mov	r0, r3
 8001672:	f7ff fd7d 	bl	8001170 <open_lin_master_dl_handler>
    }
}
 8001676:	bf00      	nop
 8001678:	3708      	adds	r7, #8
 800167a:	46bd      	mov	sp, r7
 800167c:	bd80      	pop	{r7, pc}
 800167e:	bf00      	nop
 8001680:	20000264 	.word	0x20000264
 8001684:	20000008 	.word	0x20000008

08001688 <slCanProccesInput>:
  * @param  ch - data to add
  * @retval None
  */
static uint8_t command[LINE_MAXLEN];
int slCanProccesInput(uint8_t ch)
{
 8001688:	b580      	push	{r7, lr}
 800168a:	b082      	sub	sp, #8
 800168c:	af00      	add	r7, sp, #0
 800168e:	4603      	mov	r3, r0
 8001690:	71fb      	strb	r3, [r7, #7]
	static uint8_t line[LINE_MAXLEN];
	static uint8_t linepos = 0;

    if (ch == SLCAN_CR) {
 8001692:	79fb      	ldrb	r3, [r7, #7]
 8001694:	2b0d      	cmp	r3, #13
 8001696:	d111      	bne.n	80016bc <slCanProccesInput+0x34>
        line[linepos] = 0;
 8001698:	4b14      	ldr	r3, [pc, #80]	; (80016ec <slCanProccesInput+0x64>)
 800169a:	781b      	ldrb	r3, [r3, #0]
 800169c:	461a      	mov	r2, r3
 800169e:	4b14      	ldr	r3, [pc, #80]	; (80016f0 <slCanProccesInput+0x68>)
 80016a0:	2100      	movs	r1, #0
 80016a2:	5499      	strb	r1, [r3, r2]
        memcpy(command,line,linepos);
 80016a4:	4b11      	ldr	r3, [pc, #68]	; (80016ec <slCanProccesInput+0x64>)
 80016a6:	781b      	ldrb	r3, [r3, #0]
 80016a8:	461a      	mov	r2, r3
 80016aa:	4911      	ldr	r1, [pc, #68]	; (80016f0 <slCanProccesInput+0x68>)
 80016ac:	4811      	ldr	r0, [pc, #68]	; (80016f4 <slCanProccesInput+0x6c>)
 80016ae:	f007 fa03 	bl	8008ab8 <memcpy>
        linepos = 0;
 80016b2:	4b0e      	ldr	r3, [pc, #56]	; (80016ec <slCanProccesInput+0x64>)
 80016b4:	2200      	movs	r2, #0
 80016b6:	701a      	strb	r2, [r3, #0]
        return 1;
 80016b8:	2301      	movs	r3, #1
 80016ba:	e013      	b.n	80016e4 <slCanProccesInput+0x5c>
    } else if (ch != SLCAN_LR) {
 80016bc:	79fb      	ldrb	r3, [r7, #7]
 80016be:	2b0a      	cmp	r3, #10
 80016c0:	d00f      	beq.n	80016e2 <slCanProccesInput+0x5a>
        line[linepos] = ch;
 80016c2:	4b0a      	ldr	r3, [pc, #40]	; (80016ec <slCanProccesInput+0x64>)
 80016c4:	781b      	ldrb	r3, [r3, #0]
 80016c6:	4619      	mov	r1, r3
 80016c8:	4a09      	ldr	r2, [pc, #36]	; (80016f0 <slCanProccesInput+0x68>)
 80016ca:	79fb      	ldrb	r3, [r7, #7]
 80016cc:	5453      	strb	r3, [r2, r1]
        if (linepos < LINE_MAXLEN - 1) linepos++;
 80016ce:	4b07      	ldr	r3, [pc, #28]	; (80016ec <slCanProccesInput+0x64>)
 80016d0:	781b      	ldrb	r3, [r3, #0]
 80016d2:	2b3c      	cmp	r3, #60	; 0x3c
 80016d4:	d805      	bhi.n	80016e2 <slCanProccesInput+0x5a>
 80016d6:	4b05      	ldr	r3, [pc, #20]	; (80016ec <slCanProccesInput+0x64>)
 80016d8:	781b      	ldrb	r3, [r3, #0]
 80016da:	3301      	adds	r3, #1
 80016dc:	b2da      	uxtb	r2, r3
 80016de:	4b03      	ldr	r3, [pc, #12]	; (80016ec <slCanProccesInput+0x64>)
 80016e0:	701a      	strb	r2, [r3, #0]
    }
    return 0;
 80016e2:	2300      	movs	r3, #0
}
 80016e4:	4618      	mov	r0, r3
 80016e6:	3708      	adds	r7, #8
 80016e8:	46bd      	mov	sp, r7
 80016ea:	bd80      	pop	{r7, pc}
 80016ec:	200002a7 	.word	0x200002a7
 80016f0:	200002a8 	.word	0x200002a8
 80016f4:	20000268 	.word	0x20000268

080016f8 <parseHex>:
  * @param  canmsg - line Input string
  * 		len    - of characters to interpret
  * 		value  - Pointer to variable for the resulting decoded value
  * @retval 0 on error, 1 on success
  */
uint8_t parseHex(uint8_t* line, uint8_t len, uint32_t* value) {
 80016f8:	b480      	push	{r7}
 80016fa:	b085      	sub	sp, #20
 80016fc:	af00      	add	r7, sp, #0
 80016fe:	60f8      	str	r0, [r7, #12]
 8001700:	460b      	mov	r3, r1
 8001702:	607a      	str	r2, [r7, #4]
 8001704:	72fb      	strb	r3, [r7, #11]
    *value = 0;
 8001706:	687b      	ldr	r3, [r7, #4]
 8001708:	2200      	movs	r2, #0
 800170a:	601a      	str	r2, [r3, #0]
    while (len--) {
 800170c:	e045      	b.n	800179a <parseHex+0xa2>
        if (*line == 0) return 0;
 800170e:	68fb      	ldr	r3, [r7, #12]
 8001710:	781b      	ldrb	r3, [r3, #0]
 8001712:	2b00      	cmp	r3, #0
 8001714:	d101      	bne.n	800171a <parseHex+0x22>
 8001716:	2300      	movs	r3, #0
 8001718:	e045      	b.n	80017a6 <parseHex+0xae>
        *value <<= 4;
 800171a:	687b      	ldr	r3, [r7, #4]
 800171c:	681b      	ldr	r3, [r3, #0]
 800171e:	011a      	lsls	r2, r3, #4
 8001720:	687b      	ldr	r3, [r7, #4]
 8001722:	601a      	str	r2, [r3, #0]
        if ((*line >= '0') && (*line <= '9')) {
 8001724:	68fb      	ldr	r3, [r7, #12]
 8001726:	781b      	ldrb	r3, [r3, #0]
 8001728:	2b2f      	cmp	r3, #47	; 0x2f
 800172a:	d90d      	bls.n	8001748 <parseHex+0x50>
 800172c:	68fb      	ldr	r3, [r7, #12]
 800172e:	781b      	ldrb	r3, [r3, #0]
 8001730:	2b39      	cmp	r3, #57	; 0x39
 8001732:	d809      	bhi.n	8001748 <parseHex+0x50>
           *value += *line - '0';
 8001734:	687b      	ldr	r3, [r7, #4]
 8001736:	681b      	ldr	r3, [r3, #0]
 8001738:	68fa      	ldr	r2, [r7, #12]
 800173a:	7812      	ldrb	r2, [r2, #0]
 800173c:	4413      	add	r3, r2
 800173e:	f1a3 0230 	sub.w	r2, r3, #48	; 0x30
 8001742:	687b      	ldr	r3, [r7, #4]
 8001744:	601a      	str	r2, [r3, #0]
 8001746:	e025      	b.n	8001794 <parseHex+0x9c>
        } else if ((*line >= 'A') && (*line <= 'F')) {
 8001748:	68fb      	ldr	r3, [r7, #12]
 800174a:	781b      	ldrb	r3, [r3, #0]
 800174c:	2b40      	cmp	r3, #64	; 0x40
 800174e:	d90d      	bls.n	800176c <parseHex+0x74>
 8001750:	68fb      	ldr	r3, [r7, #12]
 8001752:	781b      	ldrb	r3, [r3, #0]
 8001754:	2b46      	cmp	r3, #70	; 0x46
 8001756:	d809      	bhi.n	800176c <parseHex+0x74>
           *value += *line - 'A' + 10;
 8001758:	687b      	ldr	r3, [r7, #4]
 800175a:	681b      	ldr	r3, [r3, #0]
 800175c:	68fa      	ldr	r2, [r7, #12]
 800175e:	7812      	ldrb	r2, [r2, #0]
 8001760:	4413      	add	r3, r2
 8001762:	f1a3 0237 	sub.w	r2, r3, #55	; 0x37
 8001766:	687b      	ldr	r3, [r7, #4]
 8001768:	601a      	str	r2, [r3, #0]
 800176a:	e013      	b.n	8001794 <parseHex+0x9c>
        } else if ((*line >= 'a') && (*line <= 'f')) {
 800176c:	68fb      	ldr	r3, [r7, #12]
 800176e:	781b      	ldrb	r3, [r3, #0]
 8001770:	2b60      	cmp	r3, #96	; 0x60
 8001772:	d90d      	bls.n	8001790 <parseHex+0x98>
 8001774:	68fb      	ldr	r3, [r7, #12]
 8001776:	781b      	ldrb	r3, [r3, #0]
 8001778:	2b66      	cmp	r3, #102	; 0x66
 800177a:	d809      	bhi.n	8001790 <parseHex+0x98>
           *value += *line - 'a' + 10;
 800177c:	687b      	ldr	r3, [r7, #4]
 800177e:	681b      	ldr	r3, [r3, #0]
 8001780:	68fa      	ldr	r2, [r7, #12]
 8001782:	7812      	ldrb	r2, [r2, #0]
 8001784:	4413      	add	r3, r2
 8001786:	f1a3 0257 	sub.w	r2, r3, #87	; 0x57
 800178a:	687b      	ldr	r3, [r7, #4]
 800178c:	601a      	str	r2, [r3, #0]
 800178e:	e001      	b.n	8001794 <parseHex+0x9c>
        } else return 0;
 8001790:	2300      	movs	r3, #0
 8001792:	e008      	b.n	80017a6 <parseHex+0xae>
        line++;
 8001794:	68fb      	ldr	r3, [r7, #12]
 8001796:	3301      	adds	r3, #1
 8001798:	60fb      	str	r3, [r7, #12]
    while (len--) {
 800179a:	7afb      	ldrb	r3, [r7, #11]
 800179c:	1e5a      	subs	r2, r3, #1
 800179e:	72fa      	strb	r2, [r7, #11]
 80017a0:	2b00      	cmp	r3, #0
 80017a2:	d1b4      	bne.n	800170e <parseHex+0x16>
    }
    return 1;
 80017a4:	2301      	movs	r3, #1
}
 80017a6:	4618      	mov	r0, r3
 80017a8:	3714      	adds	r7, #20
 80017aa:	46bd      	mov	sp, r7
 80017ac:	f85d 7b04 	ldr.w	r7, [sp], #4
 80017b0:	4770      	bx	lr

080017b2 <transmitStd>:
/**
 * @brief  Interprets given line and transmit can message
 * @param  line Line string which contains the transmit command
 * @retval HAL status
 */
static uint8_t transmitStd(uint8_t* line) {
 80017b2:	b580      	push	{r7, lr}
 80017b4:	b088      	sub	sp, #32
 80017b6:	af00      	add	r7, sp, #0
 80017b8:	6078      	str	r0, [r7, #4]
    uint32_t temp;
    open_lin_frame_slot_t slot;
    uint8_t data_buff[8];
    uint8_t offset = 0;
 80017ba:	2300      	movs	r3, #0
 80017bc:	77fb      	strb	r3, [r7, #31]

    bool lin_data = ((line[0] == 't') || (line[0] == 'T'));
 80017be:	687b      	ldr	r3, [r7, #4]
 80017c0:	781b      	ldrb	r3, [r3, #0]
 80017c2:	2b74      	cmp	r3, #116	; 0x74
 80017c4:	d003      	beq.n	80017ce <transmitStd+0x1c>
 80017c6:	687b      	ldr	r3, [r7, #4]
 80017c8:	781b      	ldrb	r3, [r3, #0]
 80017ca:	2b54      	cmp	r3, #84	; 0x54
 80017cc:	d101      	bne.n	80017d2 <transmitStd+0x20>
 80017ce:	2301      	movs	r3, #1
 80017d0:	e000      	b.n	80017d4 <transmitStd+0x22>
 80017d2:	2300      	movs	r3, #0
 80017d4:	777b      	strb	r3, [r7, #29]
 80017d6:	7f7b      	ldrb	r3, [r7, #29]
 80017d8:	f003 0301 	and.w	r3, r3, #1
 80017dc:	777b      	strb	r3, [r7, #29]

    slot.data_ptr = data_buff;
 80017de:	f107 0308 	add.w	r3, r7, #8
 80017e2:	617b      	str	r3, [r7, #20]
    if (line[0] < 'Z')
 80017e4:	687b      	ldr	r3, [r7, #4]
 80017e6:	781b      	ldrb	r3, [r3, #0]
 80017e8:	2b59      	cmp	r3, #89	; 0x59
 80017ea:	d801      	bhi.n	80017f0 <transmitStd+0x3e>
		offset = 5;
 80017ec:	2305      	movs	r3, #5
 80017ee:	77fb      	strb	r3, [r7, #31]
    // id
    if (!parseHex(&line[2 + offset], 2, &temp)) return 0;
 80017f0:	7ffb      	ldrb	r3, [r7, #31]
 80017f2:	3302      	adds	r3, #2
 80017f4:	461a      	mov	r2, r3
 80017f6:	687b      	ldr	r3, [r7, #4]
 80017f8:	4413      	add	r3, r2
 80017fa:	f107 0218 	add.w	r2, r7, #24
 80017fe:	2102      	movs	r1, #2
 8001800:	4618      	mov	r0, r3
 8001802:	f7ff ff79 	bl	80016f8 <parseHex>
 8001806:	4603      	mov	r3, r0
 8001808:	2b00      	cmp	r3, #0
 800180a:	d101      	bne.n	8001810 <transmitStd+0x5e>
 800180c:	2300      	movs	r3, #0
 800180e:	e059      	b.n	80018c4 <transmitStd+0x112>
    	slot.pid = open_lin_data_layer_parity((open_lin_pid_t)temp); // add parity
 8001810:	69bb      	ldr	r3, [r7, #24]
 8001812:	b2db      	uxtb	r3, r3
 8001814:	4618      	mov	r0, r3
 8001816:	f7ff fa0c 	bl	8000c32 <open_lin_data_layer_parity>
 800181a:	4603      	mov	r3, r0
 800181c:	743b      	strb	r3, [r7, #16]
    // len
    if (!parseHex(&line[4 + offset], 1, &temp)) return 0;
 800181e:	7ffb      	ldrb	r3, [r7, #31]
 8001820:	3304      	adds	r3, #4
 8001822:	461a      	mov	r2, r3
 8001824:	687b      	ldr	r3, [r7, #4]
 8001826:	4413      	add	r3, r2
 8001828:	f107 0218 	add.w	r2, r7, #24
 800182c:	2101      	movs	r1, #1
 800182e:	4618      	mov	r0, r3
 8001830:	f7ff ff62 	bl	80016f8 <parseHex>
 8001834:	4603      	mov	r3, r0
 8001836:	2b00      	cmp	r3, #0
 8001838:	d101      	bne.n	800183e <transmitStd+0x8c>
 800183a:	2300      	movs	r3, #0
 800183c:	e042      	b.n	80018c4 <transmitStd+0x112>
    slot.data_length = temp;
 800183e:	69bb      	ldr	r3, [r7, #24]
 8001840:	b2db      	uxtb	r3, r3
 8001842:	74bb      	strb	r3, [r7, #18]

    if (slot.data_length > 8) return 0;
 8001844:	7cbb      	ldrb	r3, [r7, #18]
 8001846:	2b08      	cmp	r3, #8
 8001848:	d901      	bls.n	800184e <transmitStd+0x9c>
 800184a:	2300      	movs	r3, #0
 800184c:	e03a      	b.n	80018c4 <transmitStd+0x112>
    if (lin_data)
 800184e:	7f7b      	ldrb	r3, [r7, #29]
 8001850:	2b00      	cmp	r3, #0
 8001852:	d022      	beq.n	800189a <transmitStd+0xe8>
    {
        uint8_t i;
        for (i = 0; i < slot.data_length; i++) {
 8001854:	2300      	movs	r3, #0
 8001856:	77bb      	strb	r3, [r7, #30]
 8001858:	e01b      	b.n	8001892 <transmitStd+0xe0>
            if (!parseHex(&line[5 + offset + i*2], 2, &temp)) return 0;
 800185a:	7ffb      	ldrb	r3, [r7, #31]
 800185c:	1d5a      	adds	r2, r3, #5
 800185e:	7fbb      	ldrb	r3, [r7, #30]
 8001860:	005b      	lsls	r3, r3, #1
 8001862:	4413      	add	r3, r2
 8001864:	461a      	mov	r2, r3
 8001866:	687b      	ldr	r3, [r7, #4]
 8001868:	4413      	add	r3, r2
 800186a:	f107 0218 	add.w	r2, r7, #24
 800186e:	2102      	movs	r1, #2
 8001870:	4618      	mov	r0, r3
 8001872:	f7ff ff41 	bl	80016f8 <parseHex>
 8001876:	4603      	mov	r3, r0
 8001878:	2b00      	cmp	r3, #0
 800187a:	d101      	bne.n	8001880 <transmitStd+0xce>
 800187c:	2300      	movs	r3, #0
 800187e:	e021      	b.n	80018c4 <transmitStd+0x112>
            slot.data_ptr[i] = temp;
 8001880:	69b9      	ldr	r1, [r7, #24]
 8001882:	697a      	ldr	r2, [r7, #20]
 8001884:	7fbb      	ldrb	r3, [r7, #30]
 8001886:	4413      	add	r3, r2
 8001888:	b2ca      	uxtb	r2, r1
 800188a:	701a      	strb	r2, [r3, #0]
        for (i = 0; i < slot.data_length; i++) {
 800188c:	7fbb      	ldrb	r3, [r7, #30]
 800188e:	3301      	adds	r3, #1
 8001890:	77bb      	strb	r3, [r7, #30]
 8001892:	7cbb      	ldrb	r3, [r7, #18]
 8001894:	7fba      	ldrb	r2, [r7, #30]
 8001896:	429a      	cmp	r2, r3
 8001898:	d3df      	bcc.n	800185a <transmitStd+0xa8>
        }
    }

    if (offset == 0)
 800189a:	7ffb      	ldrb	r3, [r7, #31]
 800189c:	2b00      	cmp	r3, #0
 800189e:	d104      	bne.n	80018aa <transmitStd+0xf8>
    {
    	open_lin_master_data_tx_header(&slot);
 80018a0:	f107 0310 	add.w	r3, r7, #16
 80018a4:	4618      	mov	r0, r3
 80018a6:	f7ff fb87 	bl	8000fb8 <open_lin_master_data_tx_header>
    }
    if (lin_data)
 80018aa:	7f7b      	ldrb	r3, [r7, #29]
 80018ac:	2b00      	cmp	r3, #0
 80018ae:	d004      	beq.n	80018ba <transmitStd+0x108>
    {
    	open_lin_master_data_tx_data(&slot);
 80018b0:	f107 0310 	add.w	r3, r7, #16
 80018b4:	4618      	mov	r0, r3
 80018b6:	f7ff fbc2 	bl	800103e <open_lin_master_data_tx_data>
    }
    /* set data recepcion state machine */
	lin_slcan_skip_header_reception(slot.pid);
 80018ba:	7c3b      	ldrb	r3, [r7, #16]
 80018bc:	4618      	mov	r0, r3
 80018be:	f7fe ffc3 	bl	8000848 <lin_slcan_skip_header_reception>

    return 1;
 80018c2:	2301      	movs	r3, #1
}
 80018c4:	4618      	mov	r0, r3
 80018c6:	3720      	adds	r7, #32
 80018c8:	46bd      	mov	sp, r7
 80018ca:	bd80      	pop	{r7, pc}

080018cc <slCanCheckCommand>:
extern uint32_t lin_baund_rate;

l_u8 classicChecksum = 0;

void slCanCheckCommand()
{
 80018cc:	b580      	push	{r7, lr}
 80018ce:	b084      	sub	sp, #16
 80018d0:	af00      	add	r7, sp, #0
	uint8_t result = SLCAN_BELL;
 80018d2:	2307      	movs	r3, #7
 80018d4:	73fb      	strb	r3, [r7, #15]
	uint8_t *line = command;
 80018d6:	4bd5      	ldr	r3, [pc, #852]	; (8001c2c <slCanCheckCommand+0x360>)
 80018d8:	60bb      	str	r3, [r7, #8]
	uint32_t temp;

    switch (line[0]) {
 80018da:	68bb      	ldr	r3, [r7, #8]
 80018dc:	781b      	ldrb	r3, [r3, #0]
 80018de:	2b76      	cmp	r3, #118	; 0x76
 80018e0:	f200 8229 	bhi.w	8001d36 <slCanCheckCommand+0x46a>
 80018e4:	a201      	add	r2, pc, #4	; (adr r2, 80018ec <slCanCheckCommand+0x20>)
 80018e6:	f852 f023 	ldr.w	pc, [r2, r3, lsl #2]
 80018ea:	bf00      	nop
 80018ec:	08001d65 	.word	0x08001d65
 80018f0:	08001d37 	.word	0x08001d37
 80018f4:	08001d37 	.word	0x08001d37
 80018f8:	08001d37 	.word	0x08001d37
 80018fc:	08001d37 	.word	0x08001d37
 8001900:	08001d37 	.word	0x08001d37
 8001904:	08001d37 	.word	0x08001d37
 8001908:	08001d37 	.word	0x08001d37
 800190c:	08001d37 	.word	0x08001d37
 8001910:	08001d37 	.word	0x08001d37
 8001914:	08001d37 	.word	0x08001d37
 8001918:	08001d37 	.word	0x08001d37
 800191c:	08001d37 	.word	0x08001d37
 8001920:	08001d37 	.word	0x08001d37
 8001924:	08001d37 	.word	0x08001d37
 8001928:	08001d37 	.word	0x08001d37
 800192c:	08001d37 	.word	0x08001d37
 8001930:	08001d37 	.word	0x08001d37
 8001934:	08001d37 	.word	0x08001d37
 8001938:	08001d37 	.word	0x08001d37
 800193c:	08001d37 	.word	0x08001d37
 8001940:	08001d37 	.word	0x08001d37
 8001944:	08001d37 	.word	0x08001d37
 8001948:	08001d37 	.word	0x08001d37
 800194c:	08001d37 	.word	0x08001d37
 8001950:	08001d37 	.word	0x08001d37
 8001954:	08001d37 	.word	0x08001d37
 8001958:	08001d37 	.word	0x08001d37
 800195c:	08001d37 	.word	0x08001d37
 8001960:	08001d37 	.word	0x08001d37
 8001964:	08001d37 	.word	0x08001d37
 8001968:	08001d37 	.word	0x08001d37
 800196c:	08001d37 	.word	0x08001d37
 8001970:	08001d37 	.word	0x08001d37
 8001974:	08001d37 	.word	0x08001d37
 8001978:	08001d37 	.word	0x08001d37
 800197c:	08001d37 	.word	0x08001d37
 8001980:	08001d37 	.word	0x08001d37
 8001984:	08001d37 	.word	0x08001d37
 8001988:	08001d37 	.word	0x08001d37
 800198c:	08001d37 	.word	0x08001d37
 8001990:	08001d37 	.word	0x08001d37
 8001994:	08001d37 	.word	0x08001d37
 8001998:	08001d37 	.word	0x08001d37
 800199c:	08001d37 	.word	0x08001d37
 80019a0:	08001d37 	.word	0x08001d37
 80019a4:	08001d37 	.word	0x08001d37
 80019a8:	08001d37 	.word	0x08001d37
 80019ac:	08001d37 	.word	0x08001d37
 80019b0:	08001d37 	.word	0x08001d37
 80019b4:	08001d37 	.word	0x08001d37
 80019b8:	08001d37 	.word	0x08001d37
 80019bc:	08001d37 	.word	0x08001d37
 80019c0:	08001d37 	.word	0x08001d37
 80019c4:	08001d37 	.word	0x08001d37
 80019c8:	08001d37 	.word	0x08001d37
 80019cc:	08001d37 	.word	0x08001d37
 80019d0:	08001d37 	.word	0x08001d37
 80019d4:	08001d37 	.word	0x08001d37
 80019d8:	08001d37 	.word	0x08001d37
 80019dc:	08001d37 	.word	0x08001d37
 80019e0:	08001d37 	.word	0x08001d37
 80019e4:	08001d37 	.word	0x08001d37
 80019e8:	08001d37 	.word	0x08001d37
 80019ec:	08001d37 	.word	0x08001d37
 80019f0:	08001d37 	.word	0x08001d37
 80019f4:	08001d37 	.word	0x08001d37
 80019f8:	08001c45 	.word	0x08001c45
 80019fc:	08001d37 	.word	0x08001d37
 8001a00:	08001d37 	.word	0x08001d37
 8001a04:	08001b4d 	.word	0x08001b4d
 8001a08:	08001ae7 	.word	0x08001ae7
 8001a0c:	08001d37 	.word	0x08001d37
 8001a10:	08001d37 	.word	0x08001d37
 8001a14:	08001d37 	.word	0x08001d37
 8001a18:	08001d37 	.word	0x08001d37
 8001a1c:	08001bdf 	.word	0x08001bdf
 8001a20:	08001d37 	.word	0x08001d37
 8001a24:	08001b83 	.word	0x08001b83
 8001a28:	08001bc7 	.word	0x08001bc7
 8001a2c:	08001d37 	.word	0x08001d37
 8001a30:	08001d37 	.word	0x08001d37
 8001a34:	08001c59 	.word	0x08001c59
 8001a38:	08001ae7 	.word	0x08001ae7
 8001a3c:	08001c59 	.word	0x08001c59
 8001a40:	08001d37 	.word	0x08001d37
 8001a44:	08001b55 	.word	0x08001b55
 8001a48:	08001ae7 	.word	0x08001ae7
 8001a4c:	08001d37 	.word	0x08001d37
 8001a50:	08001d37 	.word	0x08001d37
 8001a54:	08001d37 	.word	0x08001d37
 8001a58:	08001d37 	.word	0x08001d37
 8001a5c:	08001d37 	.word	0x08001d37
 8001a60:	08001d37 	.word	0x08001d37
 8001a64:	08001d37 	.word	0x08001d37
 8001a68:	08001d37 	.word	0x08001d37
 8001a6c:	08001d37 	.word	0x08001d37
 8001a70:	08001ac9 	.word	0x08001ac9
 8001a74:	08001d37 	.word	0x08001d37
 8001a78:	08001d37 	.word	0x08001d37
 8001a7c:	08001d37 	.word	0x08001d37
 8001a80:	08001d37 	.word	0x08001d37
 8001a84:	08001d37 	.word	0x08001d37
 8001a88:	08001d37 	.word	0x08001d37
 8001a8c:	08001d37 	.word	0x08001d37
 8001a90:	08001d37 	.word	0x08001d37
 8001a94:	08001d37 	.word	0x08001d37
 8001a98:	08001d37 	.word	0x08001d37
 8001a9c:	08001c05 	.word	0x08001c05
 8001aa0:	08001d37 	.word	0x08001d37
 8001aa4:	08001d37 	.word	0x08001d37
 8001aa8:	08001bc7 	.word	0x08001bc7
 8001aac:	08001d37 	.word	0x08001d37
 8001ab0:	08001d37 	.word	0x08001d37
 8001ab4:	08001c59 	.word	0x08001c59
 8001ab8:	08001ae7 	.word	0x08001ae7
 8001abc:	08001c59 	.word	0x08001c59
 8001ac0:	08001d37 	.word	0x08001d37
 8001ac4:	08001b69 	.word	0x08001b69
    	case 0:
    		return;
    	case 'a':
    	{
    		if (terminator == SLCAN_CR)
 8001ac8:	4b59      	ldr	r3, [pc, #356]	; (8001c30 <slCanCheckCommand+0x364>)
 8001aca:	781b      	ldrb	r3, [r3, #0]
 8001acc:	2b0d      	cmp	r3, #13
 8001ace:	d103      	bne.n	8001ad8 <slCanCheckCommand+0x20c>
    			terminator = SLCAN_LR;
 8001ad0:	4b57      	ldr	r3, [pc, #348]	; (8001c30 <slCanCheckCommand+0x364>)
 8001ad2:	220a      	movs	r2, #10
 8001ad4:	701a      	strb	r2, [r3, #0]
 8001ad6:	e002      	b.n	8001ade <slCanCheckCommand+0x212>
    		else
    			terminator = SLCAN_CR;
 8001ad8:	4b55      	ldr	r3, [pc, #340]	; (8001c30 <slCanCheckCommand+0x364>)
 8001ada:	220d      	movs	r2, #13
 8001adc:	701a      	strb	r2, [r3, #0]
    		result = terminator;
 8001ade:	4b54      	ldr	r3, [pc, #336]	; (8001c30 <slCanCheckCommand+0x364>)
 8001ae0:	781b      	ldrb	r3, [r3, #0]
 8001ae2:	73fb      	strb	r3, [r7, #15]
    		break;
 8001ae4:	e127      	b.n	8001d36 <slCanCheckCommand+0x46a>
    	}
        case 'S':
        case 'G':
        case 'W':
        case 's':
        	if (line[1] == '0' && line[2] == 'x')
 8001ae6:	68bb      	ldr	r3, [r7, #8]
 8001ae8:	3301      	adds	r3, #1
 8001aea:	781b      	ldrb	r3, [r3, #0]
 8001aec:	2b30      	cmp	r3, #48	; 0x30
 8001aee:	d10f      	bne.n	8001b10 <slCanCheckCommand+0x244>
 8001af0:	68bb      	ldr	r3, [r7, #8]
 8001af2:	3302      	adds	r3, #2
 8001af4:	781b      	ldrb	r3, [r3, #0]
 8001af6:	2b78      	cmp	r3, #120	; 0x78
 8001af8:	d10a      	bne.n	8001b10 <slCanCheckCommand+0x244>
        	{
                uint32_t temp;
                parseHex(&line[3], 4, &temp);
 8001afa:	68bb      	ldr	r3, [r7, #8]
 8001afc:	3303      	adds	r3, #3
 8001afe:	463a      	mov	r2, r7
 8001b00:	2104      	movs	r1, #4
 8001b02:	4618      	mov	r0, r3
 8001b04:	f7ff fdf8 	bl	80016f8 <parseHex>
                lin_baund_rate = temp;
 8001b08:	683b      	ldr	r3, [r7, #0]
 8001b0a:	4a4a      	ldr	r2, [pc, #296]	; (8001c34 <slCanCheckCommand+0x368>)
 8001b0c:	6013      	str	r3, [r2, #0]
        	{
 8001b0e:	e00d      	b.n	8001b2c <slCanCheckCommand+0x260>
        	}
        	else if (line[1] == '2')
 8001b10:	68bb      	ldr	r3, [r7, #8]
 8001b12:	3301      	adds	r3, #1
 8001b14:	781b      	ldrb	r3, [r3, #0]
 8001b16:	2b32      	cmp	r3, #50	; 0x32
 8001b18:	d104      	bne.n	8001b24 <slCanCheckCommand+0x258>
        	{
        		lin_baund_rate = 9600;
 8001b1a:	4b46      	ldr	r3, [pc, #280]	; (8001c34 <slCanCheckCommand+0x368>)
 8001b1c:	f44f 5216 	mov.w	r2, #9600	; 0x2580
 8001b20:	601a      	str	r2, [r3, #0]
 8001b22:	e003      	b.n	8001b2c <slCanCheckCommand+0x260>
        	} else
        	{
        		lin_baund_rate = 19200;
 8001b24:	4b43      	ldr	r3, [pc, #268]	; (8001c34 <slCanCheckCommand+0x368>)
 8001b26:	f44f 4296 	mov.w	r2, #19200	; 0x4b00
 8001b2a:	601a      	str	r2, [r3, #0]

        	}
        	MX_USART1_UART_Init();
 8001b2c:	f7fe fff0 	bl	8000b10 <MX_USART1_UART_Init>
        	open_lin_hw_reset();
 8001b30:	f7ff f95a 	bl	8000de8 <open_lin_hw_reset>
        	slcanSetOutputChar('V');
 8001b34:	2056      	movs	r0, #86	; 0x56
 8001b36:	f7ff fd1f 	bl	8001578 <slcanSetOutputChar>
        	slcanSetOutputAsHex(temp);
 8001b3a:	687b      	ldr	r3, [r7, #4]
 8001b3c:	b2db      	uxtb	r3, r3
 8001b3e:	4618      	mov	r0, r3
 8001b40:	f7ff fd52 	bl	80015e8 <slcanSetOutputAsHex>
        	result = terminator;
 8001b44:	4b3a      	ldr	r3, [pc, #232]	; (8001c30 <slCanCheckCommand+0x364>)
 8001b46:	781b      	ldrb	r3, [r3, #0]
 8001b48:	73fb      	strb	r3, [r7, #15]
        	break;
 8001b4a:	e0f4      	b.n	8001d36 <slCanCheckCommand+0x46a>
        case 'F': // Read status flags
      		result = terminator;
 8001b4c:	4b38      	ldr	r3, [pc, #224]	; (8001c30 <slCanCheckCommand+0x364>)
 8001b4e:	781b      	ldrb	r3, [r3, #0]
 8001b50:	73fb      	strb	r3, [r7, #15]
            break;
 8001b52:	e0f0      	b.n	8001d36 <slCanCheckCommand+0x46a>
        case 'V': // Get hardware version
            {
                slcanSetOutputChar('V');
 8001b54:	2056      	movs	r0, #86	; 0x56
 8001b56:	f7ff fd0f 	bl	8001578 <slcanSetOutputChar>
//                slcanSetOutputAsHex(VERSION_HARDWARE_MAJOR);
                slcanSetOutputAsHex(VERSION_HARDWARE_MINOR);
 8001b5a:	2001      	movs	r0, #1
 8001b5c:	f7ff fd44 	bl	80015e8 <slcanSetOutputAsHex>
                result = terminator;
 8001b60:	4b33      	ldr	r3, [pc, #204]	; (8001c30 <slCanCheckCommand+0x364>)
 8001b62:	781b      	ldrb	r3, [r3, #0]
 8001b64:	73fb      	strb	r3, [r7, #15]
            }
            break;
 8001b66:	e0e6      	b.n	8001d36 <slCanCheckCommand+0x46a>
        case 'v': // Get firmware version
            {
                slcanSetOutputChar('v');
 8001b68:	2076      	movs	r0, #118	; 0x76
 8001b6a:	f7ff fd05 	bl	8001578 <slcanSetOutputChar>
                slcanSetOutputAsHex(VERSION_FIRMWARE_MAJOR);
 8001b6e:	2003      	movs	r0, #3
 8001b70:	f7ff fd3a 	bl	80015e8 <slcanSetOutputAsHex>
                slcanSetOutputAsHex(VERSION_FIRMWARE_MINOR);
 8001b74:	2001      	movs	r0, #1
 8001b76:	f7ff fd37 	bl	80015e8 <slcanSetOutputAsHex>
                result = terminator;
 8001b7a:	4b2d      	ldr	r3, [pc, #180]	; (8001c30 <slCanCheckCommand+0x364>)
 8001b7c:	781b      	ldrb	r3, [r3, #0]
 8001b7e:	73fb      	strb	r3, [r7, #15]
            }
            break;
 8001b80:	e0d9      	b.n	8001d36 <slCanCheckCommand+0x46a>
        case 'N': // Get serial number
            {

                slcanSetOutputChar('N');
 8001b82:	204e      	movs	r0, #78	; 0x4e
 8001b84:	f7ff fcf8 	bl	8001578 <slcanSetOutputChar>
                slcanSetOutputAsHex((uint8_t)(serialNumber));
 8001b88:	4b2b      	ldr	r3, [pc, #172]	; (8001c38 <slCanCheckCommand+0x36c>)
 8001b8a:	681b      	ldr	r3, [r3, #0]
 8001b8c:	b2db      	uxtb	r3, r3
 8001b8e:	4618      	mov	r0, r3
 8001b90:	f7ff fd2a 	bl	80015e8 <slcanSetOutputAsHex>
                slcanSetOutputAsHex((uint8_t)(serialNumber>>8));
 8001b94:	4b28      	ldr	r3, [pc, #160]	; (8001c38 <slCanCheckCommand+0x36c>)
 8001b96:	681b      	ldr	r3, [r3, #0]
 8001b98:	121b      	asrs	r3, r3, #8
 8001b9a:	b2db      	uxtb	r3, r3
 8001b9c:	4618      	mov	r0, r3
 8001b9e:	f7ff fd23 	bl	80015e8 <slcanSetOutputAsHex>
                slcanSetOutputAsHex((uint8_t)(serialNumber>>16));
 8001ba2:	4b25      	ldr	r3, [pc, #148]	; (8001c38 <slCanCheckCommand+0x36c>)
 8001ba4:	681b      	ldr	r3, [r3, #0]
 8001ba6:	141b      	asrs	r3, r3, #16
 8001ba8:	b2db      	uxtb	r3, r3
 8001baa:	4618      	mov	r0, r3
 8001bac:	f7ff fd1c 	bl	80015e8 <slcanSetOutputAsHex>
                slcanSetOutputAsHex((uint8_t)(serialNumber>>24));
 8001bb0:	4b21      	ldr	r3, [pc, #132]	; (8001c38 <slCanCheckCommand+0x36c>)
 8001bb2:	681b      	ldr	r3, [r3, #0]
 8001bb4:	161b      	asrs	r3, r3, #24
 8001bb6:	b2db      	uxtb	r3, r3
 8001bb8:	4618      	mov	r0, r3
 8001bba:	f7ff fd15 	bl	80015e8 <slcanSetOutputAsHex>
                result = terminator;
 8001bbe:	4b1c      	ldr	r3, [pc, #112]	; (8001c30 <slCanCheckCommand+0x364>)
 8001bc0:	781b      	ldrb	r3, [r3, #0]
 8001bc2:	73fb      	strb	r3, [r7, #15]
            }
            break;
 8001bc4:	e0b7      	b.n	8001d36 <slCanCheckCommand+0x46a>
        case 'o':  // master mode
        case 'O':
            if (slcan_state == SLCAN_STATE_CONFIG)
 8001bc6:	4b1d      	ldr	r3, [pc, #116]	; (8001c3c <slCanCheckCommand+0x370>)
 8001bc8:	781b      	ldrb	r3, [r3, #0]
 8001bca:	2b00      	cmp	r3, #0
 8001bcc:	f040 80ae 	bne.w	8001d2c <slCanCheckCommand+0x460>
            {
                lin_type = LIN_MASTER;
 8001bd0:	4b1b      	ldr	r3, [pc, #108]	; (8001c40 <slCanCheckCommand+0x374>)
 8001bd2:	2200      	movs	r2, #0
 8001bd4:	701a      	strb	r2, [r3, #0]
                result = terminator;
 8001bd6:	4b16      	ldr	r3, [pc, #88]	; (8001c30 <slCanCheckCommand+0x364>)
 8001bd8:	781b      	ldrb	r3, [r3, #0]
 8001bda:	73fb      	strb	r3, [r7, #15]
            }
            break;
 8001bdc:	e0a6      	b.n	8001d2c <slCanCheckCommand+0x460>
        case 'L': // slave mode
        	 if (slcan_state == SLCAN_STATE_CONFIG){
 8001bde:	4b17      	ldr	r3, [pc, #92]	; (8001c3c <slCanCheckCommand+0x370>)
 8001be0:	781b      	ldrb	r3, [r3, #0]
 8001be2:	2b00      	cmp	r3, #0
 8001be4:	f040 80a4 	bne.w	8001d30 <slCanCheckCommand+0x464>
        		 result = terminator;
 8001be8:	4b11      	ldr	r3, [pc, #68]	; (8001c30 <slCanCheckCommand+0x364>)
 8001bea:	781b      	ldrb	r3, [r3, #0]
 8001bec:	73fb      	strb	r3, [r7, #15]
				 lin_type = LIN_SLAVE;
 8001bee:	4b14      	ldr	r3, [pc, #80]	; (8001c40 <slCanCheckCommand+0x374>)
 8001bf0:	2202      	movs	r2, #2
 8001bf2:	701a      	strb	r2, [r3, #0]
				 slcan_state = SLCAN_STATE_OPEN;
 8001bf4:	4b11      	ldr	r3, [pc, #68]	; (8001c3c <slCanCheckCommand+0x370>)
 8001bf6:	2202      	movs	r2, #2
 8001bf8:	701a      	strb	r2, [r3, #0]
				 open_lin_hw_reset();
 8001bfa:	f7ff f8f5 	bl	8000de8 <open_lin_hw_reset>
				 lin_slcan_reset();
 8001bfe:	f7fe fdab 	bl	8000758 <lin_slcan_reset>
        	 }
        	 break;
 8001c02:	e095      	b.n	8001d30 <slCanCheckCommand+0x464>
        case 'l':  // monitor
            if (slcan_state == SLCAN_STATE_CONFIG)
 8001c04:	4b0d      	ldr	r3, [pc, #52]	; (8001c3c <slCanCheckCommand+0x370>)
 8001c06:	781b      	ldrb	r3, [r3, #0]
 8001c08:	2b00      	cmp	r3, #0
 8001c0a:	f040 8093 	bne.w	8001d34 <slCanCheckCommand+0x468>
            {
				result = terminator;
 8001c0e:	4b08      	ldr	r3, [pc, #32]	; (8001c30 <slCanCheckCommand+0x364>)
 8001c10:	781b      	ldrb	r3, [r3, #0]
 8001c12:	73fb      	strb	r3, [r7, #15]
                lin_type = LIN_MONITOR;
 8001c14:	4b0a      	ldr	r3, [pc, #40]	; (8001c40 <slCanCheckCommand+0x374>)
 8001c16:	2201      	movs	r2, #1
 8001c18:	701a      	strb	r2, [r3, #0]
                slcan_state = SLCAN_STATE_OPEN;
 8001c1a:	4b08      	ldr	r3, [pc, #32]	; (8001c3c <slCanCheckCommand+0x370>)
 8001c1c:	2202      	movs	r2, #2
 8001c1e:	701a      	strb	r2, [r3, #0]
            	open_lin_hw_reset();
 8001c20:	f7ff f8e2 	bl	8000de8 <open_lin_hw_reset>
            	lin_slcan_reset();
 8001c24:	f7fe fd98 	bl	8000758 <lin_slcan_reset>
            }
            break;
 8001c28:	e084      	b.n	8001d34 <slCanCheckCommand+0x468>
 8001c2a:	bf00      	nop
 8001c2c:	20000268 	.word	0x20000268
 8001c30:	20000009 	.word	0x20000009
 8001c34:	20000004 	.word	0x20000004
 8001c38:	2000022c 	.word	0x2000022c
 8001c3c:	20000264 	.word	0x20000264
 8001c40:	20000008 	.word	0x20000008

        case 'C': // Close LIN channel
            slcan_state = SLCAN_STATE_CONFIG;
 8001c44:	4b49      	ldr	r3, [pc, #292]	; (8001d6c <slCanCheckCommand+0x4a0>)
 8001c46:	2200      	movs	r2, #0
 8001c48:	701a      	strb	r2, [r3, #0]
            result = terminator;
 8001c4a:	4b49      	ldr	r3, [pc, #292]	; (8001d70 <slCanCheckCommand+0x4a4>)
 8001c4c:	781b      	ldrb	r3, [r3, #0]
 8001c4e:	73fb      	strb	r3, [r7, #15]
            lin_type = LIN_MASTER;
 8001c50:	4b48      	ldr	r3, [pc, #288]	; (8001d74 <slCanCheckCommand+0x4a8>)
 8001c52:	2200      	movs	r2, #0
 8001c54:	701a      	strb	r2, [r3, #0]
            break;
 8001c56:	e06e      	b.n	8001d36 <slCanCheckCommand+0x46a>
        case 'R':
        case 'r': // Transmit header
        case 'T':
        case 't': // Transmit full frame
            // shame on you that you put this code here ...
        	if (line[1] == '3')
 8001c58:	68bb      	ldr	r3, [r7, #8]
 8001c5a:	3301      	adds	r3, #1
 8001c5c:	781b      	ldrb	r3, [r3, #0]
 8001c5e:	2b33      	cmp	r3, #51	; 0x33
 8001c60:	d112      	bne.n	8001c88 <slCanCheckCommand+0x3bc>
			{
				if (line[2] == '1')
 8001c62:	68bb      	ldr	r3, [r7, #8]
 8001c64:	3302      	adds	r3, #2
 8001c66:	781b      	ldrb	r3, [r3, #0]
 8001c68:	2b31      	cmp	r3, #49	; 0x31
 8001c6a:	d103      	bne.n	8001c74 <slCanCheckCommand+0x3a8>
					classicChecksum  = 1;
 8001c6c:	4b42      	ldr	r3, [pc, #264]	; (8001d78 <slCanCheckCommand+0x4ac>)
 8001c6e:	2201      	movs	r2, #1
 8001c70:	701a      	strb	r2, [r3, #0]
 8001c72:	e002      	b.n	8001c7a <slCanCheckCommand+0x3ae>
				else
					classicChecksum  = 0;
 8001c74:	4b40      	ldr	r3, [pc, #256]	; (8001d78 <slCanCheckCommand+0x4ac>)
 8001c76:	2200      	movs	r2, #0
 8001c78:	701a      	strb	r2, [r3, #0]
				 slcanSetOutputChar('Z');
 8001c7a:	205a      	movs	r0, #90	; 0x5a
 8001c7c:	f7ff fc7c 	bl	8001578 <slcanSetOutputChar>
				result = terminator;
 8001c80:	4b3b      	ldr	r3, [pc, #236]	; (8001d70 <slCanCheckCommand+0x4a4>)
 8001c82:	781b      	ldrb	r3, [r3, #0]
 8001c84:	73fb      	strb	r3, [r7, #15]
				break;
 8001c86:	e056      	b.n	8001d36 <slCanCheckCommand+0x46a>
			}

            // baud rate selection
            if (line[2] == '4')
 8001c88:	68bb      	ldr	r3, [r7, #8]
 8001c8a:	3302      	adds	r3, #2
 8001c8c:	781b      	ldrb	r3, [r3, #0]
 8001c8e:	2b34      	cmp	r3, #52	; 0x34
 8001c90:	d114      	bne.n	8001cbc <slCanCheckCommand+0x3f0>
            {
//        		uint32_t temp;
        		parseHex(&line[3], 4, &temp);
 8001c92:	68bb      	ldr	r3, [r7, #8]
 8001c94:	3303      	adds	r3, #3
 8001c96:	1d3a      	adds	r2, r7, #4
 8001c98:	2104      	movs	r1, #4
 8001c9a:	4618      	mov	r0, r3
 8001c9c:	f7ff fd2c 	bl	80016f8 <parseHex>
        		lin_baund_rate = temp;
 8001ca0:	687b      	ldr	r3, [r7, #4]
 8001ca2:	4a36      	ldr	r2, [pc, #216]	; (8001d7c <slCanCheckCommand+0x4b0>)
 8001ca4:	6013      	str	r3, [r2, #0]
        		MX_USART1_UART_Init();
 8001ca6:	f7fe ff33 	bl	8000b10 <MX_USART1_UART_Init>
        		open_lin_hw_reset();
 8001caa:	f7ff f89d 	bl	8000de8 <open_lin_hw_reset>
        		 slcanSetOutputChar('Z');
 8001cae:	205a      	movs	r0, #90	; 0x5a
 8001cb0:	f7ff fc62 	bl	8001578 <slcanSetOutputChar>
        		result = terminator;
 8001cb4:	4b2e      	ldr	r3, [pc, #184]	; (8001d70 <slCanCheckCommand+0x4a4>)
 8001cb6:	781b      	ldrb	r3, [r3, #0]
 8001cb8:	73fb      	strb	r3, [r7, #15]
        		break;
 8001cba:	e03c      	b.n	8001d36 <slCanCheckCommand+0x46a>
            }


        	switch (lin_type)
 8001cbc:	4b2d      	ldr	r3, [pc, #180]	; (8001d74 <slCanCheckCommand+0x4a8>)
 8001cbe:	781b      	ldrb	r3, [r3, #0]
 8001cc0:	2b01      	cmp	r3, #1
 8001cc2:	d019      	beq.n	8001cf8 <slCanCheckCommand+0x42c>
 8001cc4:	2b02      	cmp	r3, #2
 8001cc6:	d002      	beq.n	8001cce <slCanCheckCommand+0x402>
 8001cc8:	2b00      	cmp	r3, #0
 8001cca:	d000      	beq.n	8001cce <slCanCheckCommand+0x402>
	                        result = terminator;
	                    }
	                }
					break;
				default:
					break;
 8001ccc:	e02d      	b.n	8001d2a <slCanCheckCommand+0x45e>
	                if (addLinMasterRow(line) == 1){
 8001cce:	68b8      	ldr	r0, [r7, #8]
 8001cd0:	f7fe fc30 	bl	8000534 <addLinMasterRow>
 8001cd4:	4603      	mov	r3, r0
 8001cd6:	2b01      	cmp	r3, #1
 8001cd8:	d10a      	bne.n	8001cf0 <slCanCheckCommand+0x424>
	                	if (line[0] < 'Z') slcanSetOutputChar('Z');
 8001cda:	68bb      	ldr	r3, [r7, #8]
 8001cdc:	781b      	ldrb	r3, [r3, #0]
 8001cde:	2b59      	cmp	r3, #89	; 0x59
 8001ce0:	d803      	bhi.n	8001cea <slCanCheckCommand+0x41e>
 8001ce2:	205a      	movs	r0, #90	; 0x5a
 8001ce4:	f7ff fc48 	bl	8001578 <slcanSetOutputChar>
 8001ce8:	e002      	b.n	8001cf0 <slCanCheckCommand+0x424>
	                	else slcanSetOutputChar('z');
 8001cea:	207a      	movs	r0, #122	; 0x7a
 8001cec:	f7ff fc44 	bl	8001578 <slcanSetOutputChar>
	                result = terminator;
 8001cf0:	4b1f      	ldr	r3, [pc, #124]	; (8001d70 <slCanCheckCommand+0x4a4>)
 8001cf2:	781b      	ldrb	r3, [r3, #0]
 8001cf4:	73fb      	strb	r3, [r7, #15]
					break;
 8001cf6:	e018      	b.n	8001d2a <slCanCheckCommand+0x45e>
	                if (slcan_state == SLCAN_STATE_OPEN)
 8001cf8:	4b1c      	ldr	r3, [pc, #112]	; (8001d6c <slCanCheckCommand+0x4a0>)
 8001cfa:	781b      	ldrb	r3, [r3, #0]
 8001cfc:	2b02      	cmp	r3, #2
 8001cfe:	d113      	bne.n	8001d28 <slCanCheckCommand+0x45c>
	                    if (transmitStd(line) == 1) {
 8001d00:	68b8      	ldr	r0, [r7, #8]
 8001d02:	f7ff fd56 	bl	80017b2 <transmitStd>
 8001d06:	4603      	mov	r3, r0
 8001d08:	2b01      	cmp	r3, #1
 8001d0a:	d10d      	bne.n	8001d28 <slCanCheckCommand+0x45c>
	                        if (line[0] < 'Z') slcanSetOutputChar('Z');
 8001d0c:	68bb      	ldr	r3, [r7, #8]
 8001d0e:	781b      	ldrb	r3, [r3, #0]
 8001d10:	2b59      	cmp	r3, #89	; 0x59
 8001d12:	d803      	bhi.n	8001d1c <slCanCheckCommand+0x450>
 8001d14:	205a      	movs	r0, #90	; 0x5a
 8001d16:	f7ff fc2f 	bl	8001578 <slcanSetOutputChar>
 8001d1a:	e002      	b.n	8001d22 <slCanCheckCommand+0x456>
	                        else slcanSetOutputChar('z');
 8001d1c:	207a      	movs	r0, #122	; 0x7a
 8001d1e:	f7ff fc2b 	bl	8001578 <slcanSetOutputChar>
	                        result = terminator;
 8001d22:	4b13      	ldr	r3, [pc, #76]	; (8001d70 <slCanCheckCommand+0x4a4>)
 8001d24:	781b      	ldrb	r3, [r3, #0]
 8001d26:	73fb      	strb	r3, [r7, #15]
					break;
 8001d28:	bf00      	nop
        	}
            break;
 8001d2a:	e004      	b.n	8001d36 <slCanCheckCommand+0x46a>
            break;
 8001d2c:	bf00      	nop
 8001d2e:	e002      	b.n	8001d36 <slCanCheckCommand+0x46a>
        	 break;
 8001d30:	bf00      	nop
 8001d32:	e000      	b.n	8001d36 <slCanCheckCommand+0x46a>
            break;
 8001d34:	bf00      	nop
    }

    if ((line[0] == 'b') && (line[1] == 'o') && (line[2] == 'o') && (line[3] == 't'))
 8001d36:	68bb      	ldr	r3, [r7, #8]
 8001d38:	781b      	ldrb	r3, [r3, #0]
 8001d3a:	2b62      	cmp	r3, #98	; 0x62
 8001d3c:	d108      	bne.n	8001d50 <slCanCheckCommand+0x484>
 8001d3e:	68bb      	ldr	r3, [r7, #8]
 8001d40:	3301      	adds	r3, #1
 8001d42:	781b      	ldrb	r3, [r3, #0]
 8001d44:	2b6f      	cmp	r3, #111	; 0x6f
 8001d46:	d103      	bne.n	8001d50 <slCanCheckCommand+0x484>
 8001d48:	68bb      	ldr	r3, [r7, #8]
 8001d4a:	3302      	adds	r3, #2
 8001d4c:	781b      	ldrb	r3, [r3, #0]
 8001d4e:	2b6f      	cmp	r3, #111	; 0x6f
    {
//    	RebootToBootloader();
    }

   line[0] = 0;
 8001d50:	68bb      	ldr	r3, [r7, #8]
 8001d52:	2200      	movs	r2, #0
 8001d54:	701a      	strb	r2, [r3, #0]
   slcanSetOutputChar(result);
 8001d56:	7bfb      	ldrb	r3, [r7, #15]
 8001d58:	4618      	mov	r0, r3
 8001d5a:	f7ff fc0d 	bl	8001578 <slcanSetOutputChar>
   slcanOutputFlush();
 8001d5e:	f7ff fc59 	bl	8001614 <slcanOutputFlush>
 8001d62:	e000      	b.n	8001d66 <slCanCheckCommand+0x49a>
    		return;
 8001d64:	bf00      	nop
}
 8001d66:	3710      	adds	r7, #16
 8001d68:	46bd      	mov	sp, r7
 8001d6a:	bd80      	pop	{r7, pc}
 8001d6c:	20000264 	.word	0x20000264
 8001d70:	20000009 	.word	0x20000009
 8001d74:	20000008 	.word	0x20000008
 8001d78:	200002a6 	.word	0x200002a6
 8001d7c:	20000004 	.word	0x20000004

08001d80 <slcanReciveCanFrame>:
 * @param  canmsg Pointer to can message
 * 			step Current step
 * @retval Next character to print out
 */
uint8_t slcanReciveCanFrame(open_lin_frame_slot_t *pRxMsg)
{
 8001d80:	b580      	push	{r7, lr}
 8001d82:	b084      	sub	sp, #16
 8001d84:	af00      	add	r7, sp, #0
 8001d86:	6078      	str	r0, [r7, #4]
	uint8_t i;
	open_lin_pid_t pid;

    slcanSetOutputChar('t');
 8001d88:	2074      	movs	r0, #116	; 0x74
 8001d8a:	f7ff fbf5 	bl	8001578 <slcanSetOutputChar>

    pid = pRxMsg->pid & 0x3F;
 8001d8e:	687b      	ldr	r3, [r7, #4]
 8001d90:	781b      	ldrb	r3, [r3, #0]
 8001d92:	f003 033f 	and.w	r3, r3, #63	; 0x3f
 8001d96:	73bb      	strb	r3, [r7, #14]

    slCanSendNibble(0); // for slcan compatibility
 8001d98:	2000      	movs	r0, #0
 8001d9a:	f7ff fc0d 	bl	80015b8 <slCanSendNibble>
    slcanSetOutputAsHex(pid);
 8001d9e:	7bbb      	ldrb	r3, [r7, #14]
 8001da0:	4618      	mov	r0, r3
 8001da2:	f7ff fc21 	bl	80015e8 <slcanSetOutputAsHex>
	slCanSendNibble(pRxMsg->data_length);
 8001da6:	687b      	ldr	r3, [r7, #4]
 8001da8:	789b      	ldrb	r3, [r3, #2]
 8001daa:	4618      	mov	r0, r3
 8001dac:	f7ff fc04 	bl	80015b8 <slCanSendNibble>
	if (pRxMsg->data_length > 0)
 8001db0:	687b      	ldr	r3, [r7, #4]
 8001db2:	789b      	ldrb	r3, [r3, #2]
 8001db4:	2b00      	cmp	r3, #0
 8001db6:	d012      	beq.n	8001dde <slcanReciveCanFrame+0x5e>
	{
		for (i = 0;  i != pRxMsg->data_length; i ++)
 8001db8:	2300      	movs	r3, #0
 8001dba:	73fb      	strb	r3, [r7, #15]
 8001dbc:	e00a      	b.n	8001dd4 <slcanReciveCanFrame+0x54>
		{
			slcanSetOutputAsHex(pRxMsg->data_ptr[i]);
 8001dbe:	687b      	ldr	r3, [r7, #4]
 8001dc0:	685a      	ldr	r2, [r3, #4]
 8001dc2:	7bfb      	ldrb	r3, [r7, #15]
 8001dc4:	4413      	add	r3, r2
 8001dc6:	781b      	ldrb	r3, [r3, #0]
 8001dc8:	4618      	mov	r0, r3
 8001dca:	f7ff fc0d 	bl	80015e8 <slcanSetOutputAsHex>
		for (i = 0;  i != pRxMsg->data_length; i ++)
 8001dce:	7bfb      	ldrb	r3, [r7, #15]
 8001dd0:	3301      	adds	r3, #1
 8001dd2:	73fb      	strb	r3, [r7, #15]
 8001dd4:	687b      	ldr	r3, [r7, #4]
 8001dd6:	789b      	ldrb	r3, [r3, #2]
 8001dd8:	7bfa      	ldrb	r2, [r7, #15]
 8001dda:	429a      	cmp	r2, r3
 8001ddc:	d1ef      	bne.n	8001dbe <slcanReciveCanFrame+0x3e>
		}
	}
	slcanSetOutputChar(terminator);
 8001dde:	4b06      	ldr	r3, [pc, #24]	; (8001df8 <slcanReciveCanFrame+0x78>)
 8001de0:	781b      	ldrb	r3, [r3, #0]
 8001de2:	4618      	mov	r0, r3
 8001de4:	f7ff fbc8 	bl	8001578 <slcanSetOutputChar>
	slcanOutputFlush();
 8001de8:	f7ff fc14 	bl	8001614 <slcanOutputFlush>
	return 0;
 8001dec:	2300      	movs	r3, #0
}
 8001dee:	4618      	mov	r0, r3
 8001df0:	3710      	adds	r7, #16
 8001df2:	46bd      	mov	sp, r7
 8001df4:	bd80      	pop	{r7, pc}
 8001df6:	bf00      	nop
 8001df8:	20000009 	.word	0x20000009

08001dfc <HAL_MspInit>:
/* USER CODE END 0 */
/**
  * Initializes the Global MSP.
  */
void HAL_MspInit(void)
{
 8001dfc:	b480      	push	{r7}
 8001dfe:	b083      	sub	sp, #12
 8001e00:	af00      	add	r7, sp, #0
  /* USER CODE BEGIN MspInit 0 */

  /* USER CODE END MspInit 0 */

  __HAL_RCC_SYSCFG_CLK_ENABLE();
 8001e02:	2300      	movs	r3, #0
 8001e04:	607b      	str	r3, [r7, #4]
 8001e06:	4b10      	ldr	r3, [pc, #64]	; (8001e48 <HAL_MspInit+0x4c>)
 8001e08:	6c5b      	ldr	r3, [r3, #68]	; 0x44
 8001e0a:	4a0f      	ldr	r2, [pc, #60]	; (8001e48 <HAL_MspInit+0x4c>)
 8001e0c:	f443 4380 	orr.w	r3, r3, #16384	; 0x4000
 8001e10:	6453      	str	r3, [r2, #68]	; 0x44
 8001e12:	4b0d      	ldr	r3, [pc, #52]	; (8001e48 <HAL_MspInit+0x4c>)
 8001e14:	6c5b      	ldr	r3, [r3, #68]	; 0x44
 8001e16:	f403 4380 	and.w	r3, r3, #16384	; 0x4000
 8001e1a:	607b      	str	r3, [r7, #4]
 8001e1c:	687b      	ldr	r3, [r7, #4]
  __HAL_RCC_PWR_CLK_ENABLE();
 8001e1e:	2300      	movs	r3, #0
 8001e20:	603b      	str	r3, [r7, #0]
 8001e22:	4b09      	ldr	r3, [pc, #36]	; (8001e48 <HAL_MspInit+0x4c>)
 8001e24:	6c1b      	ldr	r3, [r3, #64]	; 0x40
 8001e26:	4a08      	ldr	r2, [pc, #32]	; (8001e48 <HAL_MspInit+0x4c>)
 8001e28:	f043 5380 	orr.w	r3, r3, #268435456	; 0x10000000
 8001e2c:	6413      	str	r3, [r2, #64]	; 0x40
 8001e2e:	4b06      	ldr	r3, [pc, #24]	; (8001e48 <HAL_MspInit+0x4c>)
 8001e30:	6c1b      	ldr	r3, [r3, #64]	; 0x40
 8001e32:	f003 5380 	and.w	r3, r3, #268435456	; 0x10000000
 8001e36:	603b      	str	r3, [r7, #0]
 8001e38:	683b      	ldr	r3, [r7, #0]
  /* System interrupt init*/

  /* USER CODE BEGIN MspInit 1 */

  /* USER CODE END MspInit 1 */
}
 8001e3a:	bf00      	nop
 8001e3c:	370c      	adds	r7, #12
 8001e3e:	46bd      	mov	sp, r7
 8001e40:	f85d 7b04 	ldr.w	r7, [sp], #4
 8001e44:	4770      	bx	lr
 8001e46:	bf00      	nop
 8001e48:	40023800 	.word	0x40023800

08001e4c <HAL_UART_MspInit>:
* This function configures the hardware resources used in this example
* @param huart: UART handle pointer
* @retval None
*/
void HAL_UART_MspInit(UART_HandleTypeDef* huart)
{
 8001e4c:	b580      	push	{r7, lr}
 8001e4e:	b08a      	sub	sp, #40	; 0x28
 8001e50:	af00      	add	r7, sp, #0
 8001e52:	6078      	str	r0, [r7, #4]
  GPIO_InitTypeDef GPIO_InitStruct = {0};
 8001e54:	f107 0314 	add.w	r3, r7, #20
 8001e58:	2200      	movs	r2, #0
 8001e5a:	601a      	str	r2, [r3, #0]
 8001e5c:	605a      	str	r2, [r3, #4]
 8001e5e:	609a      	str	r2, [r3, #8]
 8001e60:	60da      	str	r2, [r3, #12]
 8001e62:	611a      	str	r2, [r3, #16]
  if(huart->Instance==USART1)
 8001e64:	687b      	ldr	r3, [r7, #4]
 8001e66:	681b      	ldr	r3, [r3, #0]
 8001e68:	4a1d      	ldr	r2, [pc, #116]	; (8001ee0 <HAL_UART_MspInit+0x94>)
 8001e6a:	4293      	cmp	r3, r2
 8001e6c:	d134      	bne.n	8001ed8 <HAL_UART_MspInit+0x8c>
  {
  /* USER CODE BEGIN USART1_MspInit 0 */

  /* USER CODE END USART1_MspInit 0 */
    /* Peripheral clock enable */
    __HAL_RCC_USART1_CLK_ENABLE();
 8001e6e:	2300      	movs	r3, #0
 8001e70:	613b      	str	r3, [r7, #16]
 8001e72:	4b1c      	ldr	r3, [pc, #112]	; (8001ee4 <HAL_UART_MspInit+0x98>)
 8001e74:	6c5b      	ldr	r3, [r3, #68]	; 0x44
 8001e76:	4a1b      	ldr	r2, [pc, #108]	; (8001ee4 <HAL_UART_MspInit+0x98>)
 8001e78:	f043 0310 	orr.w	r3, r3, #16
 8001e7c:	6453      	str	r3, [r2, #68]	; 0x44
 8001e7e:	4b19      	ldr	r3, [pc, #100]	; (8001ee4 <HAL_UART_MspInit+0x98>)
 8001e80:	6c5b      	ldr	r3, [r3, #68]	; 0x44
 8001e82:	f003 0310 	and.w	r3, r3, #16
 8001e86:	613b      	str	r3, [r7, #16]
 8001e88:	693b      	ldr	r3, [r7, #16]
  
    __HAL_RCC_GPIOA_CLK_ENABLE();
 8001e8a:	2300      	movs	r3, #0
 8001e8c:	60fb      	str	r3, [r7, #12]
 8001e8e:	4b15      	ldr	r3, [pc, #84]	; (8001ee4 <HAL_UART_MspInit+0x98>)
 8001e90:	6b1b      	ldr	r3, [r3, #48]	; 0x30
 8001e92:	4a14      	ldr	r2, [pc, #80]	; (8001ee4 <HAL_UART_MspInit+0x98>)
 8001e94:	f043 0301 	orr.w	r3, r3, #1
 8001e98:	6313      	str	r3, [r2, #48]	; 0x30
 8001e9a:	4b12      	ldr	r3, [pc, #72]	; (8001ee4 <HAL_UART_MspInit+0x98>)
 8001e9c:	6b1b      	ldr	r3, [r3, #48]	; 0x30
 8001e9e:	f003 0301 	and.w	r3, r3, #1
 8001ea2:	60fb      	str	r3, [r7, #12]
 8001ea4:	68fb      	ldr	r3, [r7, #12]
    /**USART1 GPIO Configuration    
    PA9     ------> USART1_TX
    PA10     ------> USART1_RX 
    */
    GPIO_InitStruct.Pin = GPIO_PIN_9|GPIO_PIN_10;
 8001ea6:	f44f 63c0 	mov.w	r3, #1536	; 0x600
 8001eaa:	617b      	str	r3, [r7, #20]
    GPIO_InitStruct.Mode = GPIO_MODE_AF_PP;
 8001eac:	2302      	movs	r3, #2
 8001eae:	61bb      	str	r3, [r7, #24]
    GPIO_InitStruct.Pull = GPIO_NOPULL;
 8001eb0:	2300      	movs	r3, #0
 8001eb2:	61fb      	str	r3, [r7, #28]
    GPIO_InitStruct.Speed = GPIO_SPEED_FREQ_VERY_HIGH;
 8001eb4:	2303      	movs	r3, #3
 8001eb6:	623b      	str	r3, [r7, #32]
    GPIO_InitStruct.Alternate = GPIO_AF7_USART1;
 8001eb8:	2307      	movs	r3, #7
 8001eba:	627b      	str	r3, [r7, #36]	; 0x24
    HAL_GPIO_Init(GPIOA, &GPIO_InitStruct);
 8001ebc:	f107 0314 	add.w	r3, r7, #20
 8001ec0:	4619      	mov	r1, r3
 8001ec2:	4809      	ldr	r0, [pc, #36]	; (8001ee8 <HAL_UART_MspInit+0x9c>)
 8001ec4:	f000 fa9c 	bl	8002400 <HAL_GPIO_Init>

    /* USART1 interrupt Init */
    HAL_NVIC_SetPriority(USART1_IRQn, 0, 0);
 8001ec8:	2200      	movs	r2, #0
 8001eca:	2100      	movs	r1, #0
 8001ecc:	2025      	movs	r0, #37	; 0x25
 8001ece:	f000 fa3e 	bl	800234e <HAL_NVIC_SetPriority>
    HAL_NVIC_EnableIRQ(USART1_IRQn);
 8001ed2:	2025      	movs	r0, #37	; 0x25
 8001ed4:	f000 fa57 	bl	8002386 <HAL_NVIC_EnableIRQ>
  /* USER CODE BEGIN USART1_MspInit 1 */

  /* USER CODE END USART1_MspInit 1 */
  }

}
 8001ed8:	bf00      	nop
 8001eda:	3728      	adds	r7, #40	; 0x28
 8001edc:	46bd      	mov	sp, r7
 8001ede:	bd80      	pop	{r7, pc}
 8001ee0:	40011000 	.word	0x40011000
 8001ee4:	40023800 	.word	0x40023800
 8001ee8:	40020000 	.word	0x40020000

08001eec <NMI_Handler>:
/******************************************************************************/
/**
  * @brief This function handles Non maskable interrupt.
  */
void NMI_Handler(void)
{
 8001eec:	b480      	push	{r7}
 8001eee:	af00      	add	r7, sp, #0

  /* USER CODE END NonMaskableInt_IRQn 0 */
  /* USER CODE BEGIN NonMaskableInt_IRQn 1 */

  /* USER CODE END NonMaskableInt_IRQn 1 */
}
 8001ef0:	bf00      	nop
 8001ef2:	46bd      	mov	sp, r7
 8001ef4:	f85d 7b04 	ldr.w	r7, [sp], #4
 8001ef8:	4770      	bx	lr

08001efa <HardFault_Handler>:

/**
  * @brief This function handles Hard fault interrupt.
  */
void HardFault_Handler(void)
{
 8001efa:	b480      	push	{r7}
 8001efc:	af00      	add	r7, sp, #0
  /* USER CODE BEGIN HardFault_IRQn 0 */

  /* USER CODE END HardFault_IRQn 0 */
  while (1)
 8001efe:	e7fe      	b.n	8001efe <HardFault_Handler+0x4>

08001f00 <MemManage_Handler>:

/**
  * @brief This function handles Memory management fault.
  */
void MemManage_Handler(void)
{
 8001f00:	b480      	push	{r7}
 8001f02:	af00      	add	r7, sp, #0
  /* USER CODE BEGIN MemoryManagement_IRQn 0 */

  /* USER CODE END MemoryManagement_IRQn 0 */
  while (1)
 8001f04:	e7fe      	b.n	8001f04 <MemManage_Handler+0x4>

08001f06 <BusFault_Handler>:

/**
  * @brief This function handles Pre-fetch fault, memory access fault.
  */
void BusFault_Handler(void)
{
 8001f06:	b480      	push	{r7}
 8001f08:	af00      	add	r7, sp, #0
  /* USER CODE BEGIN BusFault_IRQn 0 */

  /* USER CODE END BusFault_IRQn 0 */
  while (1)
 8001f0a:	e7fe      	b.n	8001f0a <BusFault_Handler+0x4>

08001f0c <UsageFault_Handler>:

/**
  * @brief This function handles Undefined instruction or illegal state.
  */
void UsageFault_Handler(void)
{
 8001f0c:	b480      	push	{r7}
 8001f0e:	af00      	add	r7, sp, #0
  /* USER CODE BEGIN UsageFault_IRQn 0 */

  /* USER CODE END UsageFault_IRQn 0 */
  while (1)
 8001f10:	e7fe      	b.n	8001f10 <UsageFault_Handler+0x4>

08001f12 <SVC_Handler>:

/**
  * @brief This function handles System service call via SWI instruction.
  */
void SVC_Handler(void)
{
 8001f12:	b480      	push	{r7}
 8001f14:	af00      	add	r7, sp, #0

  /* USER CODE END SVCall_IRQn 0 */
  /* USER CODE BEGIN SVCall_IRQn 1 */

  /* USER CODE END SVCall_IRQn 1 */
}
 8001f16:	bf00      	nop
 8001f18:	46bd      	mov	sp, r7
 8001f1a:	f85d 7b04 	ldr.w	r7, [sp], #4
 8001f1e:	4770      	bx	lr

08001f20 <DebugMon_Handler>:

/**
  * @brief This function handles Debug monitor.
  */
void DebugMon_Handler(void)
{
 8001f20:	b480      	push	{r7}
 8001f22:	af00      	add	r7, sp, #0

  /* USER CODE END DebugMonitor_IRQn 0 */
  /* USER CODE BEGIN DebugMonitor_IRQn 1 */

  /* USER CODE END DebugMonitor_IRQn 1 */
}
 8001f24:	bf00      	nop
 8001f26:	46bd      	mov	sp, r7
 8001f28:	f85d 7b04 	ldr.w	r7, [sp], #4
 8001f2c:	4770      	bx	lr

08001f2e <PendSV_Handler>:

/**
  * @brief This function handles Pendable request for system service.
  */
void PendSV_Handler(void)
{
 8001f2e:	b480      	push	{r7}
 8001f30:	af00      	add	r7, sp, #0

  /* USER CODE END PendSV_IRQn 0 */
  /* USER CODE BEGIN PendSV_IRQn 1 */

  /* USER CODE END PendSV_IRQn 1 */
}
 8001f32:	bf00      	nop
 8001f34:	46bd      	mov	sp, r7
 8001f36:	f85d 7b04 	ldr.w	r7, [sp], #4
 8001f3a:	4770      	bx	lr

08001f3c <SysTick_Handler>:

/**
  * @brief This function handles System tick timer.
  */
void SysTick_Handler(void)
{
 8001f3c:	b580      	push	{r7, lr}
 8001f3e:	af00      	add	r7, sp, #0
  /* USER CODE BEGIN SysTick_IRQn 0 */
  extern uint32_t slcan_lin_timeout_counter ;
  /* USER CODE END SysTick_IRQn 0 */
  HAL_IncTick();
 8001f40:	f000 f8e8 	bl	8002114 <HAL_IncTick>
  /* USER CODE BEGIN SysTick_IRQn 1 */
  slCanHandler(1);
 8001f44:	2001      	movs	r0, #1
 8001f46:	f7ff fb85 	bl	8001654 <slCanHandler>

  if ((slcan_lin_timeout_counter != 0) && (HAL_GetTick() - slcan_lin_timeout_counter > 3))
 8001f4a:	4b08      	ldr	r3, [pc, #32]	; (8001f6c <SysTick_Handler+0x30>)
 8001f4c:	681b      	ldr	r3, [r3, #0]
 8001f4e:	2b00      	cmp	r3, #0
 8001f50:	d009      	beq.n	8001f66 <SysTick_Handler+0x2a>
 8001f52:	f000 f8f3 	bl	800213c <HAL_GetTick>
 8001f56:	4602      	mov	r2, r0
 8001f58:	4b04      	ldr	r3, [pc, #16]	; (8001f6c <SysTick_Handler+0x30>)
 8001f5a:	681b      	ldr	r3, [r3, #0]
 8001f5c:	1ad3      	subs	r3, r2, r3
 8001f5e:	2b03      	cmp	r3, #3
 8001f60:	d901      	bls.n	8001f66 <SysTick_Handler+0x2a>
  {
	  lin_slcan_rx_timeout_handler();
 8001f62:	f7fe fc37 	bl	80007d4 <lin_slcan_rx_timeout_handler>
  }
  /* USER CODE END SysTick_IRQn 1 */
}
 8001f66:	bf00      	nop
 8001f68:	bd80      	pop	{r7, pc}
 8001f6a:	bf00      	nop
 8001f6c:	20000228 	.word	0x20000228

08001f70 <USART1_IRQHandler>:

/**
  * @brief This function handles USART1 global interrupt.
  */
void USART1_IRQHandler(void)
{
 8001f70:	b580      	push	{r7, lr}
 8001f72:	af00      	add	r7, sp, #0
  /* USER CODE BEGIN USART1_IRQn 0 */

  /* USER CODE END USART1_IRQn 0 */
  HAL_UART_IRQHandler(&huart1);
 8001f74:	4802      	ldr	r0, [pc, #8]	; (8001f80 <USART1_IRQHandler+0x10>)
 8001f76:	f002 fb17 	bl	80045a8 <HAL_UART_IRQHandler>
  /* USER CODE BEGIN USART1_IRQn 1 */

  /* USER CODE END USART1_IRQn 1 */
}
 8001f7a:	bf00      	nop
 8001f7c:	bd80      	pop	{r7, pc}
 8001f7e:	bf00      	nop
 8001f80:	20000444 	.word	0x20000444

08001f84 <OTG_FS_IRQHandler>:

/**
  * @brief This function handles USB On The Go FS global interrupt.
  */
void OTG_FS_IRQHandler(void)
{
 8001f84:	b580      	push	{r7, lr}
 8001f86:	af00      	add	r7, sp, #0
  /* USER CODE BEGIN OTG_FS_IRQn 0 */

  /* USER CODE END OTG_FS_IRQn 0 */
  HAL_PCD_IRQHandler(&hpcd_USB_OTG_FS);
 8001f88:	4802      	ldr	r0, [pc, #8]	; (8001f94 <OTG_FS_IRQHandler+0x10>)
 8001f8a:	f000 fd23 	bl	80029d4 <HAL_PCD_IRQHandler>
  /* USER CODE BEGIN OTG_FS_IRQn 1 */

  /* USER CODE END OTG_FS_IRQn 1 */
}
 8001f8e:	bf00      	nop
 8001f90:	bd80      	pop	{r7, pc}
 8001f92:	bf00      	nop
 8001f94:	20000b98 	.word	0x20000b98

08001f98 <_sbrk>:
/**
 _sbrk
 Increase program data space. Malloc and related functions depend on this
**/
caddr_t _sbrk(int incr)
{
 8001f98:	b580      	push	{r7, lr}
 8001f9a:	b084      	sub	sp, #16
 8001f9c:	af00      	add	r7, sp, #0
 8001f9e:	6078      	str	r0, [r7, #4]
	extern char end asm("end");
	static char *heap_end;
	char *prev_heap_end;

	if (heap_end == 0)
 8001fa0:	4b11      	ldr	r3, [pc, #68]	; (8001fe8 <_sbrk+0x50>)
 8001fa2:	681b      	ldr	r3, [r3, #0]
 8001fa4:	2b00      	cmp	r3, #0
 8001fa6:	d102      	bne.n	8001fae <_sbrk+0x16>
		heap_end = &end;
 8001fa8:	4b0f      	ldr	r3, [pc, #60]	; (8001fe8 <_sbrk+0x50>)
 8001faa:	4a10      	ldr	r2, [pc, #64]	; (8001fec <_sbrk+0x54>)
 8001fac:	601a      	str	r2, [r3, #0]

	prev_heap_end = heap_end;
 8001fae:	4b0e      	ldr	r3, [pc, #56]	; (8001fe8 <_sbrk+0x50>)
 8001fb0:	681b      	ldr	r3, [r3, #0]
 8001fb2:	60fb      	str	r3, [r7, #12]
	if (heap_end + incr > stack_ptr)
 8001fb4:	4b0c      	ldr	r3, [pc, #48]	; (8001fe8 <_sbrk+0x50>)
 8001fb6:	681a      	ldr	r2, [r3, #0]
 8001fb8:	687b      	ldr	r3, [r7, #4]
 8001fba:	4413      	add	r3, r2
 8001fbc:	466a      	mov	r2, sp
 8001fbe:	4293      	cmp	r3, r2
 8001fc0:	d907      	bls.n	8001fd2 <_sbrk+0x3a>
	{
		errno = ENOMEM;
 8001fc2:	f006 fd3f 	bl	8008a44 <__errno>
 8001fc6:	4602      	mov	r2, r0
 8001fc8:	230c      	movs	r3, #12
 8001fca:	6013      	str	r3, [r2, #0]
		return (caddr_t) -1;
 8001fcc:	f04f 33ff 	mov.w	r3, #4294967295
 8001fd0:	e006      	b.n	8001fe0 <_sbrk+0x48>
	}

	heap_end += incr;
 8001fd2:	4b05      	ldr	r3, [pc, #20]	; (8001fe8 <_sbrk+0x50>)
 8001fd4:	681a      	ldr	r2, [r3, #0]
 8001fd6:	687b      	ldr	r3, [r7, #4]
 8001fd8:	4413      	add	r3, r2
 8001fda:	4a03      	ldr	r2, [pc, #12]	; (8001fe8 <_sbrk+0x50>)
 8001fdc:	6013      	str	r3, [r2, #0]

	return (caddr_t) prev_heap_end;
 8001fde:	68fb      	ldr	r3, [r7, #12]
}
 8001fe0:	4618      	mov	r0, r3
 8001fe2:	3710      	adds	r7, #16
 8001fe4:	46bd      	mov	sp, r7
 8001fe6:	bd80      	pop	{r7, pc}
 8001fe8:	200002e8 	.word	0x200002e8
 8001fec:	20000fa8 	.word	0x20000fa8

08001ff0 <SystemInit>:
  *         configuration.
  * @param  None
  * @retval None
  */
void SystemInit(void)
{
 8001ff0:	b480      	push	{r7}
 8001ff2:	af00      	add	r7, sp, #0
  /* FPU settings ------------------------------------------------------------*/
  #if (__FPU_PRESENT == 1) && (__FPU_USED == 1)
    SCB->CPACR |= ((3UL << 10*2)|(3UL << 11*2));  /* set CP10 and CP11 Full Access */
 8001ff4:	4b08      	ldr	r3, [pc, #32]	; (8002018 <SystemInit+0x28>)
 8001ff6:	f8d3 3088 	ldr.w	r3, [r3, #136]	; 0x88
 8001ffa:	4a07      	ldr	r2, [pc, #28]	; (8002018 <SystemInit+0x28>)
 8001ffc:	f443 0370 	orr.w	r3, r3, #15728640	; 0xf00000
 8002000:	f8c2 3088 	str.w	r3, [r2, #136]	; 0x88

  /* Configure the Vector Table location add offset address ------------------*/
#ifdef VECT_TAB_SRAM
  SCB->VTOR = SRAM_BASE | VECT_TAB_OFFSET; /* Vector Table Relocation in Internal SRAM */
#else
  SCB->VTOR = FLASH_BASE | VECT_TAB_OFFSET; /* Vector Table Relocation in Internal FLASH */
 8002004:	4b04      	ldr	r3, [pc, #16]	; (8002018 <SystemInit+0x28>)
 8002006:	f04f 6200 	mov.w	r2, #134217728	; 0x8000000
 800200a:	609a      	str	r2, [r3, #8]
#endif
}
 800200c:	bf00      	nop
 800200e:	46bd      	mov	sp, r7
 8002010:	f85d 7b04 	ldr.w	r7, [sp], #4
 8002014:	4770      	bx	lr
 8002016:	bf00      	nop
 8002018:	e000ed00 	.word	0xe000ed00

0800201c <Reset_Handler>:

    .section  .text.Reset_Handler
  .weak  Reset_Handler
  .type  Reset_Handler, %function
Reset_Handler:  
  ldr   sp, =_estack     /* set stack pointer */
 800201c:	f8df d034 	ldr.w	sp, [pc, #52]	; 8002054 <LoopFillZerobss+0x14>

/* Copy the data segment initializers from flash to SRAM */  
  movs  r1, #0
 8002020:	2100      	movs	r1, #0
  b  LoopCopyDataInit
 8002022:	e003      	b.n	800202c <LoopCopyDataInit>

08002024 <CopyDataInit>:

CopyDataInit:
  ldr  r3, =_sidata
 8002024:	4b0c      	ldr	r3, [pc, #48]	; (8002058 <LoopFillZerobss+0x18>)
  ldr  r3, [r3, r1]
 8002026:	585b      	ldr	r3, [r3, r1]
  str  r3, [r0, r1]
 8002028:	5043      	str	r3, [r0, r1]
  adds  r1, r1, #4
 800202a:	3104      	adds	r1, #4

0800202c <LoopCopyDataInit>:
    
LoopCopyDataInit:
  ldr  r0, =_sdata
 800202c:	480b      	ldr	r0, [pc, #44]	; (800205c <LoopFillZerobss+0x1c>)
  ldr  r3, =_edata
 800202e:	4b0c      	ldr	r3, [pc, #48]	; (8002060 <LoopFillZerobss+0x20>)
  adds  r2, r0, r1
 8002030:	1842      	adds	r2, r0, r1
  cmp  r2, r3
 8002032:	429a      	cmp	r2, r3
  bcc  CopyDataInit
 8002034:	d3f6      	bcc.n	8002024 <CopyDataInit>
  ldr  r2, =_sbss
 8002036:	4a0b      	ldr	r2, [pc, #44]	; (8002064 <LoopFillZerobss+0x24>)
  b  LoopFillZerobss
 8002038:	e002      	b.n	8002040 <LoopFillZerobss>

0800203a <FillZerobss>:
/* Zero fill the bss segment. */  
FillZerobss:
  movs  r3, #0
 800203a:	2300      	movs	r3, #0
  str  r3, [r2], #4
 800203c:	f842 3b04 	str.w	r3, [r2], #4

08002040 <LoopFillZerobss>:
    
LoopFillZerobss:
  ldr  r3, = _ebss
 8002040:	4b09      	ldr	r3, [pc, #36]	; (8002068 <LoopFillZerobss+0x28>)
  cmp  r2, r3
 8002042:	429a      	cmp	r2, r3
  bcc  FillZerobss
 8002044:	d3f9      	bcc.n	800203a <FillZerobss>

/* Call the clock system intitialization function.*/
  bl  SystemInit   
 8002046:	f7ff ffd3 	bl	8001ff0 <SystemInit>
/* Call static constructors */
    bl __libc_init_array
 800204a:	f006 fd01 	bl	8008a50 <__libc_init_array>
/* Call the application's entry point.*/
  bl  main
 800204e:	f7fe fcc7 	bl	80009e0 <main>
  bx  lr    
 8002052:	4770      	bx	lr
  ldr   sp, =_estack     /* set stack pointer */
 8002054:	20020000 	.word	0x20020000
  ldr  r3, =_sidata
 8002058:	08008cc8 	.word	0x08008cc8
  ldr  r0, =_sdata
 800205c:	20000000 	.word	0x20000000
  ldr  r3, =_edata
 8002060:	200001f0 	.word	0x200001f0
  ldr  r2, =_sbss
 8002064:	200001f0 	.word	0x200001f0
  ldr  r3, = _ebss
 8002068:	20000fa4 	.word	0x20000fa4

0800206c <ADC_IRQHandler>:
 * @retval None       
*/
    .section  .text.Default_Handler,"ax",%progbits
Default_Handler:
Infinite_Loop:
  b  Infinite_Loop
 800206c:	e7fe      	b.n	800206c <ADC_IRQHandler>
	...

08002070 <HAL_Init>:
  *         need to ensure that the SysTick time base is always set to 1 millisecond
  *         to have correct HAL operation.
  * @retval HAL status
  */
HAL_StatusTypeDef HAL_Init(void)
{
 8002070:	b580      	push	{r7, lr}
 8002072:	af00      	add	r7, sp, #0
  /* Configure Flash prefetch, Instruction cache, Data cache */ 
#if (INSTRUCTION_CACHE_ENABLE != 0U)
  __HAL_FLASH_INSTRUCTION_CACHE_ENABLE();
 8002074:	4b0e      	ldr	r3, [pc, #56]	; (80020b0 <HAL_Init+0x40>)
 8002076:	681b      	ldr	r3, [r3, #0]
 8002078:	4a0d      	ldr	r2, [pc, #52]	; (80020b0 <HAL_Init+0x40>)
 800207a:	f443 7300 	orr.w	r3, r3, #512	; 0x200
 800207e:	6013      	str	r3, [r2, #0]
#endif /* INSTRUCTION_CACHE_ENABLE */

#if (DATA_CACHE_ENABLE != 0U)
  __HAL_FLASH_DATA_CACHE_ENABLE();
 8002080:	4b0b      	ldr	r3, [pc, #44]	; (80020b0 <HAL_Init+0x40>)
 8002082:	681b      	ldr	r3, [r3, #0]
 8002084:	4a0a      	ldr	r2, [pc, #40]	; (80020b0 <HAL_Init+0x40>)
 8002086:	f443 6380 	orr.w	r3, r3, #1024	; 0x400
 800208a:	6013      	str	r3, [r2, #0]
#endif /* DATA_CACHE_ENABLE */

#if (PREFETCH_ENABLE != 0U)
  __HAL_FLASH_PREFETCH_BUFFER_ENABLE();
 800208c:	4b08      	ldr	r3, [pc, #32]	; (80020b0 <HAL_Init+0x40>)
 800208e:	681b      	ldr	r3, [r3, #0]
 8002090:	4a07      	ldr	r2, [pc, #28]	; (80020b0 <HAL_Init+0x40>)
 8002092:	f443 7380 	orr.w	r3, r3, #256	; 0x100
 8002096:	6013      	str	r3, [r2, #0]
#endif /* PREFETCH_ENABLE */

  /* Set Interrupt Group Priority */
  HAL_NVIC_SetPriorityGrouping(NVIC_PRIORITYGROUP_4);
 8002098:	2003      	movs	r0, #3
 800209a:	f000 f94d 	bl	8002338 <HAL_NVIC_SetPriorityGrouping>

  /* Use systick as time base source and configure 1ms tick (default clock after Reset is HSI) */
  HAL_InitTick(TICK_INT_PRIORITY);
 800209e:	2000      	movs	r0, #0
 80020a0:	f000 f808 	bl	80020b4 <HAL_InitTick>

  /* Init the low level hardware */
  HAL_MspInit();
 80020a4:	f7ff feaa 	bl	8001dfc <HAL_MspInit>

  /* Return function status */
  return HAL_OK;
 80020a8:	2300      	movs	r3, #0
}
 80020aa:	4618      	mov	r0, r3
 80020ac:	bd80      	pop	{r7, pc}
 80020ae:	bf00      	nop
 80020b0:	40023c00 	.word	0x40023c00

080020b4 <HAL_InitTick>:
  *       implementation  in user file.
  * @param TickPriority Tick interrupt priority.
  * @retval HAL status
  */
__weak HAL_StatusTypeDef HAL_InitTick(uint32_t TickPriority)
{
 80020b4:	b580      	push	{r7, lr}
 80020b6:	b082      	sub	sp, #8
 80020b8:	af00      	add	r7, sp, #0
 80020ba:	6078      	str	r0, [r7, #4]
  /* Configure the SysTick to have interrupt in 1ms time basis*/
  if (HAL_SYSTICK_Config(SystemCoreClock / (1000U / uwTickFreq)) > 0U)
 80020bc:	4b12      	ldr	r3, [pc, #72]	; (8002108 <HAL_InitTick+0x54>)
 80020be:	681a      	ldr	r2, [r3, #0]
 80020c0:	4b12      	ldr	r3, [pc, #72]	; (800210c <HAL_InitTick+0x58>)
 80020c2:	781b      	ldrb	r3, [r3, #0]
 80020c4:	4619      	mov	r1, r3
 80020c6:	f44f 737a 	mov.w	r3, #1000	; 0x3e8
 80020ca:	fbb3 f3f1 	udiv	r3, r3, r1
 80020ce:	fbb2 f3f3 	udiv	r3, r2, r3
 80020d2:	4618      	mov	r0, r3
 80020d4:	f000 f965 	bl	80023a2 <HAL_SYSTICK_Config>
 80020d8:	4603      	mov	r3, r0
 80020da:	2b00      	cmp	r3, #0
 80020dc:	d001      	beq.n	80020e2 <HAL_InitTick+0x2e>
  {
    return HAL_ERROR;
 80020de:	2301      	movs	r3, #1
 80020e0:	e00e      	b.n	8002100 <HAL_InitTick+0x4c>
  }

  /* Configure the SysTick IRQ priority */
  if (TickPriority < (1UL << __NVIC_PRIO_BITS))
 80020e2:	687b      	ldr	r3, [r7, #4]
 80020e4:	2b0f      	cmp	r3, #15
 80020e6:	d80a      	bhi.n	80020fe <HAL_InitTick+0x4a>
  {
    HAL_NVIC_SetPriority(SysTick_IRQn, TickPriority, 0U);
 80020e8:	2200      	movs	r2, #0
 80020ea:	6879      	ldr	r1, [r7, #4]
 80020ec:	f04f 30ff 	mov.w	r0, #4294967295
 80020f0:	f000 f92d 	bl	800234e <HAL_NVIC_SetPriority>
    uwTickPrio = TickPriority;
 80020f4:	4a06      	ldr	r2, [pc, #24]	; (8002110 <HAL_InitTick+0x5c>)
 80020f6:	687b      	ldr	r3, [r7, #4]
 80020f8:	6013      	str	r3, [r2, #0]
  {
    return HAL_ERROR;
  }

  /* Return function status */
  return HAL_OK;
 80020fa:	2300      	movs	r3, #0
 80020fc:	e000      	b.n	8002100 <HAL_InitTick+0x4c>
    return HAL_ERROR;
 80020fe:	2301      	movs	r3, #1
}
 8002100:	4618      	mov	r0, r3
 8002102:	3708      	adds	r7, #8
 8002104:	46bd      	mov	sp, r7
 8002106:	bd80      	pop	{r7, pc}
 8002108:	2000000c 	.word	0x2000000c
 800210c:	20000014 	.word	0x20000014
 8002110:	20000010 	.word	0x20000010

08002114 <HAL_IncTick>:
 * @note This function is declared as __weak to be overwritten in case of other 
  *      implementations in user file.
  * @retval None
  */
__weak void HAL_IncTick(void)
{
 8002114:	b480      	push	{r7}
 8002116:	af00      	add	r7, sp, #0
  uwTick += uwTickFreq;
 8002118:	4b06      	ldr	r3, [pc, #24]	; (8002134 <HAL_IncTick+0x20>)
 800211a:	781b      	ldrb	r3, [r3, #0]
 800211c:	461a      	mov	r2, r3
 800211e:	4b06      	ldr	r3, [pc, #24]	; (8002138 <HAL_IncTick+0x24>)
 8002120:	681b      	ldr	r3, [r3, #0]
 8002122:	4413      	add	r3, r2
 8002124:	4a04      	ldr	r2, [pc, #16]	; (8002138 <HAL_IncTick+0x24>)
 8002126:	6013      	str	r3, [r2, #0]
}
 8002128:	bf00      	nop
 800212a:	46bd      	mov	sp, r7
 800212c:	f85d 7b04 	ldr.w	r7, [sp], #4
 8002130:	4770      	bx	lr
 8002132:	bf00      	nop
 8002134:	20000014 	.word	0x20000014
 8002138:	200004c4 	.word	0x200004c4

0800213c <HAL_GetTick>:
  * @note This function is declared as __weak to be overwritten in case of other 
  *       implementations in user file.
  * @retval tick value
  */
__weak uint32_t HAL_GetTick(void)
{
 800213c:	b480      	push	{r7}
 800213e:	af00      	add	r7, sp, #0
  return uwTick;
 8002140:	4b03      	ldr	r3, [pc, #12]	; (8002150 <HAL_GetTick+0x14>)
 8002142:	681b      	ldr	r3, [r3, #0]
}
 8002144:	4618      	mov	r0, r3
 8002146:	46bd      	mov	sp, r7
 8002148:	f85d 7b04 	ldr.w	r7, [sp], #4
 800214c:	4770      	bx	lr
 800214e:	bf00      	nop
 8002150:	200004c4 	.word	0x200004c4

08002154 <HAL_Delay>:
  *       implementations in user file.
  * @param Delay specifies the delay time length, in milliseconds.
  * @retval None
  */
__weak void HAL_Delay(uint32_t Delay)
{
 8002154:	b580      	push	{r7, lr}
 8002156:	b084      	sub	sp, #16
 8002158:	af00      	add	r7, sp, #0
 800215a:	6078      	str	r0, [r7, #4]
  uint32_t tickstart = HAL_GetTick();
 800215c:	f7ff ffee 	bl	800213c <HAL_GetTick>
 8002160:	60b8      	str	r0, [r7, #8]
  uint32_t wait = Delay;
 8002162:	687b      	ldr	r3, [r7, #4]
 8002164:	60fb      	str	r3, [r7, #12]

  /* Add a freq to guarantee minimum wait */
  if (wait < HAL_MAX_DELAY)
 8002166:	68fb      	ldr	r3, [r7, #12]
 8002168:	f1b3 3fff 	cmp.w	r3, #4294967295
 800216c:	d005      	beq.n	800217a <HAL_Delay+0x26>
  {
    wait += (uint32_t)(uwTickFreq);
 800216e:	4b09      	ldr	r3, [pc, #36]	; (8002194 <HAL_Delay+0x40>)
 8002170:	781b      	ldrb	r3, [r3, #0]
 8002172:	461a      	mov	r2, r3
 8002174:	68fb      	ldr	r3, [r7, #12]
 8002176:	4413      	add	r3, r2
 8002178:	60fb      	str	r3, [r7, #12]
  }

  while((HAL_GetTick() - tickstart) < wait)
 800217a:	bf00      	nop
 800217c:	f7ff ffde 	bl	800213c <HAL_GetTick>
 8002180:	4602      	mov	r2, r0
 8002182:	68bb      	ldr	r3, [r7, #8]
 8002184:	1ad3      	subs	r3, r2, r3
 8002186:	68fa      	ldr	r2, [r7, #12]
 8002188:	429a      	cmp	r2, r3
 800218a:	d8f7      	bhi.n	800217c <HAL_Delay+0x28>
  {
  }
}
 800218c:	bf00      	nop
 800218e:	3710      	adds	r7, #16
 8002190:	46bd      	mov	sp, r7
 8002192:	bd80      	pop	{r7, pc}
 8002194:	20000014 	.word	0x20000014

08002198 <__NVIC_SetPriorityGrouping>:
{
 8002198:	b480      	push	{r7}
 800219a:	b085      	sub	sp, #20
 800219c:	af00      	add	r7, sp, #0
 800219e:	6078      	str	r0, [r7, #4]
  uint32_t PriorityGroupTmp = (PriorityGroup & (uint32_t)0x07UL);             /* only values 0..7 are used          */
 80021a0:	687b      	ldr	r3, [r7, #4]
 80021a2:	f003 0307 	and.w	r3, r3, #7
 80021a6:	60fb      	str	r3, [r7, #12]
  reg_value  =  SCB->AIRCR;                                                   /* read old register configuration    */
 80021a8:	4b0c      	ldr	r3, [pc, #48]	; (80021dc <__NVIC_SetPriorityGrouping+0x44>)
 80021aa:	68db      	ldr	r3, [r3, #12]
 80021ac:	60bb      	str	r3, [r7, #8]
  reg_value &= ~((uint32_t)(SCB_AIRCR_VECTKEY_Msk | SCB_AIRCR_PRIGROUP_Msk)); /* clear bits to change               */
 80021ae:	68ba      	ldr	r2, [r7, #8]
 80021b0:	f64f 03ff 	movw	r3, #63743	; 0xf8ff
 80021b4:	4013      	ands	r3, r2
 80021b6:	60bb      	str	r3, [r7, #8]
                (PriorityGroupTmp << SCB_AIRCR_PRIGROUP_Pos)  );              /* Insert write key and priority group */
 80021b8:	68fb      	ldr	r3, [r7, #12]
 80021ba:	021a      	lsls	r2, r3, #8
                ((uint32_t)0x5FAUL << SCB_AIRCR_VECTKEY_Pos) |
 80021bc:	68bb      	ldr	r3, [r7, #8]
 80021be:	4313      	orrs	r3, r2
  reg_value  =  (reg_value                                   |
 80021c0:	f043 63bf 	orr.w	r3, r3, #100139008	; 0x5f80000
 80021c4:	f443 3300 	orr.w	r3, r3, #131072	; 0x20000
 80021c8:	60bb      	str	r3, [r7, #8]
  SCB->AIRCR =  reg_value;
 80021ca:	4a04      	ldr	r2, [pc, #16]	; (80021dc <__NVIC_SetPriorityGrouping+0x44>)
 80021cc:	68bb      	ldr	r3, [r7, #8]
 80021ce:	60d3      	str	r3, [r2, #12]
}
 80021d0:	bf00      	nop
 80021d2:	3714      	adds	r7, #20
 80021d4:	46bd      	mov	sp, r7
 80021d6:	f85d 7b04 	ldr.w	r7, [sp], #4
 80021da:	4770      	bx	lr
 80021dc:	e000ed00 	.word	0xe000ed00

080021e0 <__NVIC_GetPriorityGrouping>:
{
 80021e0:	b480      	push	{r7}
 80021e2:	af00      	add	r7, sp, #0
  return ((uint32_t)((SCB->AIRCR & SCB_AIRCR_PRIGROUP_Msk) >> SCB_AIRCR_PRIGROUP_Pos));
 80021e4:	4b04      	ldr	r3, [pc, #16]	; (80021f8 <__NVIC_GetPriorityGrouping+0x18>)
 80021e6:	68db      	ldr	r3, [r3, #12]
 80021e8:	0a1b      	lsrs	r3, r3, #8
 80021ea:	f003 0307 	and.w	r3, r3, #7
}
 80021ee:	4618      	mov	r0, r3
 80021f0:	46bd      	mov	sp, r7
 80021f2:	f85d 7b04 	ldr.w	r7, [sp], #4
 80021f6:	4770      	bx	lr
 80021f8:	e000ed00 	.word	0xe000ed00

080021fc <__NVIC_EnableIRQ>:
{
 80021fc:	b480      	push	{r7}
 80021fe:	b083      	sub	sp, #12
 8002200:	af00      	add	r7, sp, #0
 8002202:	4603      	mov	r3, r0
 8002204:	71fb      	strb	r3, [r7, #7]
  if ((int32_t)(IRQn) >= 0)
 8002206:	f997 3007 	ldrsb.w	r3, [r7, #7]
 800220a:	2b00      	cmp	r3, #0
 800220c:	db0b      	blt.n	8002226 <__NVIC_EnableIRQ+0x2a>
    NVIC->ISER[(((uint32_t)IRQn) >> 5UL)] = (uint32_t)(1UL << (((uint32_t)IRQn) & 0x1FUL));
 800220e:	79fb      	ldrb	r3, [r7, #7]
 8002210:	f003 021f 	and.w	r2, r3, #31
 8002214:	4907      	ldr	r1, [pc, #28]	; (8002234 <__NVIC_EnableIRQ+0x38>)
 8002216:	f997 3007 	ldrsb.w	r3, [r7, #7]
 800221a:	095b      	lsrs	r3, r3, #5
 800221c:	2001      	movs	r0, #1
 800221e:	fa00 f202 	lsl.w	r2, r0, r2
 8002222:	f841 2023 	str.w	r2, [r1, r3, lsl #2]
}
 8002226:	bf00      	nop
 8002228:	370c      	adds	r7, #12
 800222a:	46bd      	mov	sp, r7
 800222c:	f85d 7b04 	ldr.w	r7, [sp], #4
 8002230:	4770      	bx	lr
 8002232:	bf00      	nop
 8002234:	e000e100 	.word	0xe000e100

08002238 <__NVIC_SetPriority>:
  \param [in]      IRQn  Interrupt number.
  \param [in]  priority  Priority to set.
  \note    The priority cannot be set for every processor exception.
 */
__STATIC_INLINE void __NVIC_SetPriority(IRQn_Type IRQn, uint32_t priority)
{
 8002238:	b480      	push	{r7}
 800223a:	b083      	sub	sp, #12
 800223c:	af00      	add	r7, sp, #0
 800223e:	4603      	mov	r3, r0
 8002240:	6039      	str	r1, [r7, #0]
 8002242:	71fb      	strb	r3, [r7, #7]
  if ((int32_t)(IRQn) >= 0)
 8002244:	f997 3007 	ldrsb.w	r3, [r7, #7]
 8002248:	2b00      	cmp	r3, #0
 800224a:	db0a      	blt.n	8002262 <__NVIC_SetPriority+0x2a>
  {
    NVIC->IP[((uint32_t)IRQn)]               = (uint8_t)((priority << (8U - __NVIC_PRIO_BITS)) & (uint32_t)0xFFUL);
 800224c:	683b      	ldr	r3, [r7, #0]
 800224e:	b2da      	uxtb	r2, r3
 8002250:	490c      	ldr	r1, [pc, #48]	; (8002284 <__NVIC_SetPriority+0x4c>)
 8002252:	f997 3007 	ldrsb.w	r3, [r7, #7]
 8002256:	0112      	lsls	r2, r2, #4
 8002258:	b2d2      	uxtb	r2, r2
 800225a:	440b      	add	r3, r1
 800225c:	f883 2300 	strb.w	r2, [r3, #768]	; 0x300
  }
  else
  {
    SCB->SHP[(((uint32_t)IRQn) & 0xFUL)-4UL] = (uint8_t)((priority << (8U - __NVIC_PRIO_BITS)) & (uint32_t)0xFFUL);
  }
}
 8002260:	e00a      	b.n	8002278 <__NVIC_SetPriority+0x40>
    SCB->SHP[(((uint32_t)IRQn) & 0xFUL)-4UL] = (uint8_t)((priority << (8U - __NVIC_PRIO_BITS)) & (uint32_t)0xFFUL);
 8002262:	683b      	ldr	r3, [r7, #0]
 8002264:	b2da      	uxtb	r2, r3
 8002266:	4908      	ldr	r1, [pc, #32]	; (8002288 <__NVIC_SetPriority+0x50>)
 8002268:	79fb      	ldrb	r3, [r7, #7]
 800226a:	f003 030f 	and.w	r3, r3, #15
 800226e:	3b04      	subs	r3, #4
 8002270:	0112      	lsls	r2, r2, #4
 8002272:	b2d2      	uxtb	r2, r2
 8002274:	440b      	add	r3, r1
 8002276:	761a      	strb	r2, [r3, #24]
}
 8002278:	bf00      	nop
 800227a:	370c      	adds	r7, #12
 800227c:	46bd      	mov	sp, r7
 800227e:	f85d 7b04 	ldr.w	r7, [sp], #4
 8002282:	4770      	bx	lr
 8002284:	e000e100 	.word	0xe000e100
 8002288:	e000ed00 	.word	0xe000ed00

0800228c <NVIC_EncodePriority>:
  \param [in]   PreemptPriority  Preemptive priority value (starting from 0).
  \param [in]       SubPriority  Subpriority value (starting from 0).
  \return                        Encoded priority. Value can be used in the function \ref NVIC_SetPriority().
 */
__STATIC_INLINE uint32_t NVIC_EncodePriority (uint32_t PriorityGroup, uint32_t PreemptPriority, uint32_t SubPriority)
{
 800228c:	b480      	push	{r7}
 800228e:	b089      	sub	sp, #36	; 0x24
 8002290:	af00      	add	r7, sp, #0
 8002292:	60f8      	str	r0, [r7, #12]
 8002294:	60b9      	str	r1, [r7, #8]
 8002296:	607a      	str	r2, [r7, #4]
  uint32_t PriorityGroupTmp = (PriorityGroup & (uint32_t)0x07UL);   /* only values 0..7 are used          */
 8002298:	68fb      	ldr	r3, [r7, #12]
 800229a:	f003 0307 	and.w	r3, r3, #7
 800229e:	61fb      	str	r3, [r7, #28]
  uint32_t PreemptPriorityBits;
  uint32_t SubPriorityBits;

  PreemptPriorityBits = ((7UL - PriorityGroupTmp) > (uint32_t)(__NVIC_PRIO_BITS)) ? (uint32_t)(__NVIC_PRIO_BITS) : (uint32_t)(7UL - PriorityGroupTmp);
 80022a0:	69fb      	ldr	r3, [r7, #28]
 80022a2:	f1c3 0307 	rsb	r3, r3, #7
 80022a6:	2b04      	cmp	r3, #4
 80022a8:	bf28      	it	cs
 80022aa:	2304      	movcs	r3, #4
 80022ac:	61bb      	str	r3, [r7, #24]
  SubPriorityBits     = ((PriorityGroupTmp + (uint32_t)(__NVIC_PRIO_BITS)) < (uint32_t)7UL) ? (uint32_t)0UL : (uint32_t)((PriorityGroupTmp - 7UL) + (uint32_t)(__NVIC_PRIO_BITS));
 80022ae:	69fb      	ldr	r3, [r7, #28]
 80022b0:	3304      	adds	r3, #4
 80022b2:	2b06      	cmp	r3, #6
 80022b4:	d902      	bls.n	80022bc <NVIC_EncodePriority+0x30>
 80022b6:	69fb      	ldr	r3, [r7, #28]
 80022b8:	3b03      	subs	r3, #3
 80022ba:	e000      	b.n	80022be <NVIC_EncodePriority+0x32>
 80022bc:	2300      	movs	r3, #0
 80022be:	617b      	str	r3, [r7, #20]

  return (
           ((PreemptPriority & (uint32_t)((1UL << (PreemptPriorityBits)) - 1UL)) << SubPriorityBits) |
 80022c0:	f04f 32ff 	mov.w	r2, #4294967295
 80022c4:	69bb      	ldr	r3, [r7, #24]
 80022c6:	fa02 f303 	lsl.w	r3, r2, r3
 80022ca:	43da      	mvns	r2, r3
 80022cc:	68bb      	ldr	r3, [r7, #8]
 80022ce:	401a      	ands	r2, r3
 80022d0:	697b      	ldr	r3, [r7, #20]
 80022d2:	409a      	lsls	r2, r3
           ((SubPriority     & (uint32_t)((1UL << (SubPriorityBits    )) - 1UL)))
 80022d4:	f04f 31ff 	mov.w	r1, #4294967295
 80022d8:	697b      	ldr	r3, [r7, #20]
 80022da:	fa01 f303 	lsl.w	r3, r1, r3
 80022de:	43d9      	mvns	r1, r3
